{
	"data": {
		"bytecode": {
			"linkReferences": {},
			"object": "60c060405234801561000f575f80fd5b50604051615f0f380380615f0f833981810160405281019061003191906107af565b83838383838361004561029660201b60201c565b8484818181818d5f73ffffffffffffffffffffffffffffffffffffffff168173ffffffffffffffffffffffffffffffffffffffff16036100bc575f6040517f1e4fbdf70000000000000000000000000000000000000000000000000000000081526004016100b3919061085a565b60405180910390fd5b6100cb8161029e60201b60201c565b508173ffffffffffffffffffffffffffffffffffffffff1660808173ffffffffffffffffffffffffffffffffffffffff16815250505f73ffffffffffffffffffffffffffffffffffffffff168173ffffffffffffffffffffffffffffffffffffffff1603610165576040517fb586360400000000000000000000000000000000000000000000000000000000815260040160405180910390fd5b60805173ffffffffffffffffffffffffffffffffffffffff1663ca5eb5e1826040518263ffffffff1660e01b81526004016101a0919061085a565b5f604051808303815f87803b1580156101b7575f80fd5b505af11580156101c9573d5f803e3d5ffd5b50505050505050506101df61035f60201b60201c565b60ff168360ff16101561021e576040517f1e9714b000000000000000000000000000000000000000000000000000000000815260040160405180910390fd5b61022c61035f60201b60201c565b8361023791906108ac565b600a6102439190610a18565b60a08181525050505050816008908161025c9190610c66565b50806009908161026c9190610c66565b5050505050505061028d8169d3c21bcecceda100000061036760201b60201c565b50505050610dc5565b5f6012905090565b5f805f9054906101000a900473ffffffffffffffffffffffffffffffffffffffff169050815f806101000a81548173ffffffffffffffffffffffffffffffffffffffff021916908373ffffffffffffffffffffffffffffffffffffffff1602179055508173ffffffffffffffffffffffffffffffffffffffff168173ffffffffffffffffffffffffffffffffffffffff167f8be0079c531659141344cd1fd0a4f28419497f9722a3daafe3b4186f6b6457e060405160405180910390a35050565b5f6006905090565b5f73ffffffffffffffffffffffffffffffffffffffff168273ffffffffffffffffffffffffffffffffffffffff16036103d7575f6040517fec442f050000000000000000000000000000000000000000000000000000000081526004016103ce919061085a565b60405180910390fd5b6103e85f83836103ec60201b60201c565b5050565b5f73ffffffffffffffffffffffffffffffffffffffff168373ffffffffffffffffffffffffffffffffffffffff160361043c578060075f8282546104309190610d35565b9250508190555061050c565b5f60055f8573ffffffffffffffffffffffffffffffffffffffff1673ffffffffffffffffffffffffffffffffffffffff1681526020019081526020015f20549050818110156104c6578381836040517fe450d38c0000000000000000000000000000000000000000000000000000000081526004016104bd93929190610d77565b60405180910390fd5b81810360055f8673ffffffffffffffffffffffffffffffffffffffff1673ffffffffffffffffffffffffffffffffffffffff1681526020019081526020015f2081905550505b5f73ffffffffffffffffffffffffffffffffffffffff168273ffffffffffffffffffffffffffffffffffffffff1603610553578060075f828254039250508190555061059e565b8060055f8473ffffffffffffffffffffffffffffffffffffffff1673ffffffffffffffffffffffffffffffffffffffff1681526020019081526020015f205f82825401925050819055505b8173ffffffffffffffffffffffffffffffffffffffff168373ffffffffffffffffffffffffffffffffffffffff167fddf252ad1be2c89b69c2b068fc378daa952ba7f163c4a11628f55a4df523b3ef836040516105fb9190610dac565b60405180910390a3505050565b5f604051905090565b5f80fd5b5f80fd5b5f80fd5b5f80fd5b5f601f19601f8301169050919050565b7f4e487b71000000000000000000000000000000000000000000000000000000005f52604160045260245ffd5b61066782610621565b810181811067ffffffffffffffff8211171561068657610685610631565b5b80604052505050565b5f610698610608565b90506106a4828261065e565b919050565b5f67ffffffffffffffff8211156106c3576106c2610631565b5b6106cc82610621565b9050602081019050919050565b8281835e5f83830152505050565b5f6106f96106f4846106a9565b61068f565b9050828152602081018484840111156107155761071461061d565b5b6107208482856106d9565b509392505050565b5f82601f83011261073c5761073b610619565b5b815161074c8482602086016106e7565b91505092915050565b5f73ffffffffffffffffffffffffffffffffffffffff82169050919050565b5f61077e82610755565b9050919050565b61078e81610774565b8114610798575f80fd5b50565b5f815190506107a981610785565b92915050565b5f805f80608085870312156107c7576107c6610611565b5b5f85015167ffffffffffffffff8111156107e4576107e3610615565b5b6107f087828801610728565b945050602085015167ffffffffffffffff81111561081157610810610615565b5b61081d87828801610728565b935050604061082e8782880161079b565b925050606061083f8782880161079b565b91505092959194509250565b61085481610774565b82525050565b5f60208201905061086d5f83018461084b565b92915050565b5f60ff82169050919050565b7f4e487b71000000000000000000000000000000000000000000000000000000005f52601160045260245ffd5b5f6108b682610873565b91506108c183610873565b9250828203905060ff8111156108da576108d961087f565b5b92915050565b5f8160011c9050919050565b5f808291508390505b6001851115610935578086048111156109115761091061087f565b5b60018516156109205780820291505b808102905061092e856108e0565b94506108f5565b94509492505050565b5f8261094d5760019050610a08565b8161095a575f9050610a08565b8160018114610970576002811461097a576109a9565b6001915050610a08565b60ff84111561098c5761098b61087f565b5b8360020a9150848211156109a3576109a261087f565b5b50610a08565b5060208310610133831016604e8410600b84101617156109de5782820a9050838111156109d9576109d861087f565b5b610a08565b6109eb84848460016108ec565b92509050818404811115610a0257610a0161087f565b5b81810290505b9392505050565b5f819050919050565b5f610a2282610a0f565b9150610a2d83610873565b9250610a5a7fffffffffffffffffffffffffffffffffffffffffffffffffffffffffffffffff848461093e565b905092915050565b5f81519050919050565b7f4e487b71000000000000000000000000000000000000000000000000000000005f52602260045260245ffd5b5f6002820490506001821680610ab057607f821691505b602082108103610ac357610ac2610a6c565b5b50919050565b5f819050815f5260205f209050919050565b5f6020601f8301049050919050565b5f82821b905092915050565b5f60088302610b257fffffffffffffffffffffffffffffffffffffffffffffffffffffffffffffffff82610aea565b610b2f8683610aea565b95508019841693508086168417925050509392505050565b5f819050919050565b5f610b6a610b65610b6084610a0f565b610b47565b610a0f565b9050919050565b5f819050919050565b610b8383610b50565b610b97610b8f82610b71565b848454610af6565b825550505050565b5f90565b610bab610b9f565b610bb6818484610b7a565b505050565b5b81811015610bd957610bce5f82610ba3565b600181019050610bbc565b5050565b601f821115610c1e57610bef81610ac9565b610bf884610adb565b81016020851015610c07578190505b610c1b610c1385610adb565b830182610bbb565b50505b505050565b5f82821c905092915050565b5f610c3e5f1984600802610c23565b1980831691505092915050565b5f610c568383610c2f565b9150826002028217905092915050565b610c6f82610a62565b67ffffffffffffffff811115610c8857610c87610631565b5b610c928254610a99565b610c9d828285610bdd565b5f60209050601f831160018114610cce575f8415610cbc578287015190505b610cc68582610c4b565b865550610d2d565b601f198416610cdc86610ac9565b5f5b82811015610d0357848901518255600182019150602085019450602081019050610cde565b86831015610d205784890151610d1c601f891682610c2f565b8355505b6001600288020188555050505b505050505050565b5f610d3f82610a0f565b9150610d4a83610a0f565b9250828201905080821115610d6257610d6161087f565b5b92915050565b610d7181610a0f565b82525050565b5f606082019050610d8a5f83018661084b565b610d976020830185610d68565b610da46040830184610d68565b949350505050565b5f602082019050610dbf5f830184610d68565b92915050565b60805160a0516150dc610e335f395f818161116d0152818161254b0152818161256c01528181612610015261295f01525f8181610c8d01528181610f6e0152818161160f01528181611a5901528181611f5601528181612a5901528181612cab0152612da301526150dc5ff3fe608060405260043610610250575f3560e01c80637d25a05e11610138578063bb0b6a53116100b5578063d045a0dc11610079578063d045a0dc146108e7578063d424388514610903578063dd62ed3e1461092b578063f2fde38b14610967578063fc0c546a1461098f578063ff7bd03d146109b957610250565b8063bb0b6a53146107fa578063bc70b35414610836578063bd815db014610872578063c7c7f5b31461088e578063ca5eb5e1146108bf57610250565b8063963efcaa116100fc578063963efcaa146107185780639f68b96414610742578063a9059cbb1461076c578063b731ea0a146107a8578063b98bd070146107d257610250565b80637d25a05e1461062257806382413eac1461065e578063857749b01461069a5780638da5cb5b146106c457806395d89b41146106ee57610250565b806323b872dd116101d15780635535d461116101955780635535d461146105065780635a0dfe4d146105425780635e280f111461057e5780636fc1b31e146105a857806370a08231146105d0578063715018a61461060c57610250565b806323b872dd14610412578063313ce5671461044e5780633400288b146104785780633b6f743b146104a057806352ae2879146104dc57610250565b8063134d4f2511610218578063134d4f251461033e578063156a0d0f1461036857806317442b701461039357806318160ddd146103be5780631f5e1334146103e857610250565b806306fdde0314610254578063095ea7b31461027e5780630d35b415146102ba578063111ecdad146102f857806313137d6514610322575b5f80fd5b34801561025f575f80fd5b506102686109f5565b604051610275919061300e565b60405180910390f35b348015610289575f80fd5b506102a4600480360381019061029f91906130cc565b610a85565b6040516102b19190613124565b60405180910390f35b3480156102c5575f80fd5b506102e060048036038101906102db919061315f565b610aa7565b6040516102ef93929190613364565b60405180910390f35b348015610303575f80fd5b5061030c610c4f565b60405161031991906133af565b60405180910390f35b61033c6004803603810190610337919061347a565b610c74565b005b348015610349575f80fd5b50610352610d94565b60405161035f919061354d565b60405180910390f35b348015610373575f80fd5b5061037c610d99565b60405161038a9291906135c2565b60405180910390f35b34801561039e575f80fd5b506103a7610dc6565b6040516103b59291906135e9565b60405180910390f35b3480156103c9575f80fd5b506103d2610dd4565b6040516103df919061361f565b60405180910390f35b3480156103f3575f80fd5b506103fc610ddd565b604051610409919061354d565b60405180910390f35b34801561041d575f80fd5b5061043860048036038101906104339190613638565b610de2565b6040516104459190613124565b60405180910390f35b348015610459575f80fd5b50610462610e10565b60405161046f91906136a3565b60405180910390f35b348015610483575f80fd5b5061049e600480360381019061049991906136f5565b610e18565b005b3480156104ab575f80fd5b506104c660048036038101906104c1919061375d565b610e2e565b6040516104d391906137e4565b60405180910390f35b3480156104e7575f80fd5b506104f0610e96565b6040516104fd91906133af565b60405180910390f35b348015610511575f80fd5b5061052c60048036038101906105279190613827565b610e9d565b60405161053991906138b7565b60405180910390f35b34801561054d575f80fd5b50610568600480360381019061056391906136f5565b610f43565b6040516105759190613124565b60405180910390f35b348015610589575f80fd5b50610592610f6c565b60405161059f9190613932565b60405180910390f35b3480156105b3575f80fd5b506105ce60048036038101906105c9919061394b565b610f90565b005b3480156105db575f80fd5b506105f660048036038101906105f1919061394b565b611012565b604051610603919061361f565b60405180910390f35b348015610617575f80fd5b50610620611058565b005b34801561062d575f80fd5b50610648600480360381019061064391906136f5565b61106b565b6040516106559190613976565b60405180910390f35b348015610669575f80fd5b50610684600480360381019061067f919061398f565b611072565b6040516106919190613124565b60405180910390f35b3480156106a5575f80fd5b506106ae6110ac565b6040516106bb91906136a3565b60405180910390f35b3480156106cf575f80fd5b506106d86110b4565b6040516106e591906133af565b60405180910390f35b3480156106f9575f80fd5b506107026110db565b60405161070f919061300e565b60405180910390f35b348015610723575f80fd5b5061072c61116b565b604051610739919061361f565b60405180910390f35b34801561074d575f80fd5b5061075661118f565b6040516107639190613124565b60405180910390f35b348015610777575f80fd5b50610792600480360381019061078d91906130cc565b611193565b60405161079f9190613124565b60405180910390f35b3480156107b3575f80fd5b506107bc6111b5565b6040516107c991906133af565b60405180910390f35b3480156107dd575f80fd5b506107f860048036038101906107f39190613a55565b6111da565b005b348015610805575f80fd5b50610820600480360381019061081b9190613aa0565b6111fb565b60405161082d9190613ada565b60405180910390f35b348015610841575f80fd5b5061085c60048036038101906108579190613af3565b611210565b60405161086991906138b7565b60405180910390f35b61088c60048036038101906108879190613bb9565b611412565b005b6108a860048036038101906108a39190613c22565b6115de565b6040516108b6929190613d19565b60405180910390f35b3480156108ca575f80fd5b506108e560048036038101906108e0919061394b565b611605565b005b61090160048036038101906108fc919061347a565b611696565b005b34801561090e575f80fd5b506109296004803603810190610924919061394b565b611713565b005b348015610936575f80fd5b50610951600480360381019061094c9190613d40565b611795565b60405161095e919061361f565b60405180910390f35b348015610972575f80fd5b5061098d6004803603810190610988919061394b565b611817565b005b34801561099a575f80fd5b506109a361189b565b6040516109b091906133af565b60405180910390f35b3480156109c4575f80fd5b506109df60048036038101906109da9190613d7e565b6118a2565b6040516109ec9190613124565b60405180910390f35b606060088054610a0490613dd6565b80601f0160208091040260200160405190810160405280929190818152602001828054610a3090613dd6565b8015610a7b5780601f10610a5257610100808354040283529160200191610a7b565b820191905f5260205f20905b815481529060010190602001808311610a5e57829003601f168201915b5050505050905090565b5f80610a8f6118df565b9050610a9c8185856118e6565b600191505092915050565b610aaf612f0b565b6060610ab9612f23565b5f803073ffffffffffffffffffffffffffffffffffffffff1663fc0c546a6040518163ffffffff1660e01b8152600401602060405180830381865afa158015610b04573d5f803e3d5ffd5b505050506040513d601f19601f82011682018060405250810190610b289190613e1a565b73ffffffffffffffffffffffffffffffffffffffff166318160ddd6040518163ffffffff1660e01b8152600401602060405180830381865afa158015610b70573d5f803e3d5ffd5b505050506040513d601f19601f82011682018060405250810190610b949190613e59565b905060405180604001604052808381526020018281525094505f67ffffffffffffffff811115610bc757610bc6613e84565b5b604051908082528060200260200182016040528015610c0057816020015b610bed612f3b565b815260200190600190039081610be55790505b5093505f80610c29886040013589606001358a5f016020810190610c249190613aa0565b6118f8565b915091506040518060400160405280838152602001828152509450505050509193909250565b60045f9054906101000a900473ffffffffffffffffffffffffffffffffffffffff1681565b3373ffffffffffffffffffffffffffffffffffffffff167f000000000000000000000000000000000000000000000000000000000000000073ffffffffffffffffffffffffffffffffffffffff1614610d0457336040517f91ac5e4f000000000000000000000000000000000000000000000000000000008152600401610cfb91906133af565b60405180910390fd5b8660200135610d23885f016020810190610d1e9190613aa0565b611957565b14610d7c57865f016020810190610d3a9190613aa0565b87602001356040517fc26bebcc000000000000000000000000000000000000000000000000000000008152600401610d73929190613ec0565b60405180910390fd5b610d8b878787878787876119c8565b50505050505050565b600281565b5f807f02e49c2c000000000000000000000000000000000000000000000000000000006001915091509091565b5f8060016002915091509091565b5f600754905090565b600181565b5f80610dec6118df565b9050610df9858285611b52565b610e04858585611be5565b60019150509392505050565b5f6012905090565b610e20611cd5565b610e2a8282611d5c565b5050565b610e36612f54565b5f610e5b84604001358560600135865f016020810190610e569190613aa0565b6118f8565b9150505f80610e6a8684611dbb565b91509150610e8b865f016020810190610e839190613aa0565b838388611f4c565b935050505092915050565b5f30905090565b6003602052815f5260405f20602052805f5260405f205f91509150508054610ec490613dd6565b80601f0160208091040260200160405190810160405280929190818152602001828054610ef090613dd6565b8015610f3b5780601f10610f1257610100808354040283529160200191610f3b565b820191905f5260205f20905b815481529060010190602001808311610f1e57829003601f168201915b505050505081565b5f8160015f8563ffffffff1663ffffffff1681526020019081526020015f205414905092915050565b7f000000000000000000000000000000000000000000000000000000000000000081565b610f98611cd5565b8060045f6101000a81548173ffffffffffffffffffffffffffffffffffffffff021916908373ffffffffffffffffffffffffffffffffffffffff1602179055507ff0be4f1e87349231d80c36b33f9e8639658eeaf474014dee15a3e6a4d44141978160405161100791906133af565b60405180910390a150565b5f60055f8373ffffffffffffffffffffffffffffffffffffffff1673ffffffffffffffffffffffffffffffffffffffff1681526020019081526020015f20549050919050565b611060611cd5565b6110695f61202d565b565b5f92915050565b5f3073ffffffffffffffffffffffffffffffffffffffff168273ffffffffffffffffffffffffffffffffffffffff16149050949350505050565b5f6006905090565b5f805f9054906101000a900473ffffffffffffffffffffffffffffffffffffffff16905090565b6060600980546110ea90613dd6565b80601f016020809104026020016040519081016040528092919081815260200182805461111690613dd6565b80156111615780601f1061113857610100808354040283529160200191611161565b820191905f5260205f20905b81548152906001019060200180831161114457829003601f168201915b5050505050905090565b7f000000000000000000000000000000000000000000000000000000000000000081565b5f90565b5f8061119d6118df565b90506111aa818585611be5565b600191505092915050565b60025f9054906101000a900473ffffffffffffffffffffffffffffffffffffffff1681565b6111e2611cd5565b6111f78282906111f29190614118565b6120ee565b5050565b6001602052805f5260405f205f915090505481565b60605f60035f8763ffffffff1663ffffffff1681526020019081526020015f205f8661ffff1661ffff1681526020019081526020015f20805461125290613dd6565b80601f016020809104026020016040519081016040528092919081815260200182805461127e90613dd6565b80156112c95780601f106112a0576101008083540402835291602001916112c9565b820191905f5260205f20905b8154815290600101906020018083116112ac57829003601f168201915b505050505090505f8151036113245783838080601f0160208091040260200160405190810160405280939291908181526020018383808284375f81840152601f19601f8201169050808301925050505050505091505061140a565b5f8484905003611337578091505061140a565b600284849050106113cb5761138e84848080601f0160208091040260200160405190810160405280939291908181526020018383808284375f81840152601f19601f82011690508083019250505050505050612203565b80848460029080926113a293929190614134565b6040516020016113b4939291906141cc565b60405160208183030381529060405291505061140a565b83836040517f9a6d49cd00000000000000000000000000000000000000000000000000000000815260040161140192919061421d565b60405180910390fd5b949350505050565b5f5b8282905081101561153157368383838181106114335761143261423f565b5b90506020028101906114459190614278565b905061146a815f015f01602081019061145e9190613aa0565b825f0160200135610f43565b6114745750611524565b3073ffffffffffffffffffffffffffffffffffffffff1663d045a0dc8260c00135835f018460a00135858061010001906114ae91906142a0565b8760e00160208101906114c1919061394b565b888061012001906114d291906142a0565b6040518963ffffffff1660e01b81526004016114f497969594939291906143d5565b5f604051808303818588803b15801561150b575f80fd5b505af115801561151d573d5f803e3d5ffd5b5050505050505b8080600101915050611414565b503373ffffffffffffffffffffffffffffffffffffffff16638e9e70996040518163ffffffff1660e01b81526004015f60405180830381865afa15801561157a573d5f803e3d5ffd5b505050506040513d5f823e3d601f19601f820116820180604052508101906115a291906144a6565b6040517f8351eea70000000000000000000000000000000000000000000000000000000081526004016115d591906138b7565b60405180910390fd5b6115e6612f6c565b6115ee612f23565b6115f985858561225c565b91509150935093915050565b61160d611cd5565b7f000000000000000000000000000000000000000000000000000000000000000073ffffffffffffffffffffffffffffffffffffffff1663ca5eb5e1826040518263ffffffff1660e01b815260040161166691906133af565b5f604051808303815f87803b15801561167d575f80fd5b505af115801561168f573d5f803e3d5ffd5b5050505050565b3073ffffffffffffffffffffffffffffffffffffffff163373ffffffffffffffffffffffffffffffffffffffff16146116fb576040517f14d4a4e800000000000000000000000000000000000000000000000000000000815260040160405180910390fd5b61170a87878787878787612361565b50505050505050565b61171b611cd5565b8060025f6101000a81548173ffffffffffffffffffffffffffffffffffffffff021916908373ffffffffffffffffffffffffffffffffffffffff1602179055507fd48d879cef83a1c0bdda516f27b13ddb1b3f8bbac1c9e1511bb2a659c24277608160405161178a91906133af565b60405180910390a150565b5f60065f8473ffffffffffffffffffffffffffffffffffffffff1673ffffffffffffffffffffffffffffffffffffffff1681526020019081526020015f205f8373ffffffffffffffffffffffffffffffffffffffff1673ffffffffffffffffffffffffffffffffffffffff1681526020019081526020015f2054905092915050565b61181f611cd5565b5f73ffffffffffffffffffffffffffffffffffffffff168173ffffffffffffffffffffffffffffffffffffffff160361188f575f6040517f1e4fbdf700000000000000000000000000000000000000000000000000000000815260040161188691906133af565b60405180910390fd5b6118988161202d565b50565b5f30905090565b5f816020013560015f845f0160208101906118bd9190613aa0565b63ffffffff1663ffffffff1681526020019081526020015f2054149050919050565b5f33905090565b6118f38383836001612379565b505050565b5f8061190385612548565b91508190508381101561194f5780846040517f71c4efed0000000000000000000000000000000000000000000000000000000081526004016119469291906144ed565b60405180910390fd5b935093915050565b5f8060015f8463ffffffff1663ffffffff1681526020019081526020015f205490505f801b81036119bf57826040517ff6ff4fb70000000000000000000000000000000000000000000000000000000081526004016119b69190614514565b60405180910390fd5b80915050919050565b5f6119db6119d687876125a7565b6125d1565b90505f611a0b826119f46119ef8a8a6125dc565b61260d565b8b5f016020810190611a069190613aa0565b61264b565b9050611a178787612699565b15611ae5575f611a558a6040016020810190611a33919061452d565b8b5f016020810190611a459190613aa0565b84611a508c8c6126ac565b61270e565b90507f000000000000000000000000000000000000000000000000000000000000000073ffffffffffffffffffffffffffffffffffffffff16637cb59012848b5f856040518563ffffffff1660e01b8152600401611ab69493929190614591565b5f604051808303815f87803b158015611acd575f80fd5b505af1158015611adf573d5f803e3d5ffd5b50505050505b8173ffffffffffffffffffffffffffffffffffffffff16887fefed6d3500546b29533b128a29e3a94d70788727f0507505ac12eaf2e578fd9c8b5f016020810190611b309190613aa0565b84604051611b3f9291906145db565b60405180910390a3505050505050505050565b5f611b5d8484611795565b90507fffffffffffffffffffffffffffffffffffffffffffffffffffffffffffffffff811015611bdf5781811015611bd0578281836040517ffb8f41b2000000000000000000000000000000000000000000000000000000008152600401611bc793929190614602565b60405180910390fd5b611bde84848484035f612379565b5b50505050565b5f73ffffffffffffffffffffffffffffffffffffffff168373ffffffffffffffffffffffffffffffffffffffff1603611c55575f6040517f96c6fd1e000000000000000000000000000000000000000000000000000000008152600401611c4c91906133af565b60405180910390fd5b5f73ffffffffffffffffffffffffffffffffffffffff168273ffffffffffffffffffffffffffffffffffffffff1603611cc5575f6040517fec442f05000000000000000000000000000000000000000000000000000000008152600401611cbc91906133af565b60405180910390fd5b611cd0838383612740565b505050565b611cdd6118df565b73ffffffffffffffffffffffffffffffffffffffff16611cfb6110b4565b73ffffffffffffffffffffffffffffffffffffffff1614611d5a57611d1e6118df565b6040517f118cdaa7000000000000000000000000000000000000000000000000000000008152600401611d5191906133af565b60405180910390fd5b565b8060015f8463ffffffff1663ffffffff1681526020019081526020015f20819055507f238399d427b947898edb290f5ff0f9109849b1c3ba196a42e35f00c50a54b98b8282604051611daf929190613ec0565b60405180910390a15050565b6060805f611e278560200135611dd08661295c565b878060a00190611de091906142a0565b8080601f0160208091040260200160405190810160405280939291908181526020018383808284375f81840152601f19601f82011690508083019250505050505050612990565b80925081945050505f81611e3c576001611e3f565b60025b9050611e6c865f016020810190611e569190613aa0565b82888060800190611e6791906142a0565b611210565b92505f60045f9054906101000a900473ffffffffffffffffffffffffffffffffffffffff1690505f73ffffffffffffffffffffffffffffffffffffffff168173ffffffffffffffffffffffffffffffffffffffff1614611f42578073ffffffffffffffffffffffffffffffffffffffff1663043a78eb86866040518363ffffffff1660e01b8152600401611f01929190614637565b602060405180830381865afa158015611f1c573d5f803e3d5ffd5b505050506040513d601f19601f82011682018060405250810190611f409190614680565b505b5050509250929050565b611f54612f54565b7f000000000000000000000000000000000000000000000000000000000000000073ffffffffffffffffffffffffffffffffffffffff1663ddc28c586040518060a001604052808863ffffffff168152602001611fb089611957565b8152602001878152602001868152602001851515815250306040518363ffffffff1660e01b8152600401611fe592919061477c565b6040805180830381865afa158015611fff573d5f803e3d5ffd5b505050506040513d601f19601f8201168201806040525081019061202391906147f7565b9050949350505050565b5f805f9054906101000a900473ffffffffffffffffffffffffffffffffffffffff169050815f806101000a81548173ffffffffffffffffffffffffffffffffffffffff021916908373ffffffffffffffffffffffffffffffffffffffff1602179055508173ffffffffffffffffffffffffffffffffffffffff168173ffffffffffffffffffffffffffffffffffffffff167f8be0079c531659141344cd1fd0a4f28419497f9722a3daafe3b4186f6b6457e060405160405180910390a35050565b5f5b81518110156121c85761212082828151811061210f5761210e61423f565b5b602002602001015160400151612203565b8181815181106121335761213261423f565b5b60200260200101516040015160035f8484815181106121555761215461423f565b5b60200260200101515f015163ffffffff1663ffffffff1681526020019081526020015f205f84848151811061218d5761218c61423f565b5b60200260200101516020015161ffff1661ffff1681526020019081526020015f2090816121ba91906149b6565b5080806001019150506120f0565b507fbe4864a8e820971c0247f5992e2da559595f7bf076a21cb5928d443d2a13b674816040516121f89190614b9c565b60405180910390a150565b5f60028201519050600361ffff168161ffff161461225857816040517f9a6d49cd00000000000000000000000000000000000000000000000000000000815260040161224f91906138b7565b60405180910390fd5b5050565b612264612f6c565b61226c612f23565b5f8061229333886040013589606001358a5f01602081019061228e9190613aa0565b6129fe565b915091505f806122a38984611dbb565b915091506122d5895f0160208101906122bc9190613aa0565b83838b8036038101906122cf9190614c09565b8b612a26565b955060405180604001604052808581526020018481525094503373ffffffffffffffffffffffffffffffffffffffff16865f01517f85496b760a4b7f8d66384b9df21b381f5d1b1e79f229a47aaf4c232edc2fe59a8b5f01602081019061233c9190613aa0565b878760405161234d93929190614c34565b60405180910390a350505050935093915050565b612370878787878787876119c8565b50505050505050565b5f73ffffffffffffffffffffffffffffffffffffffff168473ffffffffffffffffffffffffffffffffffffffff16036123e9575f6040517fe602df050000000000000000000000000000000000000000000000000000000081526004016123e091906133af565b60405180910390fd5b5f73ffffffffffffffffffffffffffffffffffffffff168373ffffffffffffffffffffffffffffffffffffffff1603612459575f6040517f94280d6200000000000000000000000000000000000000000000000000000000815260040161245091906133af565b60405180910390fd5b8160065f8673ffffffffffffffffffffffffffffffffffffffff1673ffffffffffffffffffffffffffffffffffffffff1681526020019081526020015f205f8573ffffffffffffffffffffffffffffffffffffffff1673ffffffffffffffffffffffffffffffffffffffff1681526020019081526020015f20819055508015612542578273ffffffffffffffffffffffffffffffffffffffff168473ffffffffffffffffffffffffffffffffffffffff167f8c5be1e5ebec7d5bd14f71427d1e84f3dd0314c0f7b2291e5b200ac8c7c3b92584604051612539919061361f565b60405180910390a35b50505050565b5f7f00000000000000000000000000000000000000000000000000000000000000007f0000000000000000000000000000000000000000000000000000000000000000836125969190614cc3565b6125a09190614cf3565b9050919050565b5f82825f90602060ff16926125be93929190614134565b906125c99190614d3e565b905092915050565b5f815f1c9050919050565b5f8282602060ff1690602860ff16926125f793929190614134565b906126029190614dc7565b60c01c905092915050565b5f7f00000000000000000000000000000000000000000000000000000000000000008267ffffffffffffffff166126449190614cf3565b9050919050565b5f8073ffffffffffffffffffffffffffffffffffffffff168473ffffffffffffffffffffffffffffffffffffffff16036126855761dead93505b61268f8484612b3c565b8290509392505050565b5f602860ff168383905011905092915050565b60608282602860ff169080926126c493929190614134565b8080601f0160208091040260200160405190810160405280939291908181526020018383808284375f81840152601f19601f82011690508083019250505050505050905092915050565b6060848484846040516020016127279493929190614ead565b6040516020818303038152906040529050949350505050565b5f73ffffffffffffffffffffffffffffffffffffffff168373ffffffffffffffffffffffffffffffffffffffff1603612790578060075f8282546127849190614ef6565b92505081905550612860565b5f60055f8573ffffffffffffffffffffffffffffffffffffffff1673ffffffffffffffffffffffffffffffffffffffff1681526020019081526020015f205490508181101561281a578381836040517fe450d38c00000000000000000000000000000000000000000000000000000000815260040161281193929190614602565b60405180910390fd5b81810360055f8673ffffffffffffffffffffffffffffffffffffffff1673ffffffffffffffffffffffffffffffffffffffff1681526020019081526020015f2081905550505b5f73ffffffffffffffffffffffffffffffffffffffff168273ffffffffffffffffffffffffffffffffffffffff16036128a7578060075f82825403925050819055506128f2565b8060055f8473ffffffffffffffffffffffffffffffffffffffff1673ffffffffffffffffffffffffffffffffffffffff1681526020019081526020015f205f82825401925050819055505b8173ffffffffffffffffffffffffffffffffffffffff168373ffffffffffffffffffffffffffffffffffffffff167fddf252ad1be2c89b69c2b068fc378daa952ba7f163c4a11628f55a4df523b3ef8360405161294f919061361f565b60405180910390a3505050565b5f7f0000000000000000000000000000000000000000000000000000000000000000826129899190614cc3565b9050919050565b60605f808351119050806129c55784846040516020016129b1929190614f49565b6040516020818303038152906040526129f4565b84846129d033612bbb565b856040516020016129e49493929190614f74565b6040516020818303038152906040525b9150935093915050565b5f80612a0b8585856118f8565b8092508193505050612a1d8683612bdc565b94509492505050565b612a2e612f6c565b5f612a3b845f0151612c5b565b90505f84602001511115612a5757612a568460200151612ca8565b5b7f000000000000000000000000000000000000000000000000000000000000000073ffffffffffffffffffffffffffffffffffffffff16632637a450826040518060a001604052808b63ffffffff168152602001612ab48c611957565b81526020018a81526020018981526020015f8960200151111515815250866040518463ffffffff1660e01b8152600401612aef92919061477c565b60806040518083038185885af1158015612b0b573d5f803e3d5ffd5b50505050506040513d601f19601f82011682018060405250810190612b309190615046565b91505095945050505050565b5f73ffffffffffffffffffffffffffffffffffffffff168273ffffffffffffffffffffffffffffffffffffffff1603612bac575f6040517fec442f05000000000000000000000000000000000000000000000000000000008152600401612ba391906133af565b60405180910390fd5b612bb75f8383612740565b5050565b5f8173ffffffffffffffffffffffffffffffffffffffff165f1b9050919050565b5f73ffffffffffffffffffffffffffffffffffffffff168273ffffffffffffffffffffffffffffffffffffffff1603612c4c575f6040517f96c6fd1e000000000000000000000000000000000000000000000000000000008152600401612c4391906133af565b60405180910390fd5b612c57825f83612740565b5050565b5f813414612ca057346040517f9f704120000000000000000000000000000000000000000000000000000000008152600401612c97919061361f565b60405180910390fd5b819050919050565b5f7f000000000000000000000000000000000000000000000000000000000000000073ffffffffffffffffffffffffffffffffffffffff1663e4fe1d946040518163ffffffff1660e01b8152600401602060405180830381865afa158015612d12573d5f803e3d5ffd5b505050506040513d601f19601f82011682018060405250810190612d369190613e1a565b90505f73ffffffffffffffffffffffffffffffffffffffff168173ffffffffffffffffffffffffffffffffffffffff1603612d9d576040517f5373352a00000000000000000000000000000000000000000000000000000000815260040160405180910390fd5b612dea337f0000000000000000000000000000000000000000000000000000000000000000848473ffffffffffffffffffffffffffffffffffffffff16612dee909392919063ffffffff16565b5050565b612e6a848573ffffffffffffffffffffffffffffffffffffffff166323b872dd868686604051602401612e2393929190615071565b604051602081830303815290604052915060e01b6020820180517bffffffffffffffffffffffffffffffffffffffffffffffffffffffff8381831617835250505050612e70565b50505050565b5f8060205f8451602086015f885af180612e8f576040513d5f823e3d81fd5b3d92505f519150505f8214612ea8576001811415612ec3565b5f8473ffffffffffffffffffffffffffffffffffffffff163b145b15612f0557836040517f5274afe7000000000000000000000000000000000000000000000000000000008152600401612efc91906133af565b60405180910390fd5b50505050565b60405180604001604052805f81526020015f81525090565b60405180604001604052805f81526020015f81525090565b60405180604001604052805f8152602001606081525090565b60405180604001604052805f81526020015f81525090565b60405180606001604052805f80191681526020015f67ffffffffffffffff168152602001612f98612f54565b81525090565b5f81519050919050565b5f82825260208201905092915050565b8281835e5f83830152505050565b5f601f19601f8301169050919050565b5f612fe082612f9e565b612fea8185612fa8565b9350612ffa818560208601612fb8565b61300381612fc6565b840191505092915050565b5f6020820190508181035f8301526130268184612fd6565b905092915050565b5f604051905090565b5f80fd5b5f80fd5b5f73ffffffffffffffffffffffffffffffffffffffff82169050919050565b5f6130688261303f565b9050919050565b6130788161305e565b8114613082575f80fd5b50565b5f813590506130938161306f565b92915050565b5f819050919050565b6130ab81613099565b81146130b5575f80fd5b50565b5f813590506130c6816130a2565b92915050565b5f80604083850312156130e2576130e1613037565b5b5f6130ef85828601613085565b9250506020613100858286016130b8565b9150509250929050565b5f8115159050919050565b61311e8161310a565b82525050565b5f6020820190506131375f830184613115565b92915050565b5f80fd5b5f60e082840312156131565761315561313d565b5b81905092915050565b5f6020828403121561317457613173613037565b5b5f82013567ffffffffffffffff8111156131915761319061303b565b5b61319d84828501613141565b91505092915050565b6131af81613099565b82525050565b604082015f8201516131c95f8501826131a6565b5060208201516131dc60208501826131a6565b50505050565b5f81519050919050565b5f82825260208201905092915050565b5f819050602082019050919050565b5f819050919050565b61321d8161320b565b82525050565b5f82825260208201905092915050565b5f61323d82612f9e565b6132478185613223565b9350613257818560208601612fb8565b61326081612fc6565b840191505092915050565b5f604083015f8301516132805f860182613214565b50602083015184820360208601526132988282613233565b9150508091505092915050565b5f6132b0838361326b565b905092915050565b5f602082019050919050565b5f6132ce826131e2565b6132d881856131ec565b9350836020820285016132ea856131fc565b805f5b85811015613325578484038952815161330685826132a5565b9450613311836132b8565b925060208a019950506001810190506132ed565b50829750879550505050505092915050565b604082015f82015161334b5f8501826131a6565b50602082015161335e60208501826131a6565b50505050565b5f60a0820190506133775f8301866131b5565b818103604083015261338981856132c4565b90506133986060830184613337565b949350505050565b6133a98161305e565b82525050565b5f6020820190506133c25f8301846133a0565b92915050565b5f606082840312156133dd576133dc61313d565b5b81905092915050565b5f819050919050565b6133f8816133e6565b8114613402575f80fd5b50565b5f81359050613413816133ef565b92915050565b5f80fd5b5f80fd5b5f80fd5b5f8083601f84011261343a57613439613419565b5b8235905067ffffffffffffffff8111156134575761345661341d565b5b60208301915083600182028301111561347357613472613421565b5b9250929050565b5f805f805f805f60e0888a03121561349557613494613037565b5b5f6134a28a828b016133c8565b97505060606134b38a828b01613405565b965050608088013567ffffffffffffffff8111156134d4576134d361303b565b5b6134e08a828b01613425565b955095505060a06134f38a828b01613085565b93505060c088013567ffffffffffffffff8111156135145761351361303b565b5b6135208a828b01613425565b925092505092959891949750929550565b5f61ffff82169050919050565b61354781613531565b82525050565b5f6020820190506135605f83018461353e565b92915050565b5f7fffffffff0000000000000000000000000000000000000000000000000000000082169050919050565b61359a81613566565b82525050565b5f67ffffffffffffffff82169050919050565b6135bc816135a0565b82525050565b5f6040820190506135d55f830185613591565b6135e260208301846135b3565b9392505050565b5f6040820190506135fc5f8301856135b3565b61360960208301846135b3565b9392505050565b61361981613099565b82525050565b5f6020820190506136325f830184613610565b92915050565b5f805f6060848603121561364f5761364e613037565b5b5f61365c86828701613085565b935050602061366d86828701613085565b925050604061367e868287016130b8565b9150509250925092565b5f60ff82169050919050565b61369d81613688565b82525050565b5f6020820190506136b65f830184613694565b92915050565b5f63ffffffff82169050919050565b6136d4816136bc565b81146136de575f80fd5b50565b5f813590506136ef816136cb565b92915050565b5f806040838503121561370b5761370a613037565b5b5f613718858286016136e1565b925050602061372985828601613405565b9150509250929050565b61373c8161310a565b8114613746575f80fd5b50565b5f8135905061375781613733565b92915050565b5f806040838503121561377357613772613037565b5b5f83013567ffffffffffffffff8111156137905761378f61303b565b5b61379c85828601613141565b92505060206137ad85828601613749565b9150509250929050565b604082015f8201516137cb5f8501826131a6565b5060208201516137de60208501826131a6565b50505050565b5f6040820190506137f75f8301846137b7565b92915050565b61380681613531565b8114613810575f80fd5b50565b5f81359050613821816137fd565b92915050565b5f806040838503121561383d5761383c613037565b5b5f61384a858286016136e1565b925050602061385b85828601613813565b9150509250929050565b5f81519050919050565b5f82825260208201905092915050565b5f61388982613865565b613893818561386f565b93506138a3818560208601612fb8565b6138ac81612fc6565b840191505092915050565b5f6020820190508181035f8301526138cf818461387f565b905092915050565b5f819050919050565b5f6138fa6138f56138f08461303f565b6138d7565b61303f565b9050919050565b5f61390b826138e0565b9050919050565b5f61391c82613901565b9050919050565b61392c81613912565b82525050565b5f6020820190506139455f830184613923565b92915050565b5f602082840312156139605761395f613037565b5b5f61396d84828501613085565b91505092915050565b5f6020820190506139895f8301846135b3565b92915050565b5f805f8060a085870312156139a7576139a6613037565b5b5f6139b4878288016133c8565b945050606085013567ffffffffffffffff8111156139d5576139d461303b565b5b6139e187828801613425565b935093505060806139f487828801613085565b91505092959194509250565b5f8083601f840112613a1557613a14613419565b5b8235905067ffffffffffffffff811115613a3257613a3161341d565b5b602083019150836020820283011115613a4e57613a4d613421565b5b9250929050565b5f8060208385031215613a6b57613a6a613037565b5b5f83013567ffffffffffffffff811115613a8857613a8761303b565b5b613a9485828601613a00565b92509250509250929050565b5f60208284031215613ab557613ab4613037565b5b5f613ac2848285016136e1565b91505092915050565b613ad4816133e6565b82525050565b5f602082019050613aed5f830184613acb565b92915050565b5f805f8060608587031215613b0b57613b0a613037565b5b5f613b18878288016136e1565b9450506020613b2987828801613813565b935050604085013567ffffffffffffffff811115613b4a57613b4961303b565b5b613b5687828801613425565b925092505092959194509250565b5f8083601f840112613b7957613b78613419565b5b8235905067ffffffffffffffff811115613b9657613b9561341d565b5b602083019150836020820283011115613bb257613bb1613421565b5b9250929050565b5f8060208385031215613bcf57613bce613037565b5b5f83013567ffffffffffffffff811115613bec57613beb61303b565b5b613bf885828601613b64565b92509250509250929050565b5f60408284031215613c1957613c1861313d565b5b81905092915050565b5f805f60808486031215613c3957613c38613037565b5b5f84013567ffffffffffffffff811115613c5657613c5561303b565b5b613c6286828701613141565b9350506020613c7386828701613c04565b9250506060613c8486828701613085565b9150509250925092565b613c97816133e6565b82525050565b613ca6816135a0565b82525050565b604082015f820151613cc05f8501826131a6565b506020820151613cd360208501826131a6565b50505050565b608082015f820151613ced5f850182613c8e565b506020820151613d006020850182613c9d565b506040820151613d136040850182613cac565b50505050565b5f60c082019050613d2c5f830185613cd9565b613d396080830184613337565b9392505050565b5f8060408385031215613d5657613d55613037565b5b5f613d6385828601613085565b9250506020613d7485828601613085565b9150509250929050565b5f60608284031215613d9357613d92613037565b5b5f613da0848285016133c8565b91505092915050565b7f4e487b71000000000000000000000000000000000000000000000000000000005f52602260045260245ffd5b5f6002820490506001821680613ded57607f821691505b602082108103613e0057613dff613da9565b5b50919050565b5f81519050613e148161306f565b92915050565b5f60208284031215613e2f57613e2e613037565b5b5f613e3c84828501613e06565b91505092915050565b5f81519050613e53816130a2565b92915050565b5f60208284031215613e6e57613e6d613037565b5b5f613e7b84828501613e45565b91505092915050565b7f4e487b71000000000000000000000000000000000000000000000000000000005f52604160045260245ffd5b613eba816136bc565b82525050565b5f604082019050613ed35f830185613eb1565b613ee06020830184613acb565b9392505050565b613ef082612fc6565b810181811067ffffffffffffffff82111715613f0f57613f0e613e84565b5b80604052505050565b5f613f2161302e565b9050613f2d8282613ee7565b919050565b5f67ffffffffffffffff821115613f4c57613f4b613e84565b5b602082029050602081019050919050565b5f80fd5b5f80fd5b5f80fd5b5f67ffffffffffffffff821115613f8357613f82613e84565b5b613f8c82612fc6565b9050602081019050919050565b828183375f83830152505050565b5f613fb9613fb484613f69565b613f18565b905082815260208101848484011115613fd557613fd4613f65565b5b613fe0848285613f99565b509392505050565b5f82601f830112613ffc57613ffb613419565b5b813561400c848260208601613fa7565b91505092915050565b5f6060828403121561402a57614029613f5d565b5b6140346060613f18565b90505f614043848285016136e1565b5f83015250602061405684828501613813565b602083015250604082013567ffffffffffffffff81111561407a57614079613f61565b5b61408684828501613fe8565b60408301525092915050565b5f6140a461409f84613f32565b613f18565b905080838252602082019050602084028301858111156140c7576140c6613421565b5b835b8181101561410e57803567ffffffffffffffff8111156140ec576140eb613419565b5b8086016140f98982614015565b855260208501945050506020810190506140c9565b5050509392505050565b5f614124368484614092565b905092915050565b5f80fd5b5f80fd5b5f80858511156141475761414661412c565b5b8386111561415857614157614130565b5b6001850283019150848603905094509492505050565b5f81905092915050565b5f61418282613865565b61418c818561416e565b935061419c818560208601612fb8565b80840191505092915050565b5f6141b3838561416e565b93506141c0838584613f99565b82840190509392505050565b5f6141d78286614178565b91506141e48284866141a8565b9150819050949350505050565b5f6141fc838561386f565b9350614209838584613f99565b61421283612fc6565b840190509392505050565b5f6020820190508181035f8301526142368184866141f1565b90509392505050565b7f4e487b71000000000000000000000000000000000000000000000000000000005f52603260045260245ffd5b5f80fd5b5f80fd5b5f80fd5b5f82356001610140038336030381126142945761429361426c565b5b80830191505092915050565b5f80833560016020038436030381126142bc576142bb61426c565b5b80840192508235915067ffffffffffffffff8211156142de576142dd614270565b5b6020830192506001820236038313156142fa576142f9614274565b5b509250929050565b5f61431060208401846136e1565b905092915050565b614321816136bc565b82525050565b5f6143356020840184613405565b905092915050565b614346816135a0565b8114614350575f80fd5b50565b5f813590506143618161433d565b92915050565b5f6143756020840184614353565b905092915050565b6060820161438d5f830183614302565b6143995f850182614318565b506143a76020830183614327565b6143b46020850182613c8e565b506143c26040830183614367565b6143cf6040850182613c9d565b50505050565b5f60e0820190506143e85f83018a61437d565b6143f56060830189613acb565b81810360808301526144088187896141f1565b905061441760a08301866133a0565b81810360c083015261442a8184866141f1565b905098975050505050505050565b5f61444a61444584613f69565b613f18565b90508281526020810184848401111561446657614465613f65565b5b614471848285612fb8565b509392505050565b5f82601f83011261448d5761448c613419565b5b815161449d848260208601614438565b91505092915050565b5f602082840312156144bb576144ba613037565b5b5f82015167ffffffffffffffff8111156144d8576144d761303b565b5b6144e484828501614479565b91505092915050565b5f6040820190506145005f830185613610565b61450d6020830184613610565b9392505050565b5f6020820190506145275f830184613eb1565b92915050565b5f6020828403121561454257614541613037565b5b5f61454f84828501614353565b91505092915050565b5f819050919050565b5f61457b61457661457184614558565b6138d7565b613531565b9050919050565b61458b81614561565b82525050565b5f6080820190506145a45f8301876133a0565b6145b16020830186613acb565b6145be6040830185614582565b81810360608301526145d0818461387f565b905095945050505050565b5f6040820190506145ee5f830185613eb1565b6145fb6020830184613610565b9392505050565b5f6060820190506146155f8301866133a0565b6146226020830185613610565b61462f6040830184613610565b949350505050565b5f6040820190508181035f83015261464f818561387f565b90508181036020830152614663818461387f565b90509392505050565b5f8151905061467a81613733565b92915050565b5f6020828403121561469557614694613037565b5b5f6146a28482850161466c565b91505092915050565b5f82825260208201905092915050565b5f6146c582613865565b6146cf81856146ab565b93506146df818560208601612fb8565b6146e881612fc6565b840191505092915050565b6146fc8161310a565b82525050565b5f60a083015f8301516147175f860182614318565b50602083015161472a6020860182613c8e565b506040830151848203604086015261474282826146bb565b9150506060830151848203606086015261475c82826146bb565b915050608083015161477160808601826146f3565b508091505092915050565b5f6040820190508181035f8301526147948185614702565b90506147a360208301846133a0565b9392505050565b5f604082840312156147bf576147be613f5d565b5b6147c96040613f18565b90505f6147d884828501613e45565b5f8301525060206147eb84828501613e45565b60208301525092915050565b5f6040828403121561480c5761480b613037565b5b5f614819848285016147aa565b91505092915050565b5f819050815f5260205f209050919050565b5f6020601f8301049050919050565b5f82821b905092915050565b5f6008830261487e7fffffffffffffffffffffffffffffffffffffffffffffffffffffffffffffffff82614843565b6148888683614843565b95508019841693508086168417925050509392505050565b5f6148ba6148b56148b084613099565b6138d7565b613099565b9050919050565b5f819050919050565b6148d3836148a0565b6148e76148df826148c1565b84845461484f565b825550505050565b5f90565b6148fb6148ef565b6149068184846148ca565b505050565b5b818110156149295761491e5f826148f3565b60018101905061490c565b5050565b601f82111561496e5761493f81614822565b61494884614834565b81016020851015614957578190505b61496b61496385614834565b83018261490b565b50505b505050565b5f82821c905092915050565b5f61498e5f1984600802614973565b1980831691505092915050565b5f6149a6838361497f565b9150826002028217905092915050565b6149bf82613865565b67ffffffffffffffff8111156149d8576149d7613e84565b5b6149e28254613dd6565b6149ed82828561492d565b5f60209050601f831160018114614a1e575f8415614a0c578287015190505b614a16858261499b565b865550614a7d565b601f198416614a2c86614822565b5f5b82811015614a5357848901518255600182019150602085019450602081019050614a2e565b86831015614a705784890151614a6c601f89168261497f565b8355505b6001600288020188555050505b505050505050565b5f81519050919050565b5f82825260208201905092915050565b5f819050602082019050919050565b614ab781613531565b82525050565b5f606083015f830151614ad25f860182614318565b506020830151614ae56020860182614aae565b5060408301518482036040860152614afd82826146bb565b9150508091505092915050565b5f614b158383614abd565b905092915050565b5f602082019050919050565b5f614b3382614a85565b614b3d8185614a8f565b935083602082028501614b4f85614a9f565b805f5b85811015614b8a5784840389528151614b6b8582614b0a565b9450614b7683614b1d565b925060208a01995050600181019050614b52565b50829750879550505050505092915050565b5f6020820190508181035f830152614bb48184614b29565b905092915050565b5f60408284031215614bd157614bd0613f5d565b5b614bdb6040613f18565b90505f614bea848285016130b8565b5f830152506020614bfd848285016130b8565b60208301525092915050565b5f60408284031215614c1e57614c1d613037565b5b5f614c2b84828501614bbc565b91505092915050565b5f606082019050614c475f830186613eb1565b614c546020830185613610565b614c616040830184613610565b949350505050565b7f4e487b71000000000000000000000000000000000000000000000000000000005f52601260045260245ffd5b7f4e487b71000000000000000000000000000000000000000000000000000000005f52601160045260245ffd5b5f614ccd82613099565b9150614cd883613099565b925082614ce857614ce7614c69565b5b828204905092915050565b5f614cfd82613099565b9150614d0883613099565b9250828202614d1681613099565b91508282048414831517614d2d57614d2c614c96565b5b5092915050565b5f82905092915050565b5f614d498383614d34565b82614d5481356133e6565b92506020821015614d9457614d8f7fffffffffffffffffffffffffffffffffffffffffffffffffffffffffffffffff83602003600802614843565b831692505b505092915050565b5f7fffffffffffffffff00000000000000000000000000000000000000000000000082169050919050565b5f614dd28383614d34565b82614ddd8135614d9c565b92506008821015614e1d57614e187fffffffffffffffff00000000000000000000000000000000000000000000000083600803600802614843565b831692505b505092915050565b5f8160c01b9050919050565b5f614e3b82614e25565b9050919050565b614e53614e4e826135a0565b614e31565b82525050565b5f8160e01b9050919050565b5f614e6f82614e59565b9050919050565b614e87614e82826136bc565b614e65565b82525050565b5f819050919050565b614ea7614ea282613099565b614e8d565b82525050565b5f614eb88287614e42565b600882019150614ec88286614e76565b600482019150614ed88285614e96565b602082019150614ee88284614178565b915081905095945050505050565b5f614f0082613099565b9150614f0b83613099565b9250828201905080821115614f2357614f22614c96565b5b92915050565b5f819050919050565b614f43614f3e826133e6565b614f29565b82525050565b5f614f548285614f32565b602082019150614f648284614e42565b6008820191508190509392505050565b5f614f7f8287614f32565b602082019150614f8f8286614e42565b600882019150614f9f8285614f32565b602082019150614faf8284614178565b915081905095945050505050565b5f81519050614fcb816133ef565b92915050565b5f81519050614fdf8161433d565b92915050565b5f60808284031215614ffa57614ff9613f5d565b5b6150046060613f18565b90505f61501384828501614fbd565b5f83015250602061502684828501614fd1565b602083015250604061503a848285016147aa565b60408301525092915050565b5f6080828403121561505b5761505a613037565b5b5f61506884828501614fe5565b91505092915050565b5f6060820190506150845f8301866133a0565b61509160208301856133a0565b61509e6040830184613610565b94935050505056fea2646970667358221220abee5eb3eb608944577c59f18f77f08cf16a9b2e663bc5edfe3af42bcd6bb6ab64736f6c63430008190033",
			"opcodes": "PUSH1 0xC0 PUSH1 0x40 MSTORE CALLVALUE DUP1 ISZERO PUSH2 0xF JUMPI PUSH0 DUP1 REVERT JUMPDEST POP PUSH1 0x40 MLOAD PUSH2 0x5F0F CODESIZE SUB DUP1 PUSH2 0x5F0F DUP4 CODECOPY DUP2 DUP2 ADD PUSH1 0x40 MSTORE DUP2 ADD SWAP1 PUSH2 0x31 SWAP2 SWAP1 PUSH2 0x7AF JUMP JUMPDEST DUP4 DUP4 DUP4 DUP4 DUP4 DUP4 PUSH2 0x45 PUSH2 0x296 PUSH1 0x20 SHL PUSH1 0x20 SHR JUMP JUMPDEST DUP5 DUP5 DUP2 DUP2 DUP2 DUP2 DUP14 PUSH0 PUSH20 0xFFFFFFFFFFFFFFFFFFFFFFFFFFFFFFFFFFFFFFFF AND DUP2 PUSH20 0xFFFFFFFFFFFFFFFFFFFFFFFFFFFFFFFFFFFFFFFF AND SUB PUSH2 0xBC JUMPI PUSH0 PUSH1 0x40 MLOAD PUSH32 0x1E4FBDF700000000000000000000000000000000000000000000000000000000 DUP2 MSTORE PUSH1 0x4 ADD PUSH2 0xB3 SWAP2 SWAP1 PUSH2 0x85A JUMP JUMPDEST PUSH1 0x40 MLOAD DUP1 SWAP2 SUB SWAP1 REVERT JUMPDEST PUSH2 0xCB DUP2 PUSH2 0x29E PUSH1 0x20 SHL PUSH1 0x20 SHR JUMP JUMPDEST POP DUP2 PUSH20 0xFFFFFFFFFFFFFFFFFFFFFFFFFFFFFFFFFFFFFFFF AND PUSH1 0x80 DUP2 PUSH20 0xFFFFFFFFFFFFFFFFFFFFFFFFFFFFFFFFFFFFFFFF AND DUP2 MSTORE POP POP PUSH0 PUSH20 0xFFFFFFFFFFFFFFFFFFFFFFFFFFFFFFFFFFFFFFFF AND DUP2 PUSH20 0xFFFFFFFFFFFFFFFFFFFFFFFFFFFFFFFFFFFFFFFF AND SUB PUSH2 0x165 JUMPI PUSH1 0x40 MLOAD PUSH32 0xB586360400000000000000000000000000000000000000000000000000000000 DUP2 MSTORE PUSH1 0x4 ADD PUSH1 0x40 MLOAD DUP1 SWAP2 SUB SWAP1 REVERT JUMPDEST PUSH1 0x80 MLOAD PUSH20 0xFFFFFFFFFFFFFFFFFFFFFFFFFFFFFFFFFFFFFFFF AND PUSH4 0xCA5EB5E1 DUP3 PUSH1 0x40 MLOAD DUP3 PUSH4 0xFFFFFFFF AND PUSH1 0xE0 SHL DUP2 MSTORE PUSH1 0x4 ADD PUSH2 0x1A0 SWAP2 SWAP1 PUSH2 0x85A JUMP JUMPDEST PUSH0 PUSH1 0x40 MLOAD DUP1 DUP4 SUB DUP2 PUSH0 DUP8 DUP1 EXTCODESIZE ISZERO DUP1 ISZERO PUSH2 0x1B7 JUMPI PUSH0 DUP1 REVERT JUMPDEST POP GAS CALL ISZERO DUP1 ISZERO PUSH2 0x1C9 JUMPI RETURNDATASIZE PUSH0 DUP1 RETURNDATACOPY RETURNDATASIZE PUSH0 REVERT JUMPDEST POP POP POP POP POP POP POP POP PUSH2 0x1DF PUSH2 0x35F PUSH1 0x20 SHL PUSH1 0x20 SHR JUMP JUMPDEST PUSH1 0xFF AND DUP4 PUSH1 0xFF AND LT ISZERO PUSH2 0x21E JUMPI PUSH1 0x40 MLOAD PUSH32 0x1E9714B000000000000000000000000000000000000000000000000000000000 DUP2 MSTORE PUSH1 0x4 ADD PUSH1 0x40 MLOAD DUP1 SWAP2 SUB SWAP1 REVERT JUMPDEST PUSH2 0x22C PUSH2 0x35F PUSH1 0x20 SHL PUSH1 0x20 SHR JUMP JUMPDEST DUP4 PUSH2 0x237 SWAP2 SWAP1 PUSH2 0x8AC JUMP JUMPDEST PUSH1 0xA PUSH2 0x243 SWAP2 SWAP1 PUSH2 0xA18 JUMP JUMPDEST PUSH1 0xA0 DUP2 DUP2 MSTORE POP POP POP POP POP DUP2 PUSH1 0x8 SWAP1 DUP2 PUSH2 0x25C SWAP2 SWAP1 PUSH2 0xC66 JUMP JUMPDEST POP DUP1 PUSH1 0x9 SWAP1 DUP2 PUSH2 0x26C SWAP2 SWAP1 PUSH2 0xC66 JUMP JUMPDEST POP POP POP POP POP POP POP PUSH2 0x28D DUP2 PUSH10 0xD3C21BCECCEDA1000000 PUSH2 0x367 PUSH1 0x20 SHL PUSH1 0x20 SHR JUMP JUMPDEST POP POP POP POP PUSH2 0xDC5 JUMP JUMPDEST PUSH0 PUSH1 0x12 SWAP1 POP SWAP1 JUMP JUMPDEST PUSH0 DUP1 PUSH0 SWAP1 SLOAD SWAP1 PUSH2 0x100 EXP SWAP1 DIV PUSH20 0xFFFFFFFFFFFFFFFFFFFFFFFFFFFFFFFFFFFFFFFF AND SWAP1 POP DUP2 PUSH0 DUP1 PUSH2 0x100 EXP DUP2 SLOAD DUP2 PUSH20 0xFFFFFFFFFFFFFFFFFFFFFFFFFFFFFFFFFFFFFFFF MUL NOT AND SWAP1 DUP4 PUSH20 0xFFFFFFFFFFFFFFFFFFFFFFFFFFFFFFFFFFFFFFFF AND MUL OR SWAP1 SSTORE POP DUP2 PUSH20 0xFFFFFFFFFFFFFFFFFFFFFFFFFFFFFFFFFFFFFFFF AND DUP2 PUSH20 0xFFFFFFFFFFFFFFFFFFFFFFFFFFFFFFFFFFFFFFFF AND PUSH32 0x8BE0079C531659141344CD1FD0A4F28419497F9722A3DAAFE3B4186F6B6457E0 PUSH1 0x40 MLOAD PUSH1 0x40 MLOAD DUP1 SWAP2 SUB SWAP1 LOG3 POP POP JUMP JUMPDEST PUSH0 PUSH1 0x6 SWAP1 POP SWAP1 JUMP JUMPDEST PUSH0 PUSH20 0xFFFFFFFFFFFFFFFFFFFFFFFFFFFFFFFFFFFFFFFF AND DUP3 PUSH20 0xFFFFFFFFFFFFFFFFFFFFFFFFFFFFFFFFFFFFFFFF AND SUB PUSH2 0x3D7 JUMPI PUSH0 PUSH1 0x40 MLOAD PUSH32 0xEC442F0500000000000000000000000000000000000000000000000000000000 DUP2 MSTORE PUSH1 0x4 ADD PUSH2 0x3CE SWAP2 SWAP1 PUSH2 0x85A JUMP JUMPDEST PUSH1 0x40 MLOAD DUP1 SWAP2 SUB SWAP1 REVERT JUMPDEST PUSH2 0x3E8 PUSH0 DUP4 DUP4 PUSH2 0x3EC PUSH1 0x20 SHL PUSH1 0x20 SHR JUMP JUMPDEST POP POP JUMP JUMPDEST PUSH0 PUSH20 0xFFFFFFFFFFFFFFFFFFFFFFFFFFFFFFFFFFFFFFFF AND DUP4 PUSH20 0xFFFFFFFFFFFFFFFFFFFFFFFFFFFFFFFFFFFFFFFF AND SUB PUSH2 0x43C JUMPI DUP1 PUSH1 0x7 PUSH0 DUP3 DUP3 SLOAD PUSH2 0x430 SWAP2 SWAP1 PUSH2 0xD35 JUMP JUMPDEST SWAP3 POP POP DUP2 SWAP1 SSTORE POP PUSH2 0x50C JUMP JUMPDEST PUSH0 PUSH1 0x5 PUSH0 DUP6 PUSH20 0xFFFFFFFFFFFFFFFFFFFFFFFFFFFFFFFFFFFFFFFF AND PUSH20 0xFFFFFFFFFFFFFFFFFFFFFFFFFFFFFFFFFFFFFFFF AND DUP2 MSTORE PUSH1 0x20 ADD SWAP1 DUP2 MSTORE PUSH1 0x20 ADD PUSH0 KECCAK256 SLOAD SWAP1 POP DUP2 DUP2 LT ISZERO PUSH2 0x4C6 JUMPI DUP4 DUP2 DUP4 PUSH1 0x40 MLOAD PUSH32 0xE450D38C00000000000000000000000000000000000000000000000000000000 DUP2 MSTORE PUSH1 0x4 ADD PUSH2 0x4BD SWAP4 SWAP3 SWAP2 SWAP1 PUSH2 0xD77 JUMP JUMPDEST PUSH1 0x40 MLOAD DUP1 SWAP2 SUB SWAP1 REVERT JUMPDEST DUP2 DUP2 SUB PUSH1 0x5 PUSH0 DUP7 PUSH20 0xFFFFFFFFFFFFFFFFFFFFFFFFFFFFFFFFFFFFFFFF AND PUSH20 0xFFFFFFFFFFFFFFFFFFFFFFFFFFFFFFFFFFFFFFFF AND DUP2 MSTORE PUSH1 0x20 ADD SWAP1 DUP2 MSTORE PUSH1 0x20 ADD PUSH0 KECCAK256 DUP2 SWAP1 SSTORE POP POP JUMPDEST PUSH0 PUSH20 0xFFFFFFFFFFFFFFFFFFFFFFFFFFFFFFFFFFFFFFFF AND DUP3 PUSH20 0xFFFFFFFFFFFFFFFFFFFFFFFFFFFFFFFFFFFFFFFF AND SUB PUSH2 0x553 JUMPI DUP1 PUSH1 0x7 PUSH0 DUP3 DUP3 SLOAD SUB SWAP3 POP POP DUP2 SWAP1 SSTORE POP PUSH2 0x59E JUMP JUMPDEST DUP1 PUSH1 0x5 PUSH0 DUP5 PUSH20 0xFFFFFFFFFFFFFFFFFFFFFFFFFFFFFFFFFFFFFFFF AND PUSH20 0xFFFFFFFFFFFFFFFFFFFFFFFFFFFFFFFFFFFFFFFF AND DUP2 MSTORE PUSH1 0x20 ADD SWAP1 DUP2 MSTORE PUSH1 0x20 ADD PUSH0 KECCAK256 PUSH0 DUP3 DUP3 SLOAD ADD SWAP3 POP POP DUP2 SWAP1 SSTORE POP JUMPDEST DUP2 PUSH20 0xFFFFFFFFFFFFFFFFFFFFFFFFFFFFFFFFFFFFFFFF AND DUP4 PUSH20 0xFFFFFFFFFFFFFFFFFFFFFFFFFFFFFFFFFFFFFFFF AND PUSH32 0xDDF252AD1BE2C89B69C2B068FC378DAA952BA7F163C4A11628F55A4DF523B3EF DUP4 PUSH1 0x40 MLOAD PUSH2 0x5FB SWAP2 SWAP1 PUSH2 0xDAC JUMP JUMPDEST PUSH1 0x40 MLOAD DUP1 SWAP2 SUB SWAP1 LOG3 POP POP POP JUMP JUMPDEST PUSH0 PUSH1 0x40 MLOAD SWAP1 POP SWAP1 JUMP JUMPDEST PUSH0 DUP1 REVERT JUMPDEST PUSH0 DUP1 REVERT JUMPDEST PUSH0 DUP1 REVERT JUMPDEST PUSH0 DUP1 REVERT JUMPDEST PUSH0 PUSH1 0x1F NOT PUSH1 0x1F DUP4 ADD AND SWAP1 POP SWAP2 SWAP1 POP JUMP JUMPDEST PUSH32 0x4E487B7100000000000000000000000000000000000000000000000000000000 PUSH0 MSTORE PUSH1 0x41 PUSH1 0x4 MSTORE PUSH1 0x24 PUSH0 REVERT JUMPDEST PUSH2 0x667 DUP3 PUSH2 0x621 JUMP JUMPDEST DUP2 ADD DUP2 DUP2 LT PUSH8 0xFFFFFFFFFFFFFFFF DUP3 GT OR ISZERO PUSH2 0x686 JUMPI PUSH2 0x685 PUSH2 0x631 JUMP JUMPDEST JUMPDEST DUP1 PUSH1 0x40 MSTORE POP POP POP JUMP JUMPDEST PUSH0 PUSH2 0x698 PUSH2 0x608 JUMP JUMPDEST SWAP1 POP PUSH2 0x6A4 DUP3 DUP3 PUSH2 0x65E JUMP JUMPDEST SWAP2 SWAP1 POP JUMP JUMPDEST PUSH0 PUSH8 0xFFFFFFFFFFFFFFFF DUP3 GT ISZERO PUSH2 0x6C3 JUMPI PUSH2 0x6C2 PUSH2 0x631 JUMP JUMPDEST JUMPDEST PUSH2 0x6CC DUP3 PUSH2 0x621 JUMP JUMPDEST SWAP1 POP PUSH1 0x20 DUP2 ADD SWAP1 POP SWAP2 SWAP1 POP JUMP JUMPDEST DUP3 DUP2 DUP4 MCOPY PUSH0 DUP4 DUP4 ADD MSTORE POP POP POP JUMP JUMPDEST PUSH0 PUSH2 0x6F9 PUSH2 0x6F4 DUP5 PUSH2 0x6A9 JUMP JUMPDEST PUSH2 0x68F JUMP JUMPDEST SWAP1 POP DUP3 DUP2 MSTORE PUSH1 0x20 DUP2 ADD DUP5 DUP5 DUP5 ADD GT ISZERO PUSH2 0x715 JUMPI PUSH2 0x714 PUSH2 0x61D JUMP JUMPDEST JUMPDEST PUSH2 0x720 DUP5 DUP3 DUP6 PUSH2 0x6D9 JUMP JUMPDEST POP SWAP4 SWAP3 POP POP POP JUMP JUMPDEST PUSH0 DUP3 PUSH1 0x1F DUP4 ADD SLT PUSH2 0x73C JUMPI PUSH2 0x73B PUSH2 0x619 JUMP JUMPDEST JUMPDEST DUP2 MLOAD PUSH2 0x74C DUP5 DUP3 PUSH1 0x20 DUP7 ADD PUSH2 0x6E7 JUMP JUMPDEST SWAP2 POP POP SWAP3 SWAP2 POP POP JUMP JUMPDEST PUSH0 PUSH20 0xFFFFFFFFFFFFFFFFFFFFFFFFFFFFFFFFFFFFFFFF DUP3 AND SWAP1 POP SWAP2 SWAP1 POP JUMP JUMPDEST PUSH0 PUSH2 0x77E DUP3 PUSH2 0x755 JUMP JUMPDEST SWAP1 POP SWAP2 SWAP1 POP JUMP JUMPDEST PUSH2 0x78E DUP2 PUSH2 0x774 JUMP JUMPDEST DUP2 EQ PUSH2 0x798 JUMPI PUSH0 DUP1 REVERT JUMPDEST POP JUMP JUMPDEST PUSH0 DUP2 MLOAD SWAP1 POP PUSH2 0x7A9 DUP2 PUSH2 0x785 JUMP JUMPDEST SWAP3 SWAP2 POP POP JUMP JUMPDEST PUSH0 DUP1 PUSH0 DUP1 PUSH1 0x80 DUP6 DUP8 SUB SLT ISZERO PUSH2 0x7C7 JUMPI PUSH2 0x7C6 PUSH2 0x611 JUMP JUMPDEST JUMPDEST PUSH0 DUP6 ADD MLOAD PUSH8 0xFFFFFFFFFFFFFFFF DUP2 GT ISZERO PUSH2 0x7E4 JUMPI PUSH2 0x7E3 PUSH2 0x615 JUMP JUMPDEST JUMPDEST PUSH2 0x7F0 DUP8 DUP3 DUP9 ADD PUSH2 0x728 JUMP JUMPDEST SWAP5 POP POP PUSH1 0x20 DUP6 ADD MLOAD PUSH8 0xFFFFFFFFFFFFFFFF DUP2 GT ISZERO PUSH2 0x811 JUMPI PUSH2 0x810 PUSH2 0x615 JUMP JUMPDEST JUMPDEST PUSH2 0x81D DUP8 DUP3 DUP9 ADD PUSH2 0x728 JUMP JUMPDEST SWAP4 POP POP PUSH1 0x40 PUSH2 0x82E DUP8 DUP3 DUP9 ADD PUSH2 0x79B JUMP JUMPDEST SWAP3 POP POP PUSH1 0x60 PUSH2 0x83F DUP8 DUP3 DUP9 ADD PUSH2 0x79B JUMP JUMPDEST SWAP2 POP POP SWAP3 SWAP6 SWAP2 SWAP5 POP SWAP3 POP JUMP JUMPDEST PUSH2 0x854 DUP2 PUSH2 0x774 JUMP JUMPDEST DUP3 MSTORE POP POP JUMP JUMPDEST PUSH0 PUSH1 0x20 DUP3 ADD SWAP1 POP PUSH2 0x86D PUSH0 DUP4 ADD DUP5 PUSH2 0x84B JUMP JUMPDEST SWAP3 SWAP2 POP POP JUMP JUMPDEST PUSH0 PUSH1 0xFF DUP3 AND SWAP1 POP SWAP2 SWAP1 POP JUMP JUMPDEST PUSH32 0x4E487B7100000000000000000000000000000000000000000000000000000000 PUSH0 MSTORE PUSH1 0x11 PUSH1 0x4 MSTORE PUSH1 0x24 PUSH0 REVERT JUMPDEST PUSH0 PUSH2 0x8B6 DUP3 PUSH2 0x873 JUMP JUMPDEST SWAP2 POP PUSH2 0x8C1 DUP4 PUSH2 0x873 JUMP JUMPDEST SWAP3 POP DUP3 DUP3 SUB SWAP1 POP PUSH1 0xFF DUP2 GT ISZERO PUSH2 0x8DA JUMPI PUSH2 0x8D9 PUSH2 0x87F JUMP JUMPDEST JUMPDEST SWAP3 SWAP2 POP POP JUMP JUMPDEST PUSH0 DUP2 PUSH1 0x1 SHR SWAP1 POP SWAP2 SWAP1 POP JUMP JUMPDEST PUSH0 DUP1 DUP3 SWAP2 POP DUP4 SWAP1 POP JUMPDEST PUSH1 0x1 DUP6 GT ISZERO PUSH2 0x935 JUMPI DUP1 DUP7 DIV DUP2 GT ISZERO PUSH2 0x911 JUMPI PUSH2 0x910 PUSH2 0x87F JUMP JUMPDEST JUMPDEST PUSH1 0x1 DUP6 AND ISZERO PUSH2 0x920 JUMPI DUP1 DUP3 MUL SWAP2 POP JUMPDEST DUP1 DUP2 MUL SWAP1 POP PUSH2 0x92E DUP6 PUSH2 0x8E0 JUMP JUMPDEST SWAP5 POP PUSH2 0x8F5 JUMP JUMPDEST SWAP5 POP SWAP5 SWAP3 POP POP POP JUMP JUMPDEST PUSH0 DUP3 PUSH2 0x94D JUMPI PUSH1 0x1 SWAP1 POP PUSH2 0xA08 JUMP JUMPDEST DUP2 PUSH2 0x95A JUMPI PUSH0 SWAP1 POP PUSH2 0xA08 JUMP JUMPDEST DUP2 PUSH1 0x1 DUP2 EQ PUSH2 0x970 JUMPI PUSH1 0x2 DUP2 EQ PUSH2 0x97A JUMPI PUSH2 0x9A9 JUMP JUMPDEST PUSH1 0x1 SWAP2 POP POP PUSH2 0xA08 JUMP JUMPDEST PUSH1 0xFF DUP5 GT ISZERO PUSH2 0x98C JUMPI PUSH2 0x98B PUSH2 0x87F JUMP JUMPDEST JUMPDEST DUP4 PUSH1 0x2 EXP SWAP2 POP DUP5 DUP3 GT ISZERO PUSH2 0x9A3 JUMPI PUSH2 0x9A2 PUSH2 0x87F JUMP JUMPDEST JUMPDEST POP PUSH2 0xA08 JUMP JUMPDEST POP PUSH1 0x20 DUP4 LT PUSH2 0x133 DUP4 LT AND PUSH1 0x4E DUP5 LT PUSH1 0xB DUP5 LT AND OR ISZERO PUSH2 0x9DE JUMPI DUP3 DUP3 EXP SWAP1 POP DUP4 DUP2 GT ISZERO PUSH2 0x9D9 JUMPI PUSH2 0x9D8 PUSH2 0x87F JUMP JUMPDEST JUMPDEST PUSH2 0xA08 JUMP JUMPDEST PUSH2 0x9EB DUP5 DUP5 DUP5 PUSH1 0x1 PUSH2 0x8EC JUMP JUMPDEST SWAP3 POP SWAP1 POP DUP2 DUP5 DIV DUP2 GT ISZERO PUSH2 0xA02 JUMPI PUSH2 0xA01 PUSH2 0x87F JUMP JUMPDEST JUMPDEST DUP2 DUP2 MUL SWAP1 POP JUMPDEST SWAP4 SWAP3 POP POP POP JUMP JUMPDEST PUSH0 DUP2 SWAP1 POP SWAP2 SWAP1 POP JUMP JUMPDEST PUSH0 PUSH2 0xA22 DUP3 PUSH2 0xA0F JUMP JUMPDEST SWAP2 POP PUSH2 0xA2D DUP4 PUSH2 0x873 JUMP JUMPDEST SWAP3 POP PUSH2 0xA5A PUSH32 0xFFFFFFFFFFFFFFFFFFFFFFFFFFFFFFFFFFFFFFFFFFFFFFFFFFFFFFFFFFFFFFFF DUP5 DUP5 PUSH2 0x93E JUMP JUMPDEST SWAP1 POP SWAP3 SWAP2 POP POP JUMP JUMPDEST PUSH0 DUP2 MLOAD SWAP1 POP SWAP2 SWAP1 POP JUMP JUMPDEST PUSH32 0x4E487B7100000000000000000000000000000000000000000000000000000000 PUSH0 MSTORE PUSH1 0x22 PUSH1 0x4 MSTORE PUSH1 0x24 PUSH0 REVERT JUMPDEST PUSH0 PUSH1 0x2 DUP3 DIV SWAP1 POP PUSH1 0x1 DUP3 AND DUP1 PUSH2 0xAB0 JUMPI PUSH1 0x7F DUP3 AND SWAP2 POP JUMPDEST PUSH1 0x20 DUP3 LT DUP2 SUB PUSH2 0xAC3 JUMPI PUSH2 0xAC2 PUSH2 0xA6C JUMP JUMPDEST JUMPDEST POP SWAP2 SWAP1 POP JUMP JUMPDEST PUSH0 DUP2 SWAP1 POP DUP2 PUSH0 MSTORE PUSH1 0x20 PUSH0 KECCAK256 SWAP1 POP SWAP2 SWAP1 POP JUMP JUMPDEST PUSH0 PUSH1 0x20 PUSH1 0x1F DUP4 ADD DIV SWAP1 POP SWAP2 SWAP1 POP JUMP JUMPDEST PUSH0 DUP3 DUP3 SHL SWAP1 POP SWAP3 SWAP2 POP POP JUMP JUMPDEST PUSH0 PUSH1 0x8 DUP4 MUL PUSH2 0xB25 PUSH32 0xFFFFFFFFFFFFFFFFFFFFFFFFFFFFFFFFFFFFFFFFFFFFFFFFFFFFFFFFFFFFFFFF DUP3 PUSH2 0xAEA JUMP JUMPDEST PUSH2 0xB2F DUP7 DUP4 PUSH2 0xAEA JUMP JUMPDEST SWAP6 POP DUP1 NOT DUP5 AND SWAP4 POP DUP1 DUP7 AND DUP5 OR SWAP3 POP POP POP SWAP4 SWAP3 POP POP POP JUMP JUMPDEST PUSH0 DUP2 SWAP1 POP SWAP2 SWAP1 POP JUMP JUMPDEST PUSH0 PUSH2 0xB6A PUSH2 0xB65 PUSH2 0xB60 DUP5 PUSH2 0xA0F JUMP JUMPDEST PUSH2 0xB47 JUMP JUMPDEST PUSH2 0xA0F JUMP JUMPDEST SWAP1 POP SWAP2 SWAP1 POP JUMP JUMPDEST PUSH0 DUP2 SWAP1 POP SWAP2 SWAP1 POP JUMP JUMPDEST PUSH2 0xB83 DUP4 PUSH2 0xB50 JUMP JUMPDEST PUSH2 0xB97 PUSH2 0xB8F DUP3 PUSH2 0xB71 JUMP JUMPDEST DUP5 DUP5 SLOAD PUSH2 0xAF6 JUMP JUMPDEST DUP3 SSTORE POP POP POP POP JUMP JUMPDEST PUSH0 SWAP1 JUMP JUMPDEST PUSH2 0xBAB PUSH2 0xB9F JUMP JUMPDEST PUSH2 0xBB6 DUP2 DUP5 DUP5 PUSH2 0xB7A JUMP JUMPDEST POP POP POP JUMP JUMPDEST JUMPDEST DUP2 DUP2 LT ISZERO PUSH2 0xBD9 JUMPI PUSH2 0xBCE PUSH0 DUP3 PUSH2 0xBA3 JUMP JUMPDEST PUSH1 0x1 DUP2 ADD SWAP1 POP PUSH2 0xBBC JUMP JUMPDEST POP POP JUMP JUMPDEST PUSH1 0x1F DUP3 GT ISZERO PUSH2 0xC1E JUMPI PUSH2 0xBEF DUP2 PUSH2 0xAC9 JUMP JUMPDEST PUSH2 0xBF8 DUP5 PUSH2 0xADB JUMP JUMPDEST DUP2 ADD PUSH1 0x20 DUP6 LT ISZERO PUSH2 0xC07 JUMPI DUP2 SWAP1 POP JUMPDEST PUSH2 0xC1B PUSH2 0xC13 DUP6 PUSH2 0xADB JUMP JUMPDEST DUP4 ADD DUP3 PUSH2 0xBBB JUMP JUMPDEST POP POP JUMPDEST POP POP POP JUMP JUMPDEST PUSH0 DUP3 DUP3 SHR SWAP1 POP SWAP3 SWAP2 POP POP JUMP JUMPDEST PUSH0 PUSH2 0xC3E PUSH0 NOT DUP5 PUSH1 0x8 MUL PUSH2 0xC23 JUMP JUMPDEST NOT DUP1 DUP4 AND SWAP2 POP POP SWAP3 SWAP2 POP POP JUMP JUMPDEST PUSH0 PUSH2 0xC56 DUP4 DUP4 PUSH2 0xC2F JUMP JUMPDEST SWAP2 POP DUP3 PUSH1 0x2 MUL DUP3 OR SWAP1 POP SWAP3 SWAP2 POP POP JUMP JUMPDEST PUSH2 0xC6F DUP3 PUSH2 0xA62 JUMP JUMPDEST PUSH8 0xFFFFFFFFFFFFFFFF DUP2 GT ISZERO PUSH2 0xC88 JUMPI PUSH2 0xC87 PUSH2 0x631 JUMP JUMPDEST JUMPDEST PUSH2 0xC92 DUP3 SLOAD PUSH2 0xA99 JUMP JUMPDEST PUSH2 0xC9D DUP3 DUP3 DUP6 PUSH2 0xBDD JUMP JUMPDEST PUSH0 PUSH1 0x20 SWAP1 POP PUSH1 0x1F DUP4 GT PUSH1 0x1 DUP2 EQ PUSH2 0xCCE JUMPI PUSH0 DUP5 ISZERO PUSH2 0xCBC JUMPI DUP3 DUP8 ADD MLOAD SWAP1 POP JUMPDEST PUSH2 0xCC6 DUP6 DUP3 PUSH2 0xC4B JUMP JUMPDEST DUP7 SSTORE POP PUSH2 0xD2D JUMP JUMPDEST PUSH1 0x1F NOT DUP5 AND PUSH2 0xCDC DUP7 PUSH2 0xAC9 JUMP JUMPDEST PUSH0 JUMPDEST DUP3 DUP2 LT ISZERO PUSH2 0xD03 JUMPI DUP5 DUP10 ADD MLOAD DUP3 SSTORE PUSH1 0x1 DUP3 ADD SWAP2 POP PUSH1 0x20 DUP6 ADD SWAP5 POP PUSH1 0x20 DUP2 ADD SWAP1 POP PUSH2 0xCDE JUMP JUMPDEST DUP7 DUP4 LT ISZERO PUSH2 0xD20 JUMPI DUP5 DUP10 ADD MLOAD PUSH2 0xD1C PUSH1 0x1F DUP10 AND DUP3 PUSH2 0xC2F JUMP JUMPDEST DUP4 SSTORE POP JUMPDEST PUSH1 0x1 PUSH1 0x2 DUP9 MUL ADD DUP9 SSTORE POP POP POP JUMPDEST POP POP POP POP POP POP JUMP JUMPDEST PUSH0 PUSH2 0xD3F DUP3 PUSH2 0xA0F JUMP JUMPDEST SWAP2 POP PUSH2 0xD4A DUP4 PUSH2 0xA0F JUMP JUMPDEST SWAP3 POP DUP3 DUP3 ADD SWAP1 POP DUP1 DUP3 GT ISZERO PUSH2 0xD62 JUMPI PUSH2 0xD61 PUSH2 0x87F JUMP JUMPDEST JUMPDEST SWAP3 SWAP2 POP POP JUMP JUMPDEST PUSH2 0xD71 DUP2 PUSH2 0xA0F JUMP JUMPDEST DUP3 MSTORE POP POP JUMP JUMPDEST PUSH0 PUSH1 0x60 DUP3 ADD SWAP1 POP PUSH2 0xD8A PUSH0 DUP4 ADD DUP7 PUSH2 0x84B JUMP JUMPDEST PUSH2 0xD97 PUSH1 0x20 DUP4 ADD DUP6 PUSH2 0xD68 JUMP JUMPDEST PUSH2 0xDA4 PUSH1 0x40 DUP4 ADD DUP5 PUSH2 0xD68 JUMP JUMPDEST SWAP5 SWAP4 POP POP POP POP JUMP JUMPDEST PUSH0 PUSH1 0x20 DUP3 ADD SWAP1 POP PUSH2 0xDBF PUSH0 DUP4 ADD DUP5 PUSH2 0xD68 JUMP JUMPDEST SWAP3 SWAP2 POP POP JUMP JUMPDEST PUSH1 0x80 MLOAD PUSH1 0xA0 MLOAD PUSH2 0x50DC PUSH2 0xE33 PUSH0 CODECOPY PUSH0 DUP2 DUP2 PUSH2 0x116D ADD MSTORE DUP2 DUP2 PUSH2 0x254B ADD MSTORE DUP2 DUP2 PUSH2 0x256C ADD MSTORE DUP2 DUP2 PUSH2 0x2610 ADD MSTORE PUSH2 0x295F ADD MSTORE PUSH0 DUP2 DUP2 PUSH2 0xC8D ADD MSTORE DUP2 DUP2 PUSH2 0xF6E ADD MSTORE DUP2 DUP2 PUSH2 0x160F ADD MSTORE DUP2 DUP2 PUSH2 0x1A59 ADD MSTORE DUP2 DUP2 PUSH2 0x1F56 ADD MSTORE DUP2 DUP2 PUSH2 0x2A59 ADD MSTORE DUP2 DUP2 PUSH2 0x2CAB ADD MSTORE PUSH2 0x2DA3 ADD MSTORE PUSH2 0x50DC PUSH0 RETURN INVALID PUSH1 0x80 PUSH1 0x40 MSTORE PUSH1 0x4 CALLDATASIZE LT PUSH2 0x250 JUMPI PUSH0 CALLDATALOAD PUSH1 0xE0 SHR DUP1 PUSH4 0x7D25A05E GT PUSH2 0x138 JUMPI DUP1 PUSH4 0xBB0B6A53 GT PUSH2 0xB5 JUMPI DUP1 PUSH4 0xD045A0DC GT PUSH2 0x79 JUMPI DUP1 PUSH4 0xD045A0DC EQ PUSH2 0x8E7 JUMPI DUP1 PUSH4 0xD4243885 EQ PUSH2 0x903 JUMPI DUP1 PUSH4 0xDD62ED3E EQ PUSH2 0x92B JUMPI DUP1 PUSH4 0xF2FDE38B EQ PUSH2 0x967 JUMPI DUP1 PUSH4 0xFC0C546A EQ PUSH2 0x98F JUMPI DUP1 PUSH4 0xFF7BD03D EQ PUSH2 0x9B9 JUMPI PUSH2 0x250 JUMP JUMPDEST DUP1 PUSH4 0xBB0B6A53 EQ PUSH2 0x7FA JUMPI DUP1 PUSH4 0xBC70B354 EQ PUSH2 0x836 JUMPI DUP1 PUSH4 0xBD815DB0 EQ PUSH2 0x872 JUMPI DUP1 PUSH4 0xC7C7F5B3 EQ PUSH2 0x88E JUMPI DUP1 PUSH4 0xCA5EB5E1 EQ PUSH2 0x8BF JUMPI PUSH2 0x250 JUMP JUMPDEST DUP1 PUSH4 0x963EFCAA GT PUSH2 0xFC JUMPI DUP1 PUSH4 0x963EFCAA EQ PUSH2 0x718 JUMPI DUP1 PUSH4 0x9F68B964 EQ PUSH2 0x742 JUMPI DUP1 PUSH4 0xA9059CBB EQ PUSH2 0x76C JUMPI DUP1 PUSH4 0xB731EA0A EQ PUSH2 0x7A8 JUMPI DUP1 PUSH4 0xB98BD070 EQ PUSH2 0x7D2 JUMPI PUSH2 0x250 JUMP JUMPDEST DUP1 PUSH4 0x7D25A05E EQ PUSH2 0x622 JUMPI DUP1 PUSH4 0x82413EAC EQ PUSH2 0x65E JUMPI DUP1 PUSH4 0x857749B0 EQ PUSH2 0x69A JUMPI DUP1 PUSH4 0x8DA5CB5B EQ PUSH2 0x6C4 JUMPI DUP1 PUSH4 0x95D89B41 EQ PUSH2 0x6EE JUMPI PUSH2 0x250 JUMP JUMPDEST DUP1 PUSH4 0x23B872DD GT PUSH2 0x1D1 JUMPI DUP1 PUSH4 0x5535D461 GT PUSH2 0x195 JUMPI DUP1 PUSH4 0x5535D461 EQ PUSH2 0x506 JUMPI DUP1 PUSH4 0x5A0DFE4D EQ PUSH2 0x542 JUMPI DUP1 PUSH4 0x5E280F11 EQ PUSH2 0x57E JUMPI DUP1 PUSH4 0x6FC1B31E EQ PUSH2 0x5A8 JUMPI DUP1 PUSH4 0x70A08231 EQ PUSH2 0x5D0 JUMPI DUP1 PUSH4 0x715018A6 EQ PUSH2 0x60C JUMPI PUSH2 0x250 JUMP JUMPDEST DUP1 PUSH4 0x23B872DD EQ PUSH2 0x412 JUMPI DUP1 PUSH4 0x313CE567 EQ PUSH2 0x44E JUMPI DUP1 PUSH4 0x3400288B EQ PUSH2 0x478 JUMPI DUP1 PUSH4 0x3B6F743B EQ PUSH2 0x4A0 JUMPI DUP1 PUSH4 0x52AE2879 EQ PUSH2 0x4DC JUMPI PUSH2 0x250 JUMP JUMPDEST DUP1 PUSH4 0x134D4F25 GT PUSH2 0x218 JUMPI DUP1 PUSH4 0x134D4F25 EQ PUSH2 0x33E JUMPI DUP1 PUSH4 0x156A0D0F EQ PUSH2 0x368 JUMPI DUP1 PUSH4 0x17442B70 EQ PUSH2 0x393 JUMPI DUP1 PUSH4 0x18160DDD EQ PUSH2 0x3BE JUMPI DUP1 PUSH4 0x1F5E1334 EQ PUSH2 0x3E8 JUMPI PUSH2 0x250 JUMP JUMPDEST DUP1 PUSH4 0x6FDDE03 EQ PUSH2 0x254 JUMPI DUP1 PUSH4 0x95EA7B3 EQ PUSH2 0x27E JUMPI DUP1 PUSH4 0xD35B415 EQ PUSH2 0x2BA JUMPI DUP1 PUSH4 0x111ECDAD EQ PUSH2 0x2F8 JUMPI DUP1 PUSH4 0x13137D65 EQ PUSH2 0x322 JUMPI JUMPDEST PUSH0 DUP1 REVERT JUMPDEST CALLVALUE DUP1 ISZERO PUSH2 0x25F JUMPI PUSH0 DUP1 REVERT JUMPDEST POP PUSH2 0x268 PUSH2 0x9F5 JUMP JUMPDEST PUSH1 0x40 MLOAD PUSH2 0x275 SWAP2 SWAP1 PUSH2 0x300E JUMP JUMPDEST PUSH1 0x40 MLOAD DUP1 SWAP2 SUB SWAP1 RETURN JUMPDEST CALLVALUE DUP1 ISZERO PUSH2 0x289 JUMPI PUSH0 DUP1 REVERT JUMPDEST POP PUSH2 0x2A4 PUSH1 0x4 DUP1 CALLDATASIZE SUB DUP2 ADD SWAP1 PUSH2 0x29F SWAP2 SWAP1 PUSH2 0x30CC JUMP JUMPDEST PUSH2 0xA85 JUMP JUMPDEST PUSH1 0x40 MLOAD PUSH2 0x2B1 SWAP2 SWAP1 PUSH2 0x3124 JUMP JUMPDEST PUSH1 0x40 MLOAD DUP1 SWAP2 SUB SWAP1 RETURN JUMPDEST CALLVALUE DUP1 ISZERO PUSH2 0x2C5 JUMPI PUSH0 DUP1 REVERT JUMPDEST POP PUSH2 0x2E0 PUSH1 0x4 DUP1 CALLDATASIZE SUB DUP2 ADD SWAP1 PUSH2 0x2DB SWAP2 SWAP1 PUSH2 0x315F JUMP JUMPDEST PUSH2 0xAA7 JUMP JUMPDEST PUSH1 0x40 MLOAD PUSH2 0x2EF SWAP4 SWAP3 SWAP2 SWAP1 PUSH2 0x3364 JUMP JUMPDEST PUSH1 0x40 MLOAD DUP1 SWAP2 SUB SWAP1 RETURN JUMPDEST CALLVALUE DUP1 ISZERO PUSH2 0x303 JUMPI PUSH0 DUP1 REVERT JUMPDEST POP PUSH2 0x30C PUSH2 0xC4F JUMP JUMPDEST PUSH1 0x40 MLOAD PUSH2 0x319 SWAP2 SWAP1 PUSH2 0x33AF JUMP JUMPDEST PUSH1 0x40 MLOAD DUP1 SWAP2 SUB SWAP1 RETURN JUMPDEST PUSH2 0x33C PUSH1 0x4 DUP1 CALLDATASIZE SUB DUP2 ADD SWAP1 PUSH2 0x337 SWAP2 SWAP1 PUSH2 0x347A JUMP JUMPDEST PUSH2 0xC74 JUMP JUMPDEST STOP JUMPDEST CALLVALUE DUP1 ISZERO PUSH2 0x349 JUMPI PUSH0 DUP1 REVERT JUMPDEST POP PUSH2 0x352 PUSH2 0xD94 JUMP JUMPDEST PUSH1 0x40 MLOAD PUSH2 0x35F SWAP2 SWAP1 PUSH2 0x354D JUMP JUMPDEST PUSH1 0x40 MLOAD DUP1 SWAP2 SUB SWAP1 RETURN JUMPDEST CALLVALUE DUP1 ISZERO PUSH2 0x373 JUMPI PUSH0 DUP1 REVERT JUMPDEST POP PUSH2 0x37C PUSH2 0xD99 JUMP JUMPDEST PUSH1 0x40 MLOAD PUSH2 0x38A SWAP3 SWAP2 SWAP1 PUSH2 0x35C2 JUMP JUMPDEST PUSH1 0x40 MLOAD DUP1 SWAP2 SUB SWAP1 RETURN JUMPDEST CALLVALUE DUP1 ISZERO PUSH2 0x39E JUMPI PUSH0 DUP1 REVERT JUMPDEST POP PUSH2 0x3A7 PUSH2 0xDC6 JUMP JUMPDEST PUSH1 0x40 MLOAD PUSH2 0x3B5 SWAP3 SWAP2 SWAP1 PUSH2 0x35E9 JUMP JUMPDEST PUSH1 0x40 MLOAD DUP1 SWAP2 SUB SWAP1 RETURN JUMPDEST CALLVALUE DUP1 ISZERO PUSH2 0x3C9 JUMPI PUSH0 DUP1 REVERT JUMPDEST POP PUSH2 0x3D2 PUSH2 0xDD4 JUMP JUMPDEST PUSH1 0x40 MLOAD PUSH2 0x3DF SWAP2 SWAP1 PUSH2 0x361F JUMP JUMPDEST PUSH1 0x40 MLOAD DUP1 SWAP2 SUB SWAP1 RETURN JUMPDEST CALLVALUE DUP1 ISZERO PUSH2 0x3F3 JUMPI PUSH0 DUP1 REVERT JUMPDEST POP PUSH2 0x3FC PUSH2 0xDDD JUMP JUMPDEST PUSH1 0x40 MLOAD PUSH2 0x409 SWAP2 SWAP1 PUSH2 0x354D JUMP JUMPDEST PUSH1 0x40 MLOAD DUP1 SWAP2 SUB SWAP1 RETURN JUMPDEST CALLVALUE DUP1 ISZERO PUSH2 0x41D JUMPI PUSH0 DUP1 REVERT JUMPDEST POP PUSH2 0x438 PUSH1 0x4 DUP1 CALLDATASIZE SUB DUP2 ADD SWAP1 PUSH2 0x433 SWAP2 SWAP1 PUSH2 0x3638 JUMP JUMPDEST PUSH2 0xDE2 JUMP JUMPDEST PUSH1 0x40 MLOAD PUSH2 0x445 SWAP2 SWAP1 PUSH2 0x3124 JUMP JUMPDEST PUSH1 0x40 MLOAD DUP1 SWAP2 SUB SWAP1 RETURN JUMPDEST CALLVALUE DUP1 ISZERO PUSH2 0x459 JUMPI PUSH0 DUP1 REVERT JUMPDEST POP PUSH2 0x462 PUSH2 0xE10 JUMP JUMPDEST PUSH1 0x40 MLOAD PUSH2 0x46F SWAP2 SWAP1 PUSH2 0x36A3 JUMP JUMPDEST PUSH1 0x40 MLOAD DUP1 SWAP2 SUB SWAP1 RETURN JUMPDEST CALLVALUE DUP1 ISZERO PUSH2 0x483 JUMPI PUSH0 DUP1 REVERT JUMPDEST POP PUSH2 0x49E PUSH1 0x4 DUP1 CALLDATASIZE SUB DUP2 ADD SWAP1 PUSH2 0x499 SWAP2 SWAP1 PUSH2 0x36F5 JUMP JUMPDEST PUSH2 0xE18 JUMP JUMPDEST STOP JUMPDEST CALLVALUE DUP1 ISZERO PUSH2 0x4AB JUMPI PUSH0 DUP1 REVERT JUMPDEST POP PUSH2 0x4C6 PUSH1 0x4 DUP1 CALLDATASIZE SUB DUP2 ADD SWAP1 PUSH2 0x4C1 SWAP2 SWAP1 PUSH2 0x375D JUMP JUMPDEST PUSH2 0xE2E JUMP JUMPDEST PUSH1 0x40 MLOAD PUSH2 0x4D3 SWAP2 SWAP1 PUSH2 0x37E4 JUMP JUMPDEST PUSH1 0x40 MLOAD DUP1 SWAP2 SUB SWAP1 RETURN JUMPDEST CALLVALUE DUP1 ISZERO PUSH2 0x4E7 JUMPI PUSH0 DUP1 REVERT JUMPDEST POP PUSH2 0x4F0 PUSH2 0xE96 JUMP JUMPDEST PUSH1 0x40 MLOAD PUSH2 0x4FD SWAP2 SWAP1 PUSH2 0x33AF JUMP JUMPDEST PUSH1 0x40 MLOAD DUP1 SWAP2 SUB SWAP1 RETURN JUMPDEST CALLVALUE DUP1 ISZERO PUSH2 0x511 JUMPI PUSH0 DUP1 REVERT JUMPDEST POP PUSH2 0x52C PUSH1 0x4 DUP1 CALLDATASIZE SUB DUP2 ADD SWAP1 PUSH2 0x527 SWAP2 SWAP1 PUSH2 0x3827 JUMP JUMPDEST PUSH2 0xE9D JUMP JUMPDEST PUSH1 0x40 MLOAD PUSH2 0x539 SWAP2 SWAP1 PUSH2 0x38B7 JUMP JUMPDEST PUSH1 0x40 MLOAD DUP1 SWAP2 SUB SWAP1 RETURN JUMPDEST CALLVALUE DUP1 ISZERO PUSH2 0x54D JUMPI PUSH0 DUP1 REVERT JUMPDEST POP PUSH2 0x568 PUSH1 0x4 DUP1 CALLDATASIZE SUB DUP2 ADD SWAP1 PUSH2 0x563 SWAP2 SWAP1 PUSH2 0x36F5 JUMP JUMPDEST PUSH2 0xF43 JUMP JUMPDEST PUSH1 0x40 MLOAD PUSH2 0x575 SWAP2 SWAP1 PUSH2 0x3124 JUMP JUMPDEST PUSH1 0x40 MLOAD DUP1 SWAP2 SUB SWAP1 RETURN JUMPDEST CALLVALUE DUP1 ISZERO PUSH2 0x589 JUMPI PUSH0 DUP1 REVERT JUMPDEST POP PUSH2 0x592 PUSH2 0xF6C JUMP JUMPDEST PUSH1 0x40 MLOAD PUSH2 0x59F SWAP2 SWAP1 PUSH2 0x3932 JUMP JUMPDEST PUSH1 0x40 MLOAD DUP1 SWAP2 SUB SWAP1 RETURN JUMPDEST CALLVALUE DUP1 ISZERO PUSH2 0x5B3 JUMPI PUSH0 DUP1 REVERT JUMPDEST POP PUSH2 0x5CE PUSH1 0x4 DUP1 CALLDATASIZE SUB DUP2 ADD SWAP1 PUSH2 0x5C9 SWAP2 SWAP1 PUSH2 0x394B JUMP JUMPDEST PUSH2 0xF90 JUMP JUMPDEST STOP JUMPDEST CALLVALUE DUP1 ISZERO PUSH2 0x5DB JUMPI PUSH0 DUP1 REVERT JUMPDEST POP PUSH2 0x5F6 PUSH1 0x4 DUP1 CALLDATASIZE SUB DUP2 ADD SWAP1 PUSH2 0x5F1 SWAP2 SWAP1 PUSH2 0x394B JUMP JUMPDEST PUSH2 0x1012 JUMP JUMPDEST PUSH1 0x40 MLOAD PUSH2 0x603 SWAP2 SWAP1 PUSH2 0x361F JUMP JUMPDEST PUSH1 0x40 MLOAD DUP1 SWAP2 SUB SWAP1 RETURN JUMPDEST CALLVALUE DUP1 ISZERO PUSH2 0x617 JUMPI PUSH0 DUP1 REVERT JUMPDEST POP PUSH2 0x620 PUSH2 0x1058 JUMP JUMPDEST STOP JUMPDEST CALLVALUE DUP1 ISZERO PUSH2 0x62D JUMPI PUSH0 DUP1 REVERT JUMPDEST POP PUSH2 0x648 PUSH1 0x4 DUP1 CALLDATASIZE SUB DUP2 ADD SWAP1 PUSH2 0x643 SWAP2 SWAP1 PUSH2 0x36F5 JUMP JUMPDEST PUSH2 0x106B JUMP JUMPDEST PUSH1 0x40 MLOAD PUSH2 0x655 SWAP2 SWAP1 PUSH2 0x3976 JUMP JUMPDEST PUSH1 0x40 MLOAD DUP1 SWAP2 SUB SWAP1 RETURN JUMPDEST CALLVALUE DUP1 ISZERO PUSH2 0x669 JUMPI PUSH0 DUP1 REVERT JUMPDEST POP PUSH2 0x684 PUSH1 0x4 DUP1 CALLDATASIZE SUB DUP2 ADD SWAP1 PUSH2 0x67F SWAP2 SWAP1 PUSH2 0x398F JUMP JUMPDEST PUSH2 0x1072 JUMP JUMPDEST PUSH1 0x40 MLOAD PUSH2 0x691 SWAP2 SWAP1 PUSH2 0x3124 JUMP JUMPDEST PUSH1 0x40 MLOAD DUP1 SWAP2 SUB SWAP1 RETURN JUMPDEST CALLVALUE DUP1 ISZERO PUSH2 0x6A5 JUMPI PUSH0 DUP1 REVERT JUMPDEST POP PUSH2 0x6AE PUSH2 0x10AC JUMP JUMPDEST PUSH1 0x40 MLOAD PUSH2 0x6BB SWAP2 SWAP1 PUSH2 0x36A3 JUMP JUMPDEST PUSH1 0x40 MLOAD DUP1 SWAP2 SUB SWAP1 RETURN JUMPDEST CALLVALUE DUP1 ISZERO PUSH2 0x6CF JUMPI PUSH0 DUP1 REVERT JUMPDEST POP PUSH2 0x6D8 PUSH2 0x10B4 JUMP JUMPDEST PUSH1 0x40 MLOAD PUSH2 0x6E5 SWAP2 SWAP1 PUSH2 0x33AF JUMP JUMPDEST PUSH1 0x40 MLOAD DUP1 SWAP2 SUB SWAP1 RETURN JUMPDEST CALLVALUE DUP1 ISZERO PUSH2 0x6F9 JUMPI PUSH0 DUP1 REVERT JUMPDEST POP PUSH2 0x702 PUSH2 0x10DB JUMP JUMPDEST PUSH1 0x40 MLOAD PUSH2 0x70F SWAP2 SWAP1 PUSH2 0x300E JUMP JUMPDEST PUSH1 0x40 MLOAD DUP1 SWAP2 SUB SWAP1 RETURN JUMPDEST CALLVALUE DUP1 ISZERO PUSH2 0x723 JUMPI PUSH0 DUP1 REVERT JUMPDEST POP PUSH2 0x72C PUSH2 0x116B JUMP JUMPDEST PUSH1 0x40 MLOAD PUSH2 0x739 SWAP2 SWAP1 PUSH2 0x361F JUMP JUMPDEST PUSH1 0x40 MLOAD DUP1 SWAP2 SUB SWAP1 RETURN JUMPDEST CALLVALUE DUP1 ISZERO PUSH2 0x74D JUMPI PUSH0 DUP1 REVERT JUMPDEST POP PUSH2 0x756 PUSH2 0x118F JUMP JUMPDEST PUSH1 0x40 MLOAD PUSH2 0x763 SWAP2 SWAP1 PUSH2 0x3124 JUMP JUMPDEST PUSH1 0x40 MLOAD DUP1 SWAP2 SUB SWAP1 RETURN JUMPDEST CALLVALUE DUP1 ISZERO PUSH2 0x777 JUMPI PUSH0 DUP1 REVERT JUMPDEST POP PUSH2 0x792 PUSH1 0x4 DUP1 CALLDATASIZE SUB DUP2 ADD SWAP1 PUSH2 0x78D SWAP2 SWAP1 PUSH2 0x30CC JUMP JUMPDEST PUSH2 0x1193 JUMP JUMPDEST PUSH1 0x40 MLOAD PUSH2 0x79F SWAP2 SWAP1 PUSH2 0x3124 JUMP JUMPDEST PUSH1 0x40 MLOAD DUP1 SWAP2 SUB SWAP1 RETURN JUMPDEST CALLVALUE DUP1 ISZERO PUSH2 0x7B3 JUMPI PUSH0 DUP1 REVERT JUMPDEST POP PUSH2 0x7BC PUSH2 0x11B5 JUMP JUMPDEST PUSH1 0x40 MLOAD PUSH2 0x7C9 SWAP2 SWAP1 PUSH2 0x33AF JUMP JUMPDEST PUSH1 0x40 MLOAD DUP1 SWAP2 SUB SWAP1 RETURN JUMPDEST CALLVALUE DUP1 ISZERO PUSH2 0x7DD JUMPI PUSH0 DUP1 REVERT JUMPDEST POP PUSH2 0x7F8 PUSH1 0x4 DUP1 CALLDATASIZE SUB DUP2 ADD SWAP1 PUSH2 0x7F3 SWAP2 SWAP1 PUSH2 0x3A55 JUMP JUMPDEST PUSH2 0x11DA JUMP JUMPDEST STOP JUMPDEST CALLVALUE DUP1 ISZERO PUSH2 0x805 JUMPI PUSH0 DUP1 REVERT JUMPDEST POP PUSH2 0x820 PUSH1 0x4 DUP1 CALLDATASIZE SUB DUP2 ADD SWAP1 PUSH2 0x81B SWAP2 SWAP1 PUSH2 0x3AA0 JUMP JUMPDEST PUSH2 0x11FB JUMP JUMPDEST PUSH1 0x40 MLOAD PUSH2 0x82D SWAP2 SWAP1 PUSH2 0x3ADA JUMP JUMPDEST PUSH1 0x40 MLOAD DUP1 SWAP2 SUB SWAP1 RETURN JUMPDEST CALLVALUE DUP1 ISZERO PUSH2 0x841 JUMPI PUSH0 DUP1 REVERT JUMPDEST POP PUSH2 0x85C PUSH1 0x4 DUP1 CALLDATASIZE SUB DUP2 ADD SWAP1 PUSH2 0x857 SWAP2 SWAP1 PUSH2 0x3AF3 JUMP JUMPDEST PUSH2 0x1210 JUMP JUMPDEST PUSH1 0x40 MLOAD PUSH2 0x869 SWAP2 SWAP1 PUSH2 0x38B7 JUMP JUMPDEST PUSH1 0x40 MLOAD DUP1 SWAP2 SUB SWAP1 RETURN JUMPDEST PUSH2 0x88C PUSH1 0x4 DUP1 CALLDATASIZE SUB DUP2 ADD SWAP1 PUSH2 0x887 SWAP2 SWAP1 PUSH2 0x3BB9 JUMP JUMPDEST PUSH2 0x1412 JUMP JUMPDEST STOP JUMPDEST PUSH2 0x8A8 PUSH1 0x4 DUP1 CALLDATASIZE SUB DUP2 ADD SWAP1 PUSH2 0x8A3 SWAP2 SWAP1 PUSH2 0x3C22 JUMP JUMPDEST PUSH2 0x15DE JUMP JUMPDEST PUSH1 0x40 MLOAD PUSH2 0x8B6 SWAP3 SWAP2 SWAP1 PUSH2 0x3D19 JUMP JUMPDEST PUSH1 0x40 MLOAD DUP1 SWAP2 SUB SWAP1 RETURN JUMPDEST CALLVALUE DUP1 ISZERO PUSH2 0x8CA JUMPI PUSH0 DUP1 REVERT JUMPDEST POP PUSH2 0x8E5 PUSH1 0x4 DUP1 CALLDATASIZE SUB DUP2 ADD SWAP1 PUSH2 0x8E0 SWAP2 SWAP1 PUSH2 0x394B JUMP JUMPDEST PUSH2 0x1605 JUMP JUMPDEST STOP JUMPDEST PUSH2 0x901 PUSH1 0x4 DUP1 CALLDATASIZE SUB DUP2 ADD SWAP1 PUSH2 0x8FC SWAP2 SWAP1 PUSH2 0x347A JUMP JUMPDEST PUSH2 0x1696 JUMP JUMPDEST STOP JUMPDEST CALLVALUE DUP1 ISZERO PUSH2 0x90E JUMPI PUSH0 DUP1 REVERT JUMPDEST POP PUSH2 0x929 PUSH1 0x4 DUP1 CALLDATASIZE SUB DUP2 ADD SWAP1 PUSH2 0x924 SWAP2 SWAP1 PUSH2 0x394B JUMP JUMPDEST PUSH2 0x1713 JUMP JUMPDEST STOP JUMPDEST CALLVALUE DUP1 ISZERO PUSH2 0x936 JUMPI PUSH0 DUP1 REVERT JUMPDEST POP PUSH2 0x951 PUSH1 0x4 DUP1 CALLDATASIZE SUB DUP2 ADD SWAP1 PUSH2 0x94C SWAP2 SWAP1 PUSH2 0x3D40 JUMP JUMPDEST PUSH2 0x1795 JUMP JUMPDEST PUSH1 0x40 MLOAD PUSH2 0x95E SWAP2 SWAP1 PUSH2 0x361F JUMP JUMPDEST PUSH1 0x40 MLOAD DUP1 SWAP2 SUB SWAP1 RETURN JUMPDEST CALLVALUE DUP1 ISZERO PUSH2 0x972 JUMPI PUSH0 DUP1 REVERT JUMPDEST POP PUSH2 0x98D PUSH1 0x4 DUP1 CALLDATASIZE SUB DUP2 ADD SWAP1 PUSH2 0x988 SWAP2 SWAP1 PUSH2 0x394B JUMP JUMPDEST PUSH2 0x1817 JUMP JUMPDEST STOP JUMPDEST CALLVALUE DUP1 ISZERO PUSH2 0x99A JUMPI PUSH0 DUP1 REVERT JUMPDEST POP PUSH2 0x9A3 PUSH2 0x189B JUMP JUMPDEST PUSH1 0x40 MLOAD PUSH2 0x9B0 SWAP2 SWAP1 PUSH2 0x33AF JUMP JUMPDEST PUSH1 0x40 MLOAD DUP1 SWAP2 SUB SWAP1 RETURN JUMPDEST CALLVALUE DUP1 ISZERO PUSH2 0x9C4 JUMPI PUSH0 DUP1 REVERT JUMPDEST POP PUSH2 0x9DF PUSH1 0x4 DUP1 CALLDATASIZE SUB DUP2 ADD SWAP1 PUSH2 0x9DA SWAP2 SWAP1 PUSH2 0x3D7E JUMP JUMPDEST PUSH2 0x18A2 JUMP JUMPDEST PUSH1 0x40 MLOAD PUSH2 0x9EC SWAP2 SWAP1 PUSH2 0x3124 JUMP JUMPDEST PUSH1 0x40 MLOAD DUP1 SWAP2 SUB SWAP1 RETURN JUMPDEST PUSH1 0x60 PUSH1 0x8 DUP1 SLOAD PUSH2 0xA04 SWAP1 PUSH2 0x3DD6 JUMP JUMPDEST DUP1 PUSH1 0x1F ADD PUSH1 0x20 DUP1 SWAP2 DIV MUL PUSH1 0x20 ADD PUSH1 0x40 MLOAD SWAP1 DUP2 ADD PUSH1 0x40 MSTORE DUP1 SWAP3 SWAP2 SWAP1 DUP2 DUP2 MSTORE PUSH1 0x20 ADD DUP3 DUP1 SLOAD PUSH2 0xA30 SWAP1 PUSH2 0x3DD6 JUMP JUMPDEST DUP1 ISZERO PUSH2 0xA7B JUMPI DUP1 PUSH1 0x1F LT PUSH2 0xA52 JUMPI PUSH2 0x100 DUP1 DUP4 SLOAD DIV MUL DUP4 MSTORE SWAP2 PUSH1 0x20 ADD SWAP2 PUSH2 0xA7B JUMP JUMPDEST DUP3 ADD SWAP2 SWAP1 PUSH0 MSTORE PUSH1 0x20 PUSH0 KECCAK256 SWAP1 JUMPDEST DUP2 SLOAD DUP2 MSTORE SWAP1 PUSH1 0x1 ADD SWAP1 PUSH1 0x20 ADD DUP1 DUP4 GT PUSH2 0xA5E JUMPI DUP3 SWAP1 SUB PUSH1 0x1F AND DUP3 ADD SWAP2 JUMPDEST POP POP POP POP POP SWAP1 POP SWAP1 JUMP JUMPDEST PUSH0 DUP1 PUSH2 0xA8F PUSH2 0x18DF JUMP JUMPDEST SWAP1 POP PUSH2 0xA9C DUP2 DUP6 DUP6 PUSH2 0x18E6 JUMP JUMPDEST PUSH1 0x1 SWAP2 POP POP SWAP3 SWAP2 POP POP JUMP JUMPDEST PUSH2 0xAAF PUSH2 0x2F0B JUMP JUMPDEST PUSH1 0x60 PUSH2 0xAB9 PUSH2 0x2F23 JUMP JUMPDEST PUSH0 DUP1 ADDRESS PUSH20 0xFFFFFFFFFFFFFFFFFFFFFFFFFFFFFFFFFFFFFFFF AND PUSH4 0xFC0C546A PUSH1 0x40 MLOAD DUP2 PUSH4 0xFFFFFFFF AND PUSH1 0xE0 SHL DUP2 MSTORE PUSH1 0x4 ADD PUSH1 0x20 PUSH1 0x40 MLOAD DUP1 DUP4 SUB DUP2 DUP7 GAS STATICCALL ISZERO DUP1 ISZERO PUSH2 0xB04 JUMPI RETURNDATASIZE PUSH0 DUP1 RETURNDATACOPY RETURNDATASIZE PUSH0 REVERT JUMPDEST POP POP POP POP PUSH1 0x40 MLOAD RETURNDATASIZE PUSH1 0x1F NOT PUSH1 0x1F DUP3 ADD AND DUP3 ADD DUP1 PUSH1 0x40 MSTORE POP DUP2 ADD SWAP1 PUSH2 0xB28 SWAP2 SWAP1 PUSH2 0x3E1A JUMP JUMPDEST PUSH20 0xFFFFFFFFFFFFFFFFFFFFFFFFFFFFFFFFFFFFFFFF AND PUSH4 0x18160DDD PUSH1 0x40 MLOAD DUP2 PUSH4 0xFFFFFFFF AND PUSH1 0xE0 SHL DUP2 MSTORE PUSH1 0x4 ADD PUSH1 0x20 PUSH1 0x40 MLOAD DUP1 DUP4 SUB DUP2 DUP7 GAS STATICCALL ISZERO DUP1 ISZERO PUSH2 0xB70 JUMPI RETURNDATASIZE PUSH0 DUP1 RETURNDATACOPY RETURNDATASIZE PUSH0 REVERT JUMPDEST POP POP POP POP PUSH1 0x40 MLOAD RETURNDATASIZE PUSH1 0x1F NOT PUSH1 0x1F DUP3 ADD AND DUP3 ADD DUP1 PUSH1 0x40 MSTORE POP DUP2 ADD SWAP1 PUSH2 0xB94 SWAP2 SWAP1 PUSH2 0x3E59 JUMP JUMPDEST SWAP1 POP PUSH1 0x40 MLOAD DUP1 PUSH1 0x40 ADD PUSH1 0x40 MSTORE DUP1 DUP4 DUP2 MSTORE PUSH1 0x20 ADD DUP3 DUP2 MSTORE POP SWAP5 POP PUSH0 PUSH8 0xFFFFFFFFFFFFFFFF DUP2 GT ISZERO PUSH2 0xBC7 JUMPI PUSH2 0xBC6 PUSH2 0x3E84 JUMP JUMPDEST JUMPDEST PUSH1 0x40 MLOAD SWAP1 DUP1 DUP3 MSTORE DUP1 PUSH1 0x20 MUL PUSH1 0x20 ADD DUP3 ADD PUSH1 0x40 MSTORE DUP1 ISZERO PUSH2 0xC00 JUMPI DUP2 PUSH1 0x20 ADD JUMPDEST PUSH2 0xBED PUSH2 0x2F3B JUMP JUMPDEST DUP2 MSTORE PUSH1 0x20 ADD SWAP1 PUSH1 0x1 SWAP1 SUB SWAP1 DUP2 PUSH2 0xBE5 JUMPI SWAP1 POP JUMPDEST POP SWAP4 POP PUSH0 DUP1 PUSH2 0xC29 DUP9 PUSH1 0x40 ADD CALLDATALOAD DUP10 PUSH1 0x60 ADD CALLDATALOAD DUP11 PUSH0 ADD PUSH1 0x20 DUP2 ADD SWAP1 PUSH2 0xC24 SWAP2 SWAP1 PUSH2 0x3AA0 JUMP JUMPDEST PUSH2 0x18F8 JUMP JUMPDEST SWAP2 POP SWAP2 POP PUSH1 0x40 MLOAD DUP1 PUSH1 0x40 ADD PUSH1 0x40 MSTORE DUP1 DUP4 DUP2 MSTORE PUSH1 0x20 ADD DUP3 DUP2 MSTORE POP SWAP5 POP POP POP POP POP SWAP2 SWAP4 SWAP1 SWAP3 POP JUMP JUMPDEST PUSH1 0x4 PUSH0 SWAP1 SLOAD SWAP1 PUSH2 0x100 EXP SWAP1 DIV PUSH20 0xFFFFFFFFFFFFFFFFFFFFFFFFFFFFFFFFFFFFFFFF AND DUP2 JUMP JUMPDEST CALLER PUSH20 0xFFFFFFFFFFFFFFFFFFFFFFFFFFFFFFFFFFFFFFFF AND PUSH32 0x0 PUSH20 0xFFFFFFFFFFFFFFFFFFFFFFFFFFFFFFFFFFFFFFFF AND EQ PUSH2 0xD04 JUMPI CALLER PUSH1 0x40 MLOAD PUSH32 0x91AC5E4F00000000000000000000000000000000000000000000000000000000 DUP2 MSTORE PUSH1 0x4 ADD PUSH2 0xCFB SWAP2 SWAP1 PUSH2 0x33AF JUMP JUMPDEST PUSH1 0x40 MLOAD DUP1 SWAP2 SUB SWAP1 REVERT JUMPDEST DUP7 PUSH1 0x20 ADD CALLDATALOAD PUSH2 0xD23 DUP9 PUSH0 ADD PUSH1 0x20 DUP2 ADD SWAP1 PUSH2 0xD1E SWAP2 SWAP1 PUSH2 0x3AA0 JUMP JUMPDEST PUSH2 0x1957 JUMP JUMPDEST EQ PUSH2 0xD7C JUMPI DUP7 PUSH0 ADD PUSH1 0x20 DUP2 ADD SWAP1 PUSH2 0xD3A SWAP2 SWAP1 PUSH2 0x3AA0 JUMP JUMPDEST DUP8 PUSH1 0x20 ADD CALLDATALOAD PUSH1 0x40 MLOAD PUSH32 0xC26BEBCC00000000000000000000000000000000000000000000000000000000 DUP2 MSTORE PUSH1 0x4 ADD PUSH2 0xD73 SWAP3 SWAP2 SWAP1 PUSH2 0x3EC0 JUMP JUMPDEST PUSH1 0x40 MLOAD DUP1 SWAP2 SUB SWAP1 REVERT JUMPDEST PUSH2 0xD8B DUP8 DUP8 DUP8 DUP8 DUP8 DUP8 DUP8 PUSH2 0x19C8 JUMP JUMPDEST POP POP POP POP POP POP POP JUMP JUMPDEST PUSH1 0x2 DUP2 JUMP JUMPDEST PUSH0 DUP1 PUSH32 0x2E49C2C00000000000000000000000000000000000000000000000000000000 PUSH1 0x1 SWAP2 POP SWAP2 POP SWAP1 SWAP2 JUMP JUMPDEST PUSH0 DUP1 PUSH1 0x1 PUSH1 0x2 SWAP2 POP SWAP2 POP SWAP1 SWAP2 JUMP JUMPDEST PUSH0 PUSH1 0x7 SLOAD SWAP1 POP SWAP1 JUMP JUMPDEST PUSH1 0x1 DUP2 JUMP JUMPDEST PUSH0 DUP1 PUSH2 0xDEC PUSH2 0x18DF JUMP JUMPDEST SWAP1 POP PUSH2 0xDF9 DUP6 DUP3 DUP6 PUSH2 0x1B52 JUMP JUMPDEST PUSH2 0xE04 DUP6 DUP6 DUP6 PUSH2 0x1BE5 JUMP JUMPDEST PUSH1 0x1 SWAP2 POP POP SWAP4 SWAP3 POP POP POP JUMP JUMPDEST PUSH0 PUSH1 0x12 SWAP1 POP SWAP1 JUMP JUMPDEST PUSH2 0xE20 PUSH2 0x1CD5 JUMP JUMPDEST PUSH2 0xE2A DUP3 DUP3 PUSH2 0x1D5C JUMP JUMPDEST POP POP JUMP JUMPDEST PUSH2 0xE36 PUSH2 0x2F54 JUMP JUMPDEST PUSH0 PUSH2 0xE5B DUP5 PUSH1 0x40 ADD CALLDATALOAD DUP6 PUSH1 0x60 ADD CALLDATALOAD DUP7 PUSH0 ADD PUSH1 0x20 DUP2 ADD SWAP1 PUSH2 0xE56 SWAP2 SWAP1 PUSH2 0x3AA0 JUMP JUMPDEST PUSH2 0x18F8 JUMP JUMPDEST SWAP2 POP POP PUSH0 DUP1 PUSH2 0xE6A DUP7 DUP5 PUSH2 0x1DBB JUMP JUMPDEST SWAP2 POP SWAP2 POP PUSH2 0xE8B DUP7 PUSH0 ADD PUSH1 0x20 DUP2 ADD SWAP1 PUSH2 0xE83 SWAP2 SWAP1 PUSH2 0x3AA0 JUMP JUMPDEST DUP4 DUP4 DUP9 PUSH2 0x1F4C JUMP JUMPDEST SWAP4 POP POP POP POP SWAP3 SWAP2 POP POP JUMP JUMPDEST PUSH0 ADDRESS SWAP1 POP SWAP1 JUMP JUMPDEST PUSH1 0x3 PUSH1 0x20 MSTORE DUP2 PUSH0 MSTORE PUSH1 0x40 PUSH0 KECCAK256 PUSH1 0x20 MSTORE DUP1 PUSH0 MSTORE PUSH1 0x40 PUSH0 KECCAK256 PUSH0 SWAP2 POP SWAP2 POP POP DUP1 SLOAD PUSH2 0xEC4 SWAP1 PUSH2 0x3DD6 JUMP JUMPDEST DUP1 PUSH1 0x1F ADD PUSH1 0x20 DUP1 SWAP2 DIV MUL PUSH1 0x20 ADD PUSH1 0x40 MLOAD SWAP1 DUP2 ADD PUSH1 0x40 MSTORE DUP1 SWAP3 SWAP2 SWAP1 DUP2 DUP2 MSTORE PUSH1 0x20 ADD DUP3 DUP1 SLOAD PUSH2 0xEF0 SWAP1 PUSH2 0x3DD6 JUMP JUMPDEST DUP1 ISZERO PUSH2 0xF3B JUMPI DUP1 PUSH1 0x1F LT PUSH2 0xF12 JUMPI PUSH2 0x100 DUP1 DUP4 SLOAD DIV MUL DUP4 MSTORE SWAP2 PUSH1 0x20 ADD SWAP2 PUSH2 0xF3B JUMP JUMPDEST DUP3 ADD SWAP2 SWAP1 PUSH0 MSTORE PUSH1 0x20 PUSH0 KECCAK256 SWAP1 JUMPDEST DUP2 SLOAD DUP2 MSTORE SWAP1 PUSH1 0x1 ADD SWAP1 PUSH1 0x20 ADD DUP1 DUP4 GT PUSH2 0xF1E JUMPI DUP3 SWAP1 SUB PUSH1 0x1F AND DUP3 ADD SWAP2 JUMPDEST POP POP POP POP POP DUP2 JUMP JUMPDEST PUSH0 DUP2 PUSH1 0x1 PUSH0 DUP6 PUSH4 0xFFFFFFFF AND PUSH4 0xFFFFFFFF AND DUP2 MSTORE PUSH1 0x20 ADD SWAP1 DUP2 MSTORE PUSH1 0x20 ADD PUSH0 KECCAK256 SLOAD EQ SWAP1 POP SWAP3 SWAP2 POP POP JUMP JUMPDEST PUSH32 0x0 DUP2 JUMP JUMPDEST PUSH2 0xF98 PUSH2 0x1CD5 JUMP JUMPDEST DUP1 PUSH1 0x4 PUSH0 PUSH2 0x100 EXP DUP2 SLOAD DUP2 PUSH20 0xFFFFFFFFFFFFFFFFFFFFFFFFFFFFFFFFFFFFFFFF MUL NOT AND SWAP1 DUP4 PUSH20 0xFFFFFFFFFFFFFFFFFFFFFFFFFFFFFFFFFFFFFFFF AND MUL OR SWAP1 SSTORE POP PUSH32 0xF0BE4F1E87349231D80C36B33F9E8639658EEAF474014DEE15A3E6A4D4414197 DUP2 PUSH1 0x40 MLOAD PUSH2 0x1007 SWAP2 SWAP1 PUSH2 0x33AF JUMP JUMPDEST PUSH1 0x40 MLOAD DUP1 SWAP2 SUB SWAP1 LOG1 POP JUMP JUMPDEST PUSH0 PUSH1 0x5 PUSH0 DUP4 PUSH20 0xFFFFFFFFFFFFFFFFFFFFFFFFFFFFFFFFFFFFFFFF AND PUSH20 0xFFFFFFFFFFFFFFFFFFFFFFFFFFFFFFFFFFFFFFFF AND DUP2 MSTORE PUSH1 0x20 ADD SWAP1 DUP2 MSTORE PUSH1 0x20 ADD PUSH0 KECCAK256 SLOAD SWAP1 POP SWAP2 SWAP1 POP JUMP JUMPDEST PUSH2 0x1060 PUSH2 0x1CD5 JUMP JUMPDEST PUSH2 0x1069 PUSH0 PUSH2 0x202D JUMP JUMPDEST JUMP JUMPDEST PUSH0 SWAP3 SWAP2 POP POP JUMP JUMPDEST PUSH0 ADDRESS PUSH20 0xFFFFFFFFFFFFFFFFFFFFFFFFFFFFFFFFFFFFFFFF AND DUP3 PUSH20 0xFFFFFFFFFFFFFFFFFFFFFFFFFFFFFFFFFFFFFFFF AND EQ SWAP1 POP SWAP5 SWAP4 POP POP POP POP JUMP JUMPDEST PUSH0 PUSH1 0x6 SWAP1 POP SWAP1 JUMP JUMPDEST PUSH0 DUP1 PUSH0 SWAP1 SLOAD SWAP1 PUSH2 0x100 EXP SWAP1 DIV PUSH20 0xFFFFFFFFFFFFFFFFFFFFFFFFFFFFFFFFFFFFFFFF AND SWAP1 POP SWAP1 JUMP JUMPDEST PUSH1 0x60 PUSH1 0x9 DUP1 SLOAD PUSH2 0x10EA SWAP1 PUSH2 0x3DD6 JUMP JUMPDEST DUP1 PUSH1 0x1F ADD PUSH1 0x20 DUP1 SWAP2 DIV MUL PUSH1 0x20 ADD PUSH1 0x40 MLOAD SWAP1 DUP2 ADD PUSH1 0x40 MSTORE DUP1 SWAP3 SWAP2 SWAP1 DUP2 DUP2 MSTORE PUSH1 0x20 ADD DUP3 DUP1 SLOAD PUSH2 0x1116 SWAP1 PUSH2 0x3DD6 JUMP JUMPDEST DUP1 ISZERO PUSH2 0x1161 JUMPI DUP1 PUSH1 0x1F LT PUSH2 0x1138 JUMPI PUSH2 0x100 DUP1 DUP4 SLOAD DIV MUL DUP4 MSTORE SWAP2 PUSH1 0x20 ADD SWAP2 PUSH2 0x1161 JUMP JUMPDEST DUP3 ADD SWAP2 SWAP1 PUSH0 MSTORE PUSH1 0x20 PUSH0 KECCAK256 SWAP1 JUMPDEST DUP2 SLOAD DUP2 MSTORE SWAP1 PUSH1 0x1 ADD SWAP1 PUSH1 0x20 ADD DUP1 DUP4 GT PUSH2 0x1144 JUMPI DUP3 SWAP1 SUB PUSH1 0x1F AND DUP3 ADD SWAP2 JUMPDEST POP POP POP POP POP SWAP1 POP SWAP1 JUMP JUMPDEST PUSH32 0x0 DUP2 JUMP JUMPDEST PUSH0 SWAP1 JUMP JUMPDEST PUSH0 DUP1 PUSH2 0x119D PUSH2 0x18DF JUMP JUMPDEST SWAP1 POP PUSH2 0x11AA DUP2 DUP6 DUP6 PUSH2 0x1BE5 JUMP JUMPDEST PUSH1 0x1 SWAP2 POP POP SWAP3 SWAP2 POP POP JUMP JUMPDEST PUSH1 0x2 PUSH0 SWAP1 SLOAD SWAP1 PUSH2 0x100 EXP SWAP1 DIV PUSH20 0xFFFFFFFFFFFFFFFFFFFFFFFFFFFFFFFFFFFFFFFF AND DUP2 JUMP JUMPDEST PUSH2 0x11E2 PUSH2 0x1CD5 JUMP JUMPDEST PUSH2 0x11F7 DUP3 DUP3 SWAP1 PUSH2 0x11F2 SWAP2 SWAP1 PUSH2 0x4118 JUMP JUMPDEST PUSH2 0x20EE JUMP JUMPDEST POP POP JUMP JUMPDEST PUSH1 0x1 PUSH1 0x20 MSTORE DUP1 PUSH0 MSTORE PUSH1 0x40 PUSH0 KECCAK256 PUSH0 SWAP2 POP SWAP1 POP SLOAD DUP2 JUMP JUMPDEST PUSH1 0x60 PUSH0 PUSH1 0x3 PUSH0 DUP8 PUSH4 0xFFFFFFFF AND PUSH4 0xFFFFFFFF AND DUP2 MSTORE PUSH1 0x20 ADD SWAP1 DUP2 MSTORE PUSH1 0x20 ADD PUSH0 KECCAK256 PUSH0 DUP7 PUSH2 0xFFFF AND PUSH2 0xFFFF AND DUP2 MSTORE PUSH1 0x20 ADD SWAP1 DUP2 MSTORE PUSH1 0x20 ADD PUSH0 KECCAK256 DUP1 SLOAD PUSH2 0x1252 SWAP1 PUSH2 0x3DD6 JUMP JUMPDEST DUP1 PUSH1 0x1F ADD PUSH1 0x20 DUP1 SWAP2 DIV MUL PUSH1 0x20 ADD PUSH1 0x40 MLOAD SWAP1 DUP2 ADD PUSH1 0x40 MSTORE DUP1 SWAP3 SWAP2 SWAP1 DUP2 DUP2 MSTORE PUSH1 0x20 ADD DUP3 DUP1 SLOAD PUSH2 0x127E SWAP1 PUSH2 0x3DD6 JUMP JUMPDEST DUP1 ISZERO PUSH2 0x12C9 JUMPI DUP1 PUSH1 0x1F LT PUSH2 0x12A0 JUMPI PUSH2 0x100 DUP1 DUP4 SLOAD DIV MUL DUP4 MSTORE SWAP2 PUSH1 0x20 ADD SWAP2 PUSH2 0x12C9 JUMP JUMPDEST DUP3 ADD SWAP2 SWAP1 PUSH0 MSTORE PUSH1 0x20 PUSH0 KECCAK256 SWAP1 JUMPDEST DUP2 SLOAD DUP2 MSTORE SWAP1 PUSH1 0x1 ADD SWAP1 PUSH1 0x20 ADD DUP1 DUP4 GT PUSH2 0x12AC JUMPI DUP3 SWAP1 SUB PUSH1 0x1F AND DUP3 ADD SWAP2 JUMPDEST POP POP POP POP POP SWAP1 POP PUSH0 DUP2 MLOAD SUB PUSH2 0x1324 JUMPI DUP4 DUP4 DUP1 DUP1 PUSH1 0x1F ADD PUSH1 0x20 DUP1 SWAP2 DIV MUL PUSH1 0x20 ADD PUSH1 0x40 MLOAD SWAP1 DUP2 ADD PUSH1 0x40 MSTORE DUP1 SWAP4 SWAP3 SWAP2 SWAP1 DUP2 DUP2 MSTORE PUSH1 0x20 ADD DUP4 DUP4 DUP1 DUP3 DUP5 CALLDATACOPY PUSH0 DUP2 DUP5 ADD MSTORE PUSH1 0x1F NOT PUSH1 0x1F DUP3 ADD AND SWAP1 POP DUP1 DUP4 ADD SWAP3 POP POP POP POP POP POP POP SWAP2 POP POP PUSH2 0x140A JUMP JUMPDEST PUSH0 DUP5 DUP5 SWAP1 POP SUB PUSH2 0x1337 JUMPI DUP1 SWAP2 POP POP PUSH2 0x140A JUMP JUMPDEST PUSH1 0x2 DUP5 DUP5 SWAP1 POP LT PUSH2 0x13CB JUMPI PUSH2 0x138E DUP5 DUP5 DUP1 DUP1 PUSH1 0x1F ADD PUSH1 0x20 DUP1 SWAP2 DIV MUL PUSH1 0x20 ADD PUSH1 0x40 MLOAD SWAP1 DUP2 ADD PUSH1 0x40 MSTORE DUP1 SWAP4 SWAP3 SWAP2 SWAP1 DUP2 DUP2 MSTORE PUSH1 0x20 ADD DUP4 DUP4 DUP1 DUP3 DUP5 CALLDATACOPY PUSH0 DUP2 DUP5 ADD MSTORE PUSH1 0x1F NOT PUSH1 0x1F DUP3 ADD AND SWAP1 POP DUP1 DUP4 ADD SWAP3 POP POP POP POP POP POP POP PUSH2 0x2203 JUMP JUMPDEST DUP1 DUP5 DUP5 PUSH1 0x2 SWAP1 DUP1 SWAP3 PUSH2 0x13A2 SWAP4 SWAP3 SWAP2 SWAP1 PUSH2 0x4134 JUMP JUMPDEST PUSH1 0x40 MLOAD PUSH1 0x20 ADD PUSH2 0x13B4 SWAP4 SWAP3 SWAP2 SWAP1 PUSH2 0x41CC JUMP JUMPDEST PUSH1 0x40 MLOAD PUSH1 0x20 DUP2 DUP4 SUB SUB DUP2 MSTORE SWAP1 PUSH1 0x40 MSTORE SWAP2 POP POP PUSH2 0x140A JUMP JUMPDEST DUP4 DUP4 PUSH1 0x40 MLOAD PUSH32 0x9A6D49CD00000000000000000000000000000000000000000000000000000000 DUP2 MSTORE PUSH1 0x4 ADD PUSH2 0x1401 SWAP3 SWAP2 SWAP1 PUSH2 0x421D JUMP JUMPDEST PUSH1 0x40 MLOAD DUP1 SWAP2 SUB SWAP1 REVERT JUMPDEST SWAP5 SWAP4 POP POP POP POP JUMP JUMPDEST PUSH0 JUMPDEST DUP3 DUP3 SWAP1 POP DUP2 LT ISZERO PUSH2 0x1531 JUMPI CALLDATASIZE DUP4 DUP4 DUP4 DUP2 DUP2 LT PUSH2 0x1433 JUMPI PUSH2 0x1432 PUSH2 0x423F JUMP JUMPDEST JUMPDEST SWAP1 POP PUSH1 0x20 MUL DUP2 ADD SWAP1 PUSH2 0x1445 SWAP2 SWAP1 PUSH2 0x4278 JUMP JUMPDEST SWAP1 POP PUSH2 0x146A DUP2 PUSH0 ADD PUSH0 ADD PUSH1 0x20 DUP2 ADD SWAP1 PUSH2 0x145E SWAP2 SWAP1 PUSH2 0x3AA0 JUMP JUMPDEST DUP3 PUSH0 ADD PUSH1 0x20 ADD CALLDATALOAD PUSH2 0xF43 JUMP JUMPDEST PUSH2 0x1474 JUMPI POP PUSH2 0x1524 JUMP JUMPDEST ADDRESS PUSH20 0xFFFFFFFFFFFFFFFFFFFFFFFFFFFFFFFFFFFFFFFF AND PUSH4 0xD045A0DC DUP3 PUSH1 0xC0 ADD CALLDATALOAD DUP4 PUSH0 ADD DUP5 PUSH1 0xA0 ADD CALLDATALOAD DUP6 DUP1 PUSH2 0x100 ADD SWAP1 PUSH2 0x14AE SWAP2 SWAP1 PUSH2 0x42A0 JUMP JUMPDEST DUP8 PUSH1 0xE0 ADD PUSH1 0x20 DUP2 ADD SWAP1 PUSH2 0x14C1 SWAP2 SWAP1 PUSH2 0x394B JUMP JUMPDEST DUP9 DUP1 PUSH2 0x120 ADD SWAP1 PUSH2 0x14D2 SWAP2 SWAP1 PUSH2 0x42A0 JUMP JUMPDEST PUSH1 0x40 MLOAD DUP10 PUSH4 0xFFFFFFFF AND PUSH1 0xE0 SHL DUP2 MSTORE PUSH1 0x4 ADD PUSH2 0x14F4 SWAP8 SWAP7 SWAP6 SWAP5 SWAP4 SWAP3 SWAP2 SWAP1 PUSH2 0x43D5 JUMP JUMPDEST PUSH0 PUSH1 0x40 MLOAD DUP1 DUP4 SUB DUP2 DUP6 DUP9 DUP1 EXTCODESIZE ISZERO DUP1 ISZERO PUSH2 0x150B JUMPI PUSH0 DUP1 REVERT JUMPDEST POP GAS CALL ISZERO DUP1 ISZERO PUSH2 0x151D JUMPI RETURNDATASIZE PUSH0 DUP1 RETURNDATACOPY RETURNDATASIZE PUSH0 REVERT JUMPDEST POP POP POP POP POP POP JUMPDEST DUP1 DUP1 PUSH1 0x1 ADD SWAP2 POP POP PUSH2 0x1414 JUMP JUMPDEST POP CALLER PUSH20 0xFFFFFFFFFFFFFFFFFFFFFFFFFFFFFFFFFFFFFFFF AND PUSH4 0x8E9E7099 PUSH1 0x40 MLOAD DUP2 PUSH4 0xFFFFFFFF AND PUSH1 0xE0 SHL DUP2 MSTORE PUSH1 0x4 ADD PUSH0 PUSH1 0x40 MLOAD DUP1 DUP4 SUB DUP2 DUP7 GAS STATICCALL ISZERO DUP1 ISZERO PUSH2 0x157A JUMPI RETURNDATASIZE PUSH0 DUP1 RETURNDATACOPY RETURNDATASIZE PUSH0 REVERT JUMPDEST POP POP POP POP PUSH1 0x40 MLOAD RETURNDATASIZE PUSH0 DUP3 RETURNDATACOPY RETURNDATASIZE PUSH1 0x1F NOT PUSH1 0x1F DUP3 ADD AND DUP3 ADD DUP1 PUSH1 0x40 MSTORE POP DUP2 ADD SWAP1 PUSH2 0x15A2 SWAP2 SWAP1 PUSH2 0x44A6 JUMP JUMPDEST PUSH1 0x40 MLOAD PUSH32 0x8351EEA700000000000000000000000000000000000000000000000000000000 DUP2 MSTORE PUSH1 0x4 ADD PUSH2 0x15D5 SWAP2 SWAP1 PUSH2 0x38B7 JUMP JUMPDEST PUSH1 0x40 MLOAD DUP1 SWAP2 SUB SWAP1 REVERT JUMPDEST PUSH2 0x15E6 PUSH2 0x2F6C JUMP JUMPDEST PUSH2 0x15EE PUSH2 0x2F23 JUMP JUMPDEST PUSH2 0x15F9 DUP6 DUP6 DUP6 PUSH2 0x225C JUMP JUMPDEST SWAP2 POP SWAP2 POP SWAP4 POP SWAP4 SWAP2 POP POP JUMP JUMPDEST PUSH2 0x160D PUSH2 0x1CD5 JUMP JUMPDEST PUSH32 0x0 PUSH20 0xFFFFFFFFFFFFFFFFFFFFFFFFFFFFFFFFFFFFFFFF AND PUSH4 0xCA5EB5E1 DUP3 PUSH1 0x40 MLOAD DUP3 PUSH4 0xFFFFFFFF AND PUSH1 0xE0 SHL DUP2 MSTORE PUSH1 0x4 ADD PUSH2 0x1666 SWAP2 SWAP1 PUSH2 0x33AF JUMP JUMPDEST PUSH0 PUSH1 0x40 MLOAD DUP1 DUP4 SUB DUP2 PUSH0 DUP8 DUP1 EXTCODESIZE ISZERO DUP1 ISZERO PUSH2 0x167D JUMPI PUSH0 DUP1 REVERT JUMPDEST POP GAS CALL ISZERO DUP1 ISZERO PUSH2 0x168F JUMPI RETURNDATASIZE PUSH0 DUP1 RETURNDATACOPY RETURNDATASIZE PUSH0 REVERT JUMPDEST POP POP POP POP POP JUMP JUMPDEST ADDRESS PUSH20 0xFFFFFFFFFFFFFFFFFFFFFFFFFFFFFFFFFFFFFFFF AND CALLER PUSH20 0xFFFFFFFFFFFFFFFFFFFFFFFFFFFFFFFFFFFFFFFF AND EQ PUSH2 0x16FB JUMPI PUSH1 0x40 MLOAD PUSH32 0x14D4A4E800000000000000000000000000000000000000000000000000000000 DUP2 MSTORE PUSH1 0x4 ADD PUSH1 0x40 MLOAD DUP1 SWAP2 SUB SWAP1 REVERT JUMPDEST PUSH2 0x170A DUP8 DUP8 DUP8 DUP8 DUP8 DUP8 DUP8 PUSH2 0x2361 JUMP JUMPDEST POP POP POP POP POP POP POP JUMP JUMPDEST PUSH2 0x171B PUSH2 0x1CD5 JUMP JUMPDEST DUP1 PUSH1 0x2 PUSH0 PUSH2 0x100 EXP DUP2 SLOAD DUP2 PUSH20 0xFFFFFFFFFFFFFFFFFFFFFFFFFFFFFFFFFFFFFFFF MUL NOT AND SWAP1 DUP4 PUSH20 0xFFFFFFFFFFFFFFFFFFFFFFFFFFFFFFFFFFFFFFFF AND MUL OR SWAP1 SSTORE POP PUSH32 0xD48D879CEF83A1C0BDDA516F27B13DDB1B3F8BBAC1C9E1511BB2A659C2427760 DUP2 PUSH1 0x40 MLOAD PUSH2 0x178A SWAP2 SWAP1 PUSH2 0x33AF JUMP JUMPDEST PUSH1 0x40 MLOAD DUP1 SWAP2 SUB SWAP1 LOG1 POP JUMP JUMPDEST PUSH0 PUSH1 0x6 PUSH0 DUP5 PUSH20 0xFFFFFFFFFFFFFFFFFFFFFFFFFFFFFFFFFFFFFFFF AND PUSH20 0xFFFFFFFFFFFFFFFFFFFFFFFFFFFFFFFFFFFFFFFF AND DUP2 MSTORE PUSH1 0x20 ADD SWAP1 DUP2 MSTORE PUSH1 0x20 ADD PUSH0 KECCAK256 PUSH0 DUP4 PUSH20 0xFFFFFFFFFFFFFFFFFFFFFFFFFFFFFFFFFFFFFFFF AND PUSH20 0xFFFFFFFFFFFFFFFFFFFFFFFFFFFFFFFFFFFFFFFF AND DUP2 MSTORE PUSH1 0x20 ADD SWAP1 DUP2 MSTORE PUSH1 0x20 ADD PUSH0 KECCAK256 SLOAD SWAP1 POP SWAP3 SWAP2 POP POP JUMP JUMPDEST PUSH2 0x181F PUSH2 0x1CD5 JUMP JUMPDEST PUSH0 PUSH20 0xFFFFFFFFFFFFFFFFFFFFFFFFFFFFFFFFFFFFFFFF AND DUP2 PUSH20 0xFFFFFFFFFFFFFFFFFFFFFFFFFFFFFFFFFFFFFFFF AND SUB PUSH2 0x188F JUMPI PUSH0 PUSH1 0x40 MLOAD PUSH32 0x1E4FBDF700000000000000000000000000000000000000000000000000000000 DUP2 MSTORE PUSH1 0x4 ADD PUSH2 0x1886 SWAP2 SWAP1 PUSH2 0x33AF JUMP JUMPDEST PUSH1 0x40 MLOAD DUP1 SWAP2 SUB SWAP1 REVERT JUMPDEST PUSH2 0x1898 DUP2 PUSH2 0x202D JUMP JUMPDEST POP JUMP JUMPDEST PUSH0 ADDRESS SWAP1 POP SWAP1 JUMP JUMPDEST PUSH0 DUP2 PUSH1 0x20 ADD CALLDATALOAD PUSH1 0x1 PUSH0 DUP5 PUSH0 ADD PUSH1 0x20 DUP2 ADD SWAP1 PUSH2 0x18BD SWAP2 SWAP1 PUSH2 0x3AA0 JUMP JUMPDEST PUSH4 0xFFFFFFFF AND PUSH4 0xFFFFFFFF AND DUP2 MSTORE PUSH1 0x20 ADD SWAP1 DUP2 MSTORE PUSH1 0x20 ADD PUSH0 KECCAK256 SLOAD EQ SWAP1 POP SWAP2 SWAP1 POP JUMP JUMPDEST PUSH0 CALLER SWAP1 POP SWAP1 JUMP JUMPDEST PUSH2 0x18F3 DUP4 DUP4 DUP4 PUSH1 0x1 PUSH2 0x2379 JUMP JUMPDEST POP POP POP JUMP JUMPDEST PUSH0 DUP1 PUSH2 0x1903 DUP6 PUSH2 0x2548 JUMP JUMPDEST SWAP2 POP DUP2 SWAP1 POP DUP4 DUP2 LT ISZERO PUSH2 0x194F JUMPI DUP1 DUP5 PUSH1 0x40 MLOAD PUSH32 0x71C4EFED00000000000000000000000000000000000000000000000000000000 DUP2 MSTORE PUSH1 0x4 ADD PUSH2 0x1946 SWAP3 SWAP2 SWAP1 PUSH2 0x44ED JUMP JUMPDEST PUSH1 0x40 MLOAD DUP1 SWAP2 SUB SWAP1 REVERT JUMPDEST SWAP4 POP SWAP4 SWAP2 POP POP JUMP JUMPDEST PUSH0 DUP1 PUSH1 0x1 PUSH0 DUP5 PUSH4 0xFFFFFFFF AND PUSH4 0xFFFFFFFF AND DUP2 MSTORE PUSH1 0x20 ADD SWAP1 DUP2 MSTORE PUSH1 0x20 ADD PUSH0 KECCAK256 SLOAD SWAP1 POP PUSH0 DUP1 SHL DUP2 SUB PUSH2 0x19BF JUMPI DUP3 PUSH1 0x40 MLOAD PUSH32 0xF6FF4FB700000000000000000000000000000000000000000000000000000000 DUP2 MSTORE PUSH1 0x4 ADD PUSH2 0x19B6 SWAP2 SWAP1 PUSH2 0x4514 JUMP JUMPDEST PUSH1 0x40 MLOAD DUP1 SWAP2 SUB SWAP1 REVERT JUMPDEST DUP1 SWAP2 POP POP SWAP2 SWAP1 POP JUMP JUMPDEST PUSH0 PUSH2 0x19DB PUSH2 0x19D6 DUP8 DUP8 PUSH2 0x25A7 JUMP JUMPDEST PUSH2 0x25D1 JUMP JUMPDEST SWAP1 POP PUSH0 PUSH2 0x1A0B DUP3 PUSH2 0x19F4 PUSH2 0x19EF DUP11 DUP11 PUSH2 0x25DC JUMP JUMPDEST PUSH2 0x260D JUMP JUMPDEST DUP12 PUSH0 ADD PUSH1 0x20 DUP2 ADD SWAP1 PUSH2 0x1A06 SWAP2 SWAP1 PUSH2 0x3AA0 JUMP JUMPDEST PUSH2 0x264B JUMP JUMPDEST SWAP1 POP PUSH2 0x1A17 DUP8 DUP8 PUSH2 0x2699 JUMP JUMPDEST ISZERO PUSH2 0x1AE5 JUMPI PUSH0 PUSH2 0x1A55 DUP11 PUSH1 0x40 ADD PUSH1 0x20 DUP2 ADD SWAP1 PUSH2 0x1A33 SWAP2 SWAP1 PUSH2 0x452D JUMP JUMPDEST DUP12 PUSH0 ADD PUSH1 0x20 DUP2 ADD SWAP1 PUSH2 0x1A45 SWAP2 SWAP1 PUSH2 0x3AA0 JUMP JUMPDEST DUP5 PUSH2 0x1A50 DUP13 DUP13 PUSH2 0x26AC JUMP JUMPDEST PUSH2 0x270E JUMP JUMPDEST SWAP1 POP PUSH32 0x0 PUSH20 0xFFFFFFFFFFFFFFFFFFFFFFFFFFFFFFFFFFFFFFFF AND PUSH4 0x7CB59012 DUP5 DUP12 PUSH0 DUP6 PUSH1 0x40 MLOAD DUP6 PUSH4 0xFFFFFFFF AND PUSH1 0xE0 SHL DUP2 MSTORE PUSH1 0x4 ADD PUSH2 0x1AB6 SWAP5 SWAP4 SWAP3 SWAP2 SWAP1 PUSH2 0x4591 JUMP JUMPDEST PUSH0 PUSH1 0x40 MLOAD DUP1 DUP4 SUB DUP2 PUSH0 DUP8 DUP1 EXTCODESIZE ISZERO DUP1 ISZERO PUSH2 0x1ACD JUMPI PUSH0 DUP1 REVERT JUMPDEST POP GAS CALL ISZERO DUP1 ISZERO PUSH2 0x1ADF JUMPI RETURNDATASIZE PUSH0 DUP1 RETURNDATACOPY RETURNDATASIZE PUSH0 REVERT JUMPDEST POP POP POP POP POP JUMPDEST DUP2 PUSH20 0xFFFFFFFFFFFFFFFFFFFFFFFFFFFFFFFFFFFFFFFF AND DUP9 PUSH32 0xEFED6D3500546B29533B128A29E3A94D70788727F0507505AC12EAF2E578FD9C DUP12 PUSH0 ADD PUSH1 0x20 DUP2 ADD SWAP1 PUSH2 0x1B30 SWAP2 SWAP1 PUSH2 0x3AA0 JUMP JUMPDEST DUP5 PUSH1 0x40 MLOAD PUSH2 0x1B3F SWAP3 SWAP2 SWAP1 PUSH2 0x45DB JUMP JUMPDEST PUSH1 0x40 MLOAD DUP1 SWAP2 SUB SWAP1 LOG3 POP POP POP POP POP POP POP POP POP JUMP JUMPDEST PUSH0 PUSH2 0x1B5D DUP5 DUP5 PUSH2 0x1795 JUMP JUMPDEST SWAP1 POP PUSH32 0xFFFFFFFFFFFFFFFFFFFFFFFFFFFFFFFFFFFFFFFFFFFFFFFFFFFFFFFFFFFFFFFF DUP2 LT ISZERO PUSH2 0x1BDF JUMPI DUP2 DUP2 LT ISZERO PUSH2 0x1BD0 JUMPI DUP3 DUP2 DUP4 PUSH1 0x40 MLOAD PUSH32 0xFB8F41B200000000000000000000000000000000000000000000000000000000 DUP2 MSTORE PUSH1 0x4 ADD PUSH2 0x1BC7 SWAP4 SWAP3 SWAP2 SWAP1 PUSH2 0x4602 JUMP JUMPDEST PUSH1 0x40 MLOAD DUP1 SWAP2 SUB SWAP1 REVERT JUMPDEST PUSH2 0x1BDE DUP5 DUP5 DUP5 DUP5 SUB PUSH0 PUSH2 0x2379 JUMP JUMPDEST JUMPDEST POP POP POP POP JUMP JUMPDEST PUSH0 PUSH20 0xFFFFFFFFFFFFFFFFFFFFFFFFFFFFFFFFFFFFFFFF AND DUP4 PUSH20 0xFFFFFFFFFFFFFFFFFFFFFFFFFFFFFFFFFFFFFFFF AND SUB PUSH2 0x1C55 JUMPI PUSH0 PUSH1 0x40 MLOAD PUSH32 0x96C6FD1E00000000000000000000000000000000000000000000000000000000 DUP2 MSTORE PUSH1 0x4 ADD PUSH2 0x1C4C SWAP2 SWAP1 PUSH2 0x33AF JUMP JUMPDEST PUSH1 0x40 MLOAD DUP1 SWAP2 SUB SWAP1 REVERT JUMPDEST PUSH0 PUSH20 0xFFFFFFFFFFFFFFFFFFFFFFFFFFFFFFFFFFFFFFFF AND DUP3 PUSH20 0xFFFFFFFFFFFFFFFFFFFFFFFFFFFFFFFFFFFFFFFF AND SUB PUSH2 0x1CC5 JUMPI PUSH0 PUSH1 0x40 MLOAD PUSH32 0xEC442F0500000000000000000000000000000000000000000000000000000000 DUP2 MSTORE PUSH1 0x4 ADD PUSH2 0x1CBC SWAP2 SWAP1 PUSH2 0x33AF JUMP JUMPDEST PUSH1 0x40 MLOAD DUP1 SWAP2 SUB SWAP1 REVERT JUMPDEST PUSH2 0x1CD0 DUP4 DUP4 DUP4 PUSH2 0x2740 JUMP JUMPDEST POP POP POP JUMP JUMPDEST PUSH2 0x1CDD PUSH2 0x18DF JUMP JUMPDEST PUSH20 0xFFFFFFFFFFFFFFFFFFFFFFFFFFFFFFFFFFFFFFFF AND PUSH2 0x1CFB PUSH2 0x10B4 JUMP JUMPDEST PUSH20 0xFFFFFFFFFFFFFFFFFFFFFFFFFFFFFFFFFFFFFFFF AND EQ PUSH2 0x1D5A JUMPI PUSH2 0x1D1E PUSH2 0x18DF JUMP JUMPDEST PUSH1 0x40 MLOAD PUSH32 0x118CDAA700000000000000000000000000000000000000000000000000000000 DUP2 MSTORE PUSH1 0x4 ADD PUSH2 0x1D51 SWAP2 SWAP1 PUSH2 0x33AF JUMP JUMPDEST PUSH1 0x40 MLOAD DUP1 SWAP2 SUB SWAP1 REVERT JUMPDEST JUMP JUMPDEST DUP1 PUSH1 0x1 PUSH0 DUP5 PUSH4 0xFFFFFFFF AND PUSH4 0xFFFFFFFF AND DUP2 MSTORE PUSH1 0x20 ADD SWAP1 DUP2 MSTORE PUSH1 0x20 ADD PUSH0 KECCAK256 DUP2 SWAP1 SSTORE POP PUSH32 0x238399D427B947898EDB290F5FF0F9109849B1C3BA196A42E35F00C50A54B98B DUP3 DUP3 PUSH1 0x40 MLOAD PUSH2 0x1DAF SWAP3 SWAP2 SWAP1 PUSH2 0x3EC0 JUMP JUMPDEST PUSH1 0x40 MLOAD DUP1 SWAP2 SUB SWAP1 LOG1 POP POP JUMP JUMPDEST PUSH1 0x60 DUP1 PUSH0 PUSH2 0x1E27 DUP6 PUSH1 0x20 ADD CALLDATALOAD PUSH2 0x1DD0 DUP7 PUSH2 0x295C JUMP JUMPDEST DUP8 DUP1 PUSH1 0xA0 ADD SWAP1 PUSH2 0x1DE0 SWAP2 SWAP1 PUSH2 0x42A0 JUMP JUMPDEST DUP1 DUP1 PUSH1 0x1F ADD PUSH1 0x20 DUP1 SWAP2 DIV MUL PUSH1 0x20 ADD PUSH1 0x40 MLOAD SWAP1 DUP2 ADD PUSH1 0x40 MSTORE DUP1 SWAP4 SWAP3 SWAP2 SWAP1 DUP2 DUP2 MSTORE PUSH1 0x20 ADD DUP4 DUP4 DUP1 DUP3 DUP5 CALLDATACOPY PUSH0 DUP2 DUP5 ADD MSTORE PUSH1 0x1F NOT PUSH1 0x1F DUP3 ADD AND SWAP1 POP DUP1 DUP4 ADD SWAP3 POP POP POP POP POP POP POP PUSH2 0x2990 JUMP JUMPDEST DUP1 SWAP3 POP DUP2 SWAP5 POP POP POP PUSH0 DUP2 PUSH2 0x1E3C JUMPI PUSH1 0x1 PUSH2 0x1E3F JUMP JUMPDEST PUSH1 0x2 JUMPDEST SWAP1 POP PUSH2 0x1E6C DUP7 PUSH0 ADD PUSH1 0x20 DUP2 ADD SWAP1 PUSH2 0x1E56 SWAP2 SWAP1 PUSH2 0x3AA0 JUMP JUMPDEST DUP3 DUP9 DUP1 PUSH1 0x80 ADD SWAP1 PUSH2 0x1E67 SWAP2 SWAP1 PUSH2 0x42A0 JUMP JUMPDEST PUSH2 0x1210 JUMP JUMPDEST SWAP3 POP PUSH0 PUSH1 0x4 PUSH0 SWAP1 SLOAD SWAP1 PUSH2 0x100 EXP SWAP1 DIV PUSH20 0xFFFFFFFFFFFFFFFFFFFFFFFFFFFFFFFFFFFFFFFF AND SWAP1 POP PUSH0 PUSH20 0xFFFFFFFFFFFFFFFFFFFFFFFFFFFFFFFFFFFFFFFF AND DUP2 PUSH20 0xFFFFFFFFFFFFFFFFFFFFFFFFFFFFFFFFFFFFFFFF AND EQ PUSH2 0x1F42 JUMPI DUP1 PUSH20 0xFFFFFFFFFFFFFFFFFFFFFFFFFFFFFFFFFFFFFFFF AND PUSH4 0x43A78EB DUP7 DUP7 PUSH1 0x40 MLOAD DUP4 PUSH4 0xFFFFFFFF AND PUSH1 0xE0 SHL DUP2 MSTORE PUSH1 0x4 ADD PUSH2 0x1F01 SWAP3 SWAP2 SWAP1 PUSH2 0x4637 JUMP JUMPDEST PUSH1 0x20 PUSH1 0x40 MLOAD DUP1 DUP4 SUB DUP2 DUP7 GAS STATICCALL ISZERO DUP1 ISZERO PUSH2 0x1F1C JUMPI RETURNDATASIZE PUSH0 DUP1 RETURNDATACOPY RETURNDATASIZE PUSH0 REVERT JUMPDEST POP POP POP POP PUSH1 0x40 MLOAD RETURNDATASIZE PUSH1 0x1F NOT PUSH1 0x1F DUP3 ADD AND DUP3 ADD DUP1 PUSH1 0x40 MSTORE POP DUP2 ADD SWAP1 PUSH2 0x1F40 SWAP2 SWAP1 PUSH2 0x4680 JUMP JUMPDEST POP JUMPDEST POP POP POP SWAP3 POP SWAP3 SWAP1 POP JUMP JUMPDEST PUSH2 0x1F54 PUSH2 0x2F54 JUMP JUMPDEST PUSH32 0x0 PUSH20 0xFFFFFFFFFFFFFFFFFFFFFFFFFFFFFFFFFFFFFFFF AND PUSH4 0xDDC28C58 PUSH1 0x40 MLOAD DUP1 PUSH1 0xA0 ADD PUSH1 0x40 MSTORE DUP1 DUP9 PUSH4 0xFFFFFFFF AND DUP2 MSTORE PUSH1 0x20 ADD PUSH2 0x1FB0 DUP10 PUSH2 0x1957 JUMP JUMPDEST DUP2 MSTORE PUSH1 0x20 ADD DUP8 DUP2 MSTORE PUSH1 0x20 ADD DUP7 DUP2 MSTORE PUSH1 0x20 ADD DUP6 ISZERO ISZERO DUP2 MSTORE POP ADDRESS PUSH1 0x40 MLOAD DUP4 PUSH4 0xFFFFFFFF AND PUSH1 0xE0 SHL DUP2 MSTORE PUSH1 0x4 ADD PUSH2 0x1FE5 SWAP3 SWAP2 SWAP1 PUSH2 0x477C JUMP JUMPDEST PUSH1 0x40 DUP1 MLOAD DUP1 DUP4 SUB DUP2 DUP7 GAS STATICCALL ISZERO DUP1 ISZERO PUSH2 0x1FFF JUMPI RETURNDATASIZE PUSH0 DUP1 RETURNDATACOPY RETURNDATASIZE PUSH0 REVERT JUMPDEST POP POP POP POP PUSH1 0x40 MLOAD RETURNDATASIZE PUSH1 0x1F NOT PUSH1 0x1F DUP3 ADD AND DUP3 ADD DUP1 PUSH1 0x40 MSTORE POP DUP2 ADD SWAP1 PUSH2 0x2023 SWAP2 SWAP1 PUSH2 0x47F7 JUMP JUMPDEST SWAP1 POP SWAP5 SWAP4 POP POP POP POP JUMP JUMPDEST PUSH0 DUP1 PUSH0 SWAP1 SLOAD SWAP1 PUSH2 0x100 EXP SWAP1 DIV PUSH20 0xFFFFFFFFFFFFFFFFFFFFFFFFFFFFFFFFFFFFFFFF AND SWAP1 POP DUP2 PUSH0 DUP1 PUSH2 0x100 EXP DUP2 SLOAD DUP2 PUSH20 0xFFFFFFFFFFFFFFFFFFFFFFFFFFFFFFFFFFFFFFFF MUL NOT AND SWAP1 DUP4 PUSH20 0xFFFFFFFFFFFFFFFFFFFFFFFFFFFFFFFFFFFFFFFF AND MUL OR SWAP1 SSTORE POP DUP2 PUSH20 0xFFFFFFFFFFFFFFFFFFFFFFFFFFFFFFFFFFFFFFFF AND DUP2 PUSH20 0xFFFFFFFFFFFFFFFFFFFFFFFFFFFFFFFFFFFFFFFF AND PUSH32 0x8BE0079C531659141344CD1FD0A4F28419497F9722A3DAAFE3B4186F6B6457E0 PUSH1 0x40 MLOAD PUSH1 0x40 MLOAD DUP1 SWAP2 SUB SWAP1 LOG3 POP POP JUMP JUMPDEST PUSH0 JUMPDEST DUP2 MLOAD DUP2 LT ISZERO PUSH2 0x21C8 JUMPI PUSH2 0x2120 DUP3 DUP3 DUP2 MLOAD DUP2 LT PUSH2 0x210F JUMPI PUSH2 0x210E PUSH2 0x423F JUMP JUMPDEST JUMPDEST PUSH1 0x20 MUL PUSH1 0x20 ADD ADD MLOAD PUSH1 0x40 ADD MLOAD PUSH2 0x2203 JUMP JUMPDEST DUP2 DUP2 DUP2 MLOAD DUP2 LT PUSH2 0x2133 JUMPI PUSH2 0x2132 PUSH2 0x423F JUMP JUMPDEST JUMPDEST PUSH1 0x20 MUL PUSH1 0x20 ADD ADD MLOAD PUSH1 0x40 ADD MLOAD PUSH1 0x3 PUSH0 DUP5 DUP5 DUP2 MLOAD DUP2 LT PUSH2 0x2155 JUMPI PUSH2 0x2154 PUSH2 0x423F JUMP JUMPDEST JUMPDEST PUSH1 0x20 MUL PUSH1 0x20 ADD ADD MLOAD PUSH0 ADD MLOAD PUSH4 0xFFFFFFFF AND PUSH4 0xFFFFFFFF AND DUP2 MSTORE PUSH1 0x20 ADD SWAP1 DUP2 MSTORE PUSH1 0x20 ADD PUSH0 KECCAK256 PUSH0 DUP5 DUP5 DUP2 MLOAD DUP2 LT PUSH2 0x218D JUMPI PUSH2 0x218C PUSH2 0x423F JUMP JUMPDEST JUMPDEST PUSH1 0x20 MUL PUSH1 0x20 ADD ADD MLOAD PUSH1 0x20 ADD MLOAD PUSH2 0xFFFF AND PUSH2 0xFFFF AND DUP2 MSTORE PUSH1 0x20 ADD SWAP1 DUP2 MSTORE PUSH1 0x20 ADD PUSH0 KECCAK256 SWAP1 DUP2 PUSH2 0x21BA SWAP2 SWAP1 PUSH2 0x49B6 JUMP JUMPDEST POP DUP1 DUP1 PUSH1 0x1 ADD SWAP2 POP POP PUSH2 0x20F0 JUMP JUMPDEST POP PUSH32 0xBE4864A8E820971C0247F5992E2DA559595F7BF076A21CB5928D443D2A13B674 DUP2 PUSH1 0x40 MLOAD PUSH2 0x21F8 SWAP2 SWAP1 PUSH2 0x4B9C JUMP JUMPDEST PUSH1 0x40 MLOAD DUP1 SWAP2 SUB SWAP1 LOG1 POP JUMP JUMPDEST PUSH0 PUSH1 0x2 DUP3 ADD MLOAD SWAP1 POP PUSH1 0x3 PUSH2 0xFFFF AND DUP2 PUSH2 0xFFFF AND EQ PUSH2 0x2258 JUMPI DUP2 PUSH1 0x40 MLOAD PUSH32 0x9A6D49CD00000000000000000000000000000000000000000000000000000000 DUP2 MSTORE PUSH1 0x4 ADD PUSH2 0x224F SWAP2 SWAP1 PUSH2 0x38B7 JUMP JUMPDEST PUSH1 0x40 MLOAD DUP1 SWAP2 SUB SWAP1 REVERT JUMPDEST POP POP JUMP JUMPDEST PUSH2 0x2264 PUSH2 0x2F6C JUMP JUMPDEST PUSH2 0x226C PUSH2 0x2F23 JUMP JUMPDEST PUSH0 DUP1 PUSH2 0x2293 CALLER DUP9 PUSH1 0x40 ADD CALLDATALOAD DUP10 PUSH1 0x60 ADD CALLDATALOAD DUP11 PUSH0 ADD PUSH1 0x20 DUP2 ADD SWAP1 PUSH2 0x228E SWAP2 SWAP1 PUSH2 0x3AA0 JUMP JUMPDEST PUSH2 0x29FE JUMP JUMPDEST SWAP2 POP SWAP2 POP PUSH0 DUP1 PUSH2 0x22A3 DUP10 DUP5 PUSH2 0x1DBB JUMP JUMPDEST SWAP2 POP SWAP2 POP PUSH2 0x22D5 DUP10 PUSH0 ADD PUSH1 0x20 DUP2 ADD SWAP1 PUSH2 0x22BC SWAP2 SWAP1 PUSH2 0x3AA0 JUMP JUMPDEST DUP4 DUP4 DUP12 DUP1 CALLDATASIZE SUB DUP2 ADD SWAP1 PUSH2 0x22CF SWAP2 SWAP1 PUSH2 0x4C09 JUMP JUMPDEST DUP12 PUSH2 0x2A26 JUMP JUMPDEST SWAP6 POP PUSH1 0x40 MLOAD DUP1 PUSH1 0x40 ADD PUSH1 0x40 MSTORE DUP1 DUP6 DUP2 MSTORE PUSH1 0x20 ADD DUP5 DUP2 MSTORE POP SWAP5 POP CALLER PUSH20 0xFFFFFFFFFFFFFFFFFFFFFFFFFFFFFFFFFFFFFFFF AND DUP7 PUSH0 ADD MLOAD PUSH32 0x85496B760A4B7F8D66384B9DF21B381F5D1B1E79F229A47AAF4C232EDC2FE59A DUP12 PUSH0 ADD PUSH1 0x20 DUP2 ADD SWAP1 PUSH2 0x233C SWAP2 SWAP1 PUSH2 0x3AA0 JUMP JUMPDEST DUP8 DUP8 PUSH1 0x40 MLOAD PUSH2 0x234D SWAP4 SWAP3 SWAP2 SWAP1 PUSH2 0x4C34 JUMP JUMPDEST PUSH1 0x40 MLOAD DUP1 SWAP2 SUB SWAP1 LOG3 POP POP POP POP SWAP4 POP SWAP4 SWAP2 POP POP JUMP JUMPDEST PUSH2 0x2370 DUP8 DUP8 DUP8 DUP8 DUP8 DUP8 DUP8 PUSH2 0x19C8 JUMP JUMPDEST POP POP POP POP POP POP POP JUMP JUMPDEST PUSH0 PUSH20 0xFFFFFFFFFFFFFFFFFFFFFFFFFFFFFFFFFFFFFFFF AND DUP5 PUSH20 0xFFFFFFFFFFFFFFFFFFFFFFFFFFFFFFFFFFFFFFFF AND SUB PUSH2 0x23E9 JUMPI PUSH0 PUSH1 0x40 MLOAD PUSH32 0xE602DF0500000000000000000000000000000000000000000000000000000000 DUP2 MSTORE PUSH1 0x4 ADD PUSH2 0x23E0 SWAP2 SWAP1 PUSH2 0x33AF JUMP JUMPDEST PUSH1 0x40 MLOAD DUP1 SWAP2 SUB SWAP1 REVERT JUMPDEST PUSH0 PUSH20 0xFFFFFFFFFFFFFFFFFFFFFFFFFFFFFFFFFFFFFFFF AND DUP4 PUSH20 0xFFFFFFFFFFFFFFFFFFFFFFFFFFFFFFFFFFFFFFFF AND SUB PUSH2 0x2459 JUMPI PUSH0 PUSH1 0x40 MLOAD PUSH32 0x94280D6200000000000000000000000000000000000000000000000000000000 DUP2 MSTORE PUSH1 0x4 ADD PUSH2 0x2450 SWAP2 SWAP1 PUSH2 0x33AF JUMP JUMPDEST PUSH1 0x40 MLOAD DUP1 SWAP2 SUB SWAP1 REVERT JUMPDEST DUP2 PUSH1 0x6 PUSH0 DUP7 PUSH20 0xFFFFFFFFFFFFFFFFFFFFFFFFFFFFFFFFFFFFFFFF AND PUSH20 0xFFFFFFFFFFFFFFFFFFFFFFFFFFFFFFFFFFFFFFFF AND DUP2 MSTORE PUSH1 0x20 ADD SWAP1 DUP2 MSTORE PUSH1 0x20 ADD PUSH0 KECCAK256 PUSH0 DUP6 PUSH20 0xFFFFFFFFFFFFFFFFFFFFFFFFFFFFFFFFFFFFFFFF AND PUSH20 0xFFFFFFFFFFFFFFFFFFFFFFFFFFFFFFFFFFFFFFFF AND DUP2 MSTORE PUSH1 0x20 ADD SWAP1 DUP2 MSTORE PUSH1 0x20 ADD PUSH0 KECCAK256 DUP2 SWAP1 SSTORE POP DUP1 ISZERO PUSH2 0x2542 JUMPI DUP3 PUSH20 0xFFFFFFFFFFFFFFFFFFFFFFFFFFFFFFFFFFFFFFFF AND DUP5 PUSH20 0xFFFFFFFFFFFFFFFFFFFFFFFFFFFFFFFFFFFFFFFF AND PUSH32 0x8C5BE1E5EBEC7D5BD14F71427D1E84F3DD0314C0F7B2291E5B200AC8C7C3B925 DUP5 PUSH1 0x40 MLOAD PUSH2 0x2539 SWAP2 SWAP1 PUSH2 0x361F JUMP JUMPDEST PUSH1 0x40 MLOAD DUP1 SWAP2 SUB SWAP1 LOG3 JUMPDEST POP POP POP POP JUMP JUMPDEST PUSH0 PUSH32 0x0 PUSH32 0x0 DUP4 PUSH2 0x2596 SWAP2 SWAP1 PUSH2 0x4CC3 JUMP JUMPDEST PUSH2 0x25A0 SWAP2 SWAP1 PUSH2 0x4CF3 JUMP JUMPDEST SWAP1 POP SWAP2 SWAP1 POP JUMP JUMPDEST PUSH0 DUP3 DUP3 PUSH0 SWAP1 PUSH1 0x20 PUSH1 0xFF AND SWAP3 PUSH2 0x25BE SWAP4 SWAP3 SWAP2 SWAP1 PUSH2 0x4134 JUMP JUMPDEST SWAP1 PUSH2 0x25C9 SWAP2 SWAP1 PUSH2 0x4D3E JUMP JUMPDEST SWAP1 POP SWAP3 SWAP2 POP POP JUMP JUMPDEST PUSH0 DUP2 PUSH0 SHR SWAP1 POP SWAP2 SWAP1 POP JUMP JUMPDEST PUSH0 DUP3 DUP3 PUSH1 0x20 PUSH1 0xFF AND SWAP1 PUSH1 0x28 PUSH1 0xFF AND SWAP3 PUSH2 0x25F7 SWAP4 SWAP3 SWAP2 SWAP1 PUSH2 0x4134 JUMP JUMPDEST SWAP1 PUSH2 0x2602 SWAP2 SWAP1 PUSH2 0x4DC7 JUMP JUMPDEST PUSH1 0xC0 SHR SWAP1 POP SWAP3 SWAP2 POP POP JUMP JUMPDEST PUSH0 PUSH32 0x0 DUP3 PUSH8 0xFFFFFFFFFFFFFFFF AND PUSH2 0x2644 SWAP2 SWAP1 PUSH2 0x4CF3 JUMP JUMPDEST SWAP1 POP SWAP2 SWAP1 POP JUMP JUMPDEST PUSH0 DUP1 PUSH20 0xFFFFFFFFFFFFFFFFFFFFFFFFFFFFFFFFFFFFFFFF AND DUP5 PUSH20 0xFFFFFFFFFFFFFFFFFFFFFFFFFFFFFFFFFFFFFFFF AND SUB PUSH2 0x2685 JUMPI PUSH2 0xDEAD SWAP4 POP JUMPDEST PUSH2 0x268F DUP5 DUP5 PUSH2 0x2B3C JUMP JUMPDEST DUP3 SWAP1 POP SWAP4 SWAP3 POP POP POP JUMP JUMPDEST PUSH0 PUSH1 0x28 PUSH1 0xFF AND DUP4 DUP4 SWAP1 POP GT SWAP1 POP SWAP3 SWAP2 POP POP JUMP JUMPDEST PUSH1 0x60 DUP3 DUP3 PUSH1 0x28 PUSH1 0xFF AND SWAP1 DUP1 SWAP3 PUSH2 0x26C4 SWAP4 SWAP3 SWAP2 SWAP1 PUSH2 0x4134 JUMP JUMPDEST DUP1 DUP1 PUSH1 0x1F ADD PUSH1 0x20 DUP1 SWAP2 DIV MUL PUSH1 0x20 ADD PUSH1 0x40 MLOAD SWAP1 DUP2 ADD PUSH1 0x40 MSTORE DUP1 SWAP4 SWAP3 SWAP2 SWAP1 DUP2 DUP2 MSTORE PUSH1 0x20 ADD DUP4 DUP4 DUP1 DUP3 DUP5 CALLDATACOPY PUSH0 DUP2 DUP5 ADD MSTORE PUSH1 0x1F NOT PUSH1 0x1F DUP3 ADD AND SWAP1 POP DUP1 DUP4 ADD SWAP3 POP POP POP POP POP POP POP SWAP1 POP SWAP3 SWAP2 POP POP JUMP JUMPDEST PUSH1 0x60 DUP5 DUP5 DUP5 DUP5 PUSH1 0x40 MLOAD PUSH1 0x20 ADD PUSH2 0x2727 SWAP5 SWAP4 SWAP3 SWAP2 SWAP1 PUSH2 0x4EAD JUMP JUMPDEST PUSH1 0x40 MLOAD PUSH1 0x20 DUP2 DUP4 SUB SUB DUP2 MSTORE SWAP1 PUSH1 0x40 MSTORE SWAP1 POP SWAP5 SWAP4 POP POP POP POP JUMP JUMPDEST PUSH0 PUSH20 0xFFFFFFFFFFFFFFFFFFFFFFFFFFFFFFFFFFFFFFFF AND DUP4 PUSH20 0xFFFFFFFFFFFFFFFFFFFFFFFFFFFFFFFFFFFFFFFF AND SUB PUSH2 0x2790 JUMPI DUP1 PUSH1 0x7 PUSH0 DUP3 DUP3 SLOAD PUSH2 0x2784 SWAP2 SWAP1 PUSH2 0x4EF6 JUMP JUMPDEST SWAP3 POP POP DUP2 SWAP1 SSTORE POP PUSH2 0x2860 JUMP JUMPDEST PUSH0 PUSH1 0x5 PUSH0 DUP6 PUSH20 0xFFFFFFFFFFFFFFFFFFFFFFFFFFFFFFFFFFFFFFFF AND PUSH20 0xFFFFFFFFFFFFFFFFFFFFFFFFFFFFFFFFFFFFFFFF AND DUP2 MSTORE PUSH1 0x20 ADD SWAP1 DUP2 MSTORE PUSH1 0x20 ADD PUSH0 KECCAK256 SLOAD SWAP1 POP DUP2 DUP2 LT ISZERO PUSH2 0x281A JUMPI DUP4 DUP2 DUP4 PUSH1 0x40 MLOAD PUSH32 0xE450D38C00000000000000000000000000000000000000000000000000000000 DUP2 MSTORE PUSH1 0x4 ADD PUSH2 0x2811 SWAP4 SWAP3 SWAP2 SWAP1 PUSH2 0x4602 JUMP JUMPDEST PUSH1 0x40 MLOAD DUP1 SWAP2 SUB SWAP1 REVERT JUMPDEST DUP2 DUP2 SUB PUSH1 0x5 PUSH0 DUP7 PUSH20 0xFFFFFFFFFFFFFFFFFFFFFFFFFFFFFFFFFFFFFFFF AND PUSH20 0xFFFFFFFFFFFFFFFFFFFFFFFFFFFFFFFFFFFFFFFF AND DUP2 MSTORE PUSH1 0x20 ADD SWAP1 DUP2 MSTORE PUSH1 0x20 ADD PUSH0 KECCAK256 DUP2 SWAP1 SSTORE POP POP JUMPDEST PUSH0 PUSH20 0xFFFFFFFFFFFFFFFFFFFFFFFFFFFFFFFFFFFFFFFF AND DUP3 PUSH20 0xFFFFFFFFFFFFFFFFFFFFFFFFFFFFFFFFFFFFFFFF AND SUB PUSH2 0x28A7 JUMPI DUP1 PUSH1 0x7 PUSH0 DUP3 DUP3 SLOAD SUB SWAP3 POP POP DUP2 SWAP1 SSTORE POP PUSH2 0x28F2 JUMP JUMPDEST DUP1 PUSH1 0x5 PUSH0 DUP5 PUSH20 0xFFFFFFFFFFFFFFFFFFFFFFFFFFFFFFFFFFFFFFFF AND PUSH20 0xFFFFFFFFFFFFFFFFFFFFFFFFFFFFFFFFFFFFFFFF AND DUP2 MSTORE PUSH1 0x20 ADD SWAP1 DUP2 MSTORE PUSH1 0x20 ADD PUSH0 KECCAK256 PUSH0 DUP3 DUP3 SLOAD ADD SWAP3 POP POP DUP2 SWAP1 SSTORE POP JUMPDEST DUP2 PUSH20 0xFFFFFFFFFFFFFFFFFFFFFFFFFFFFFFFFFFFFFFFF AND DUP4 PUSH20 0xFFFFFFFFFFFFFFFFFFFFFFFFFFFFFFFFFFFFFFFF AND PUSH32 0xDDF252AD1BE2C89B69C2B068FC378DAA952BA7F163C4A11628F55A4DF523B3EF DUP4 PUSH1 0x40 MLOAD PUSH2 0x294F SWAP2 SWAP1 PUSH2 0x361F JUMP JUMPDEST PUSH1 0x40 MLOAD DUP1 SWAP2 SUB SWAP1 LOG3 POP POP POP JUMP JUMPDEST PUSH0 PUSH32 0x0 DUP3 PUSH2 0x2989 SWAP2 SWAP1 PUSH2 0x4CC3 JUMP JUMPDEST SWAP1 POP SWAP2 SWAP1 POP JUMP JUMPDEST PUSH1 0x60 PUSH0 DUP1 DUP4 MLOAD GT SWAP1 POP DUP1 PUSH2 0x29C5 JUMPI DUP5 DUP5 PUSH1 0x40 MLOAD PUSH1 0x20 ADD PUSH2 0x29B1 SWAP3 SWAP2 SWAP1 PUSH2 0x4F49 JUMP JUMPDEST PUSH1 0x40 MLOAD PUSH1 0x20 DUP2 DUP4 SUB SUB DUP2 MSTORE SWAP1 PUSH1 0x40 MSTORE PUSH2 0x29F4 JUMP JUMPDEST DUP5 DUP5 PUSH2 0x29D0 CALLER PUSH2 0x2BBB JUMP JUMPDEST DUP6 PUSH1 0x40 MLOAD PUSH1 0x20 ADD PUSH2 0x29E4 SWAP5 SWAP4 SWAP3 SWAP2 SWAP1 PUSH2 0x4F74 JUMP JUMPDEST PUSH1 0x40 MLOAD PUSH1 0x20 DUP2 DUP4 SUB SUB DUP2 MSTORE SWAP1 PUSH1 0x40 MSTORE JUMPDEST SWAP2 POP SWAP4 POP SWAP4 SWAP2 POP POP JUMP JUMPDEST PUSH0 DUP1 PUSH2 0x2A0B DUP6 DUP6 DUP6 PUSH2 0x18F8 JUMP JUMPDEST DUP1 SWAP3 POP DUP2 SWAP4 POP POP POP PUSH2 0x2A1D DUP7 DUP4 PUSH2 0x2BDC JUMP JUMPDEST SWAP5 POP SWAP5 SWAP3 POP POP POP JUMP JUMPDEST PUSH2 0x2A2E PUSH2 0x2F6C JUMP JUMPDEST PUSH0 PUSH2 0x2A3B DUP5 PUSH0 ADD MLOAD PUSH2 0x2C5B JUMP JUMPDEST SWAP1 POP PUSH0 DUP5 PUSH1 0x20 ADD MLOAD GT ISZERO PUSH2 0x2A57 JUMPI PUSH2 0x2A56 DUP5 PUSH1 0x20 ADD MLOAD PUSH2 0x2CA8 JUMP JUMPDEST JUMPDEST PUSH32 0x0 PUSH20 0xFFFFFFFFFFFFFFFFFFFFFFFFFFFFFFFFFFFFFFFF AND PUSH4 0x2637A450 DUP3 PUSH1 0x40 MLOAD DUP1 PUSH1 0xA0 ADD PUSH1 0x40 MSTORE DUP1 DUP12 PUSH4 0xFFFFFFFF AND DUP2 MSTORE PUSH1 0x20 ADD PUSH2 0x2AB4 DUP13 PUSH2 0x1957 JUMP JUMPDEST DUP2 MSTORE PUSH1 0x20 ADD DUP11 DUP2 MSTORE PUSH1 0x20 ADD DUP10 DUP2 MSTORE PUSH1 0x20 ADD PUSH0 DUP10 PUSH1 0x20 ADD MLOAD GT ISZERO ISZERO DUP2 MSTORE POP DUP7 PUSH1 0x40 MLOAD DUP5 PUSH4 0xFFFFFFFF AND PUSH1 0xE0 SHL DUP2 MSTORE PUSH1 0x4 ADD PUSH2 0x2AEF SWAP3 SWAP2 SWAP1 PUSH2 0x477C JUMP JUMPDEST PUSH1 0x80 PUSH1 0x40 MLOAD DUP1 DUP4 SUB DUP2 DUP6 DUP9 GAS CALL ISZERO DUP1 ISZERO PUSH2 0x2B0B JUMPI RETURNDATASIZE PUSH0 DUP1 RETURNDATACOPY RETURNDATASIZE PUSH0 REVERT JUMPDEST POP POP POP POP POP PUSH1 0x40 MLOAD RETURNDATASIZE PUSH1 0x1F NOT PUSH1 0x1F DUP3 ADD AND DUP3 ADD DUP1 PUSH1 0x40 MSTORE POP DUP2 ADD SWAP1 PUSH2 0x2B30 SWAP2 SWAP1 PUSH2 0x5046 JUMP JUMPDEST SWAP2 POP POP SWAP6 SWAP5 POP POP POP POP POP JUMP JUMPDEST PUSH0 PUSH20 0xFFFFFFFFFFFFFFFFFFFFFFFFFFFFFFFFFFFFFFFF AND DUP3 PUSH20 0xFFFFFFFFFFFFFFFFFFFFFFFFFFFFFFFFFFFFFFFF AND SUB PUSH2 0x2BAC JUMPI PUSH0 PUSH1 0x40 MLOAD PUSH32 0xEC442F0500000000000000000000000000000000000000000000000000000000 DUP2 MSTORE PUSH1 0x4 ADD PUSH2 0x2BA3 SWAP2 SWAP1 PUSH2 0x33AF JUMP JUMPDEST PUSH1 0x40 MLOAD DUP1 SWAP2 SUB SWAP1 REVERT JUMPDEST PUSH2 0x2BB7 PUSH0 DUP4 DUP4 PUSH2 0x2740 JUMP JUMPDEST POP POP JUMP JUMPDEST PUSH0 DUP2 PUSH20 0xFFFFFFFFFFFFFFFFFFFFFFFFFFFFFFFFFFFFFFFF AND PUSH0 SHL SWAP1 POP SWAP2 SWAP1 POP JUMP JUMPDEST PUSH0 PUSH20 0xFFFFFFFFFFFFFFFFFFFFFFFFFFFFFFFFFFFFFFFF AND DUP3 PUSH20 0xFFFFFFFFFFFFFFFFFFFFFFFFFFFFFFFFFFFFFFFF AND SUB PUSH2 0x2C4C JUMPI PUSH0 PUSH1 0x40 MLOAD PUSH32 0x96C6FD1E00000000000000000000000000000000000000000000000000000000 DUP2 MSTORE PUSH1 0x4 ADD PUSH2 0x2C43 SWAP2 SWAP1 PUSH2 0x33AF JUMP JUMPDEST PUSH1 0x40 MLOAD DUP1 SWAP2 SUB SWAP1 REVERT JUMPDEST PUSH2 0x2C57 DUP3 PUSH0 DUP4 PUSH2 0x2740 JUMP JUMPDEST POP POP JUMP JUMPDEST PUSH0 DUP2 CALLVALUE EQ PUSH2 0x2CA0 JUMPI CALLVALUE PUSH1 0x40 MLOAD PUSH32 0x9F70412000000000000000000000000000000000000000000000000000000000 DUP2 MSTORE PUSH1 0x4 ADD PUSH2 0x2C97 SWAP2 SWAP1 PUSH2 0x361F JUMP JUMPDEST PUSH1 0x40 MLOAD DUP1 SWAP2 SUB SWAP1 REVERT JUMPDEST DUP2 SWAP1 POP SWAP2 SWAP1 POP JUMP JUMPDEST PUSH0 PUSH32 0x0 PUSH20 0xFFFFFFFFFFFFFFFFFFFFFFFFFFFFFFFFFFFFFFFF AND PUSH4 0xE4FE1D94 PUSH1 0x40 MLOAD DUP2 PUSH4 0xFFFFFFFF AND PUSH1 0xE0 SHL DUP2 MSTORE PUSH1 0x4 ADD PUSH1 0x20 PUSH1 0x40 MLOAD DUP1 DUP4 SUB DUP2 DUP7 GAS STATICCALL ISZERO DUP1 ISZERO PUSH2 0x2D12 JUMPI RETURNDATASIZE PUSH0 DUP1 RETURNDATACOPY RETURNDATASIZE PUSH0 REVERT JUMPDEST POP POP POP POP PUSH1 0x40 MLOAD RETURNDATASIZE PUSH1 0x1F NOT PUSH1 0x1F DUP3 ADD AND DUP3 ADD DUP1 PUSH1 0x40 MSTORE POP DUP2 ADD SWAP1 PUSH2 0x2D36 SWAP2 SWAP1 PUSH2 0x3E1A JUMP JUMPDEST SWAP1 POP PUSH0 PUSH20 0xFFFFFFFFFFFFFFFFFFFFFFFFFFFFFFFFFFFFFFFF AND DUP2 PUSH20 0xFFFFFFFFFFFFFFFFFFFFFFFFFFFFFFFFFFFFFFFF AND SUB PUSH2 0x2D9D JUMPI PUSH1 0x40 MLOAD PUSH32 0x5373352A00000000000000000000000000000000000000000000000000000000 DUP2 MSTORE PUSH1 0x4 ADD PUSH1 0x40 MLOAD DUP1 SWAP2 SUB SWAP1 REVERT JUMPDEST PUSH2 0x2DEA CALLER PUSH32 0x0 DUP5 DUP5 PUSH20 0xFFFFFFFFFFFFFFFFFFFFFFFFFFFFFFFFFFFFFFFF AND PUSH2 0x2DEE SWAP1 SWAP4 SWAP3 SWAP2 SWAP1 PUSH4 0xFFFFFFFF AND JUMP JUMPDEST POP POP JUMP JUMPDEST PUSH2 0x2E6A DUP5 DUP6 PUSH20 0xFFFFFFFFFFFFFFFFFFFFFFFFFFFFFFFFFFFFFFFF AND PUSH4 0x23B872DD DUP7 DUP7 DUP7 PUSH1 0x40 MLOAD PUSH1 0x24 ADD PUSH2 0x2E23 SWAP4 SWAP3 SWAP2 SWAP1 PUSH2 0x5071 JUMP JUMPDEST PUSH1 0x40 MLOAD PUSH1 0x20 DUP2 DUP4 SUB SUB DUP2 MSTORE SWAP1 PUSH1 0x40 MSTORE SWAP2 POP PUSH1 0xE0 SHL PUSH1 0x20 DUP3 ADD DUP1 MLOAD PUSH28 0xFFFFFFFFFFFFFFFFFFFFFFFFFFFFFFFFFFFFFFFFFFFFFFFFFFFFFFFF DUP4 DUP2 DUP4 AND OR DUP4 MSTORE POP POP POP POP PUSH2 0x2E70 JUMP JUMPDEST POP POP POP POP JUMP JUMPDEST PUSH0 DUP1 PUSH1 0x20 PUSH0 DUP5 MLOAD PUSH1 0x20 DUP7 ADD PUSH0 DUP9 GAS CALL DUP1 PUSH2 0x2E8F JUMPI PUSH1 0x40 MLOAD RETURNDATASIZE PUSH0 DUP3 RETURNDATACOPY RETURNDATASIZE DUP2 REVERT JUMPDEST RETURNDATASIZE SWAP3 POP PUSH0 MLOAD SWAP2 POP POP PUSH0 DUP3 EQ PUSH2 0x2EA8 JUMPI PUSH1 0x1 DUP2 EQ ISZERO PUSH2 0x2EC3 JUMP JUMPDEST PUSH0 DUP5 PUSH20 0xFFFFFFFFFFFFFFFFFFFFFFFFFFFFFFFFFFFFFFFF AND EXTCODESIZE EQ JUMPDEST ISZERO PUSH2 0x2F05 JUMPI DUP4 PUSH1 0x40 MLOAD PUSH32 0x5274AFE700000000000000000000000000000000000000000000000000000000 DUP2 MSTORE PUSH1 0x4 ADD PUSH2 0x2EFC SWAP2 SWAP1 PUSH2 0x33AF JUMP JUMPDEST PUSH1 0x40 MLOAD DUP1 SWAP2 SUB SWAP1 REVERT JUMPDEST POP POP POP POP JUMP JUMPDEST PUSH1 0x40 MLOAD DUP1 PUSH1 0x40 ADD PUSH1 0x40 MSTORE DUP1 PUSH0 DUP2 MSTORE PUSH1 0x20 ADD PUSH0 DUP2 MSTORE POP SWAP1 JUMP JUMPDEST PUSH1 0x40 MLOAD DUP1 PUSH1 0x40 ADD PUSH1 0x40 MSTORE DUP1 PUSH0 DUP2 MSTORE PUSH1 0x20 ADD PUSH0 DUP2 MSTORE POP SWAP1 JUMP JUMPDEST PUSH1 0x40 MLOAD DUP1 PUSH1 0x40 ADD PUSH1 0x40 MSTORE DUP1 PUSH0 DUP2 MSTORE PUSH1 0x20 ADD PUSH1 0x60 DUP2 MSTORE POP SWAP1 JUMP JUMPDEST PUSH1 0x40 MLOAD DUP1 PUSH1 0x40 ADD PUSH1 0x40 MSTORE DUP1 PUSH0 DUP2 MSTORE PUSH1 0x20 ADD PUSH0 DUP2 MSTORE POP SWAP1 JUMP JUMPDEST PUSH1 0x40 MLOAD DUP1 PUSH1 0x60 ADD PUSH1 0x40 MSTORE DUP1 PUSH0 DUP1 NOT AND DUP2 MSTORE PUSH1 0x20 ADD PUSH0 PUSH8 0xFFFFFFFFFFFFFFFF AND DUP2 MSTORE PUSH1 0x20 ADD PUSH2 0x2F98 PUSH2 0x2F54 JUMP JUMPDEST DUP2 MSTORE POP SWAP1 JUMP JUMPDEST PUSH0 DUP2 MLOAD SWAP1 POP SWAP2 SWAP1 POP JUMP JUMPDEST PUSH0 DUP3 DUP3 MSTORE PUSH1 0x20 DUP3 ADD SWAP1 POP SWAP3 SWAP2 POP POP JUMP JUMPDEST DUP3 DUP2 DUP4 MCOPY PUSH0 DUP4 DUP4 ADD MSTORE POP POP POP JUMP JUMPDEST PUSH0 PUSH1 0x1F NOT PUSH1 0x1F DUP4 ADD AND SWAP1 POP SWAP2 SWAP1 POP JUMP JUMPDEST PUSH0 PUSH2 0x2FE0 DUP3 PUSH2 0x2F9E JUMP JUMPDEST PUSH2 0x2FEA DUP2 DUP6 PUSH2 0x2FA8 JUMP JUMPDEST SWAP4 POP PUSH2 0x2FFA DUP2 DUP6 PUSH1 0x20 DUP7 ADD PUSH2 0x2FB8 JUMP JUMPDEST PUSH2 0x3003 DUP2 PUSH2 0x2FC6 JUMP JUMPDEST DUP5 ADD SWAP2 POP POP SWAP3 SWAP2 POP POP JUMP JUMPDEST PUSH0 PUSH1 0x20 DUP3 ADD SWAP1 POP DUP2 DUP2 SUB PUSH0 DUP4 ADD MSTORE PUSH2 0x3026 DUP2 DUP5 PUSH2 0x2FD6 JUMP JUMPDEST SWAP1 POP SWAP3 SWAP2 POP POP JUMP JUMPDEST PUSH0 PUSH1 0x40 MLOAD SWAP1 POP SWAP1 JUMP JUMPDEST PUSH0 DUP1 REVERT JUMPDEST PUSH0 DUP1 REVERT JUMPDEST PUSH0 PUSH20 0xFFFFFFFFFFFFFFFFFFFFFFFFFFFFFFFFFFFFFFFF DUP3 AND SWAP1 POP SWAP2 SWAP1 POP JUMP JUMPDEST PUSH0 PUSH2 0x3068 DUP3 PUSH2 0x303F JUMP JUMPDEST SWAP1 POP SWAP2 SWAP1 POP JUMP JUMPDEST PUSH2 0x3078 DUP2 PUSH2 0x305E JUMP JUMPDEST DUP2 EQ PUSH2 0x3082 JUMPI PUSH0 DUP1 REVERT JUMPDEST POP JUMP JUMPDEST PUSH0 DUP2 CALLDATALOAD SWAP1 POP PUSH2 0x3093 DUP2 PUSH2 0x306F JUMP JUMPDEST SWAP3 SWAP2 POP POP JUMP JUMPDEST PUSH0 DUP2 SWAP1 POP SWAP2 SWAP1 POP JUMP JUMPDEST PUSH2 0x30AB DUP2 PUSH2 0x3099 JUMP JUMPDEST DUP2 EQ PUSH2 0x30B5 JUMPI PUSH0 DUP1 REVERT JUMPDEST POP JUMP JUMPDEST PUSH0 DUP2 CALLDATALOAD SWAP1 POP PUSH2 0x30C6 DUP2 PUSH2 0x30A2 JUMP JUMPDEST SWAP3 SWAP2 POP POP JUMP JUMPDEST PUSH0 DUP1 PUSH1 0x40 DUP4 DUP6 SUB SLT ISZERO PUSH2 0x30E2 JUMPI PUSH2 0x30E1 PUSH2 0x3037 JUMP JUMPDEST JUMPDEST PUSH0 PUSH2 0x30EF DUP6 DUP3 DUP7 ADD PUSH2 0x3085 JUMP JUMPDEST SWAP3 POP POP PUSH1 0x20 PUSH2 0x3100 DUP6 DUP3 DUP7 ADD PUSH2 0x30B8 JUMP JUMPDEST SWAP2 POP POP SWAP3 POP SWAP3 SWAP1 POP JUMP JUMPDEST PUSH0 DUP2 ISZERO ISZERO SWAP1 POP SWAP2 SWAP1 POP JUMP JUMPDEST PUSH2 0x311E DUP2 PUSH2 0x310A JUMP JUMPDEST DUP3 MSTORE POP POP JUMP JUMPDEST PUSH0 PUSH1 0x20 DUP3 ADD SWAP1 POP PUSH2 0x3137 PUSH0 DUP4 ADD DUP5 PUSH2 0x3115 JUMP JUMPDEST SWAP3 SWAP2 POP POP JUMP JUMPDEST PUSH0 DUP1 REVERT JUMPDEST PUSH0 PUSH1 0xE0 DUP3 DUP5 SUB SLT ISZERO PUSH2 0x3156 JUMPI PUSH2 0x3155 PUSH2 0x313D JUMP JUMPDEST JUMPDEST DUP2 SWAP1 POP SWAP3 SWAP2 POP POP JUMP JUMPDEST PUSH0 PUSH1 0x20 DUP3 DUP5 SUB SLT ISZERO PUSH2 0x3174 JUMPI PUSH2 0x3173 PUSH2 0x3037 JUMP JUMPDEST JUMPDEST PUSH0 DUP3 ADD CALLDATALOAD PUSH8 0xFFFFFFFFFFFFFFFF DUP2 GT ISZERO PUSH2 0x3191 JUMPI PUSH2 0x3190 PUSH2 0x303B JUMP JUMPDEST JUMPDEST PUSH2 0x319D DUP5 DUP3 DUP6 ADD PUSH2 0x3141 JUMP JUMPDEST SWAP2 POP POP SWAP3 SWAP2 POP POP JUMP JUMPDEST PUSH2 0x31AF DUP2 PUSH2 0x3099 JUMP JUMPDEST DUP3 MSTORE POP POP JUMP JUMPDEST PUSH1 0x40 DUP3 ADD PUSH0 DUP3 ADD MLOAD PUSH2 0x31C9 PUSH0 DUP6 ADD DUP3 PUSH2 0x31A6 JUMP JUMPDEST POP PUSH1 0x20 DUP3 ADD MLOAD PUSH2 0x31DC PUSH1 0x20 DUP6 ADD DUP3 PUSH2 0x31A6 JUMP JUMPDEST POP POP POP POP JUMP JUMPDEST PUSH0 DUP2 MLOAD SWAP1 POP SWAP2 SWAP1 POP JUMP JUMPDEST PUSH0 DUP3 DUP3 MSTORE PUSH1 0x20 DUP3 ADD SWAP1 POP SWAP3 SWAP2 POP POP JUMP JUMPDEST PUSH0 DUP2 SWAP1 POP PUSH1 0x20 DUP3 ADD SWAP1 POP SWAP2 SWAP1 POP JUMP JUMPDEST PUSH0 DUP2 SWAP1 POP SWAP2 SWAP1 POP JUMP JUMPDEST PUSH2 0x321D DUP2 PUSH2 0x320B JUMP JUMPDEST DUP3 MSTORE POP POP JUMP JUMPDEST PUSH0 DUP3 DUP3 MSTORE PUSH1 0x20 DUP3 ADD SWAP1 POP SWAP3 SWAP2 POP POP JUMP JUMPDEST PUSH0 PUSH2 0x323D DUP3 PUSH2 0x2F9E JUMP JUMPDEST PUSH2 0x3247 DUP2 DUP6 PUSH2 0x3223 JUMP JUMPDEST SWAP4 POP PUSH2 0x3257 DUP2 DUP6 PUSH1 0x20 DUP7 ADD PUSH2 0x2FB8 JUMP JUMPDEST PUSH2 0x3260 DUP2 PUSH2 0x2FC6 JUMP JUMPDEST DUP5 ADD SWAP2 POP POP SWAP3 SWAP2 POP POP JUMP JUMPDEST PUSH0 PUSH1 0x40 DUP4 ADD PUSH0 DUP4 ADD MLOAD PUSH2 0x3280 PUSH0 DUP7 ADD DUP3 PUSH2 0x3214 JUMP JUMPDEST POP PUSH1 0x20 DUP4 ADD MLOAD DUP5 DUP3 SUB PUSH1 0x20 DUP7 ADD MSTORE PUSH2 0x3298 DUP3 DUP3 PUSH2 0x3233 JUMP JUMPDEST SWAP2 POP POP DUP1 SWAP2 POP POP SWAP3 SWAP2 POP POP JUMP JUMPDEST PUSH0 PUSH2 0x32B0 DUP4 DUP4 PUSH2 0x326B JUMP JUMPDEST SWAP1 POP SWAP3 SWAP2 POP POP JUMP JUMPDEST PUSH0 PUSH1 0x20 DUP3 ADD SWAP1 POP SWAP2 SWAP1 POP JUMP JUMPDEST PUSH0 PUSH2 0x32CE DUP3 PUSH2 0x31E2 JUMP JUMPDEST PUSH2 0x32D8 DUP2 DUP6 PUSH2 0x31EC JUMP JUMPDEST SWAP4 POP DUP4 PUSH1 0x20 DUP3 MUL DUP6 ADD PUSH2 0x32EA DUP6 PUSH2 0x31FC JUMP JUMPDEST DUP1 PUSH0 JUMPDEST DUP6 DUP2 LT ISZERO PUSH2 0x3325 JUMPI DUP5 DUP5 SUB DUP10 MSTORE DUP2 MLOAD PUSH2 0x3306 DUP6 DUP3 PUSH2 0x32A5 JUMP JUMPDEST SWAP5 POP PUSH2 0x3311 DUP4 PUSH2 0x32B8 JUMP JUMPDEST SWAP3 POP PUSH1 0x20 DUP11 ADD SWAP10 POP POP PUSH1 0x1 DUP2 ADD SWAP1 POP PUSH2 0x32ED JUMP JUMPDEST POP DUP3 SWAP8 POP DUP8 SWAP6 POP POP POP POP POP POP SWAP3 SWAP2 POP POP JUMP JUMPDEST PUSH1 0x40 DUP3 ADD PUSH0 DUP3 ADD MLOAD PUSH2 0x334B PUSH0 DUP6 ADD DUP3 PUSH2 0x31A6 JUMP JUMPDEST POP PUSH1 0x20 DUP3 ADD MLOAD PUSH2 0x335E PUSH1 0x20 DUP6 ADD DUP3 PUSH2 0x31A6 JUMP JUMPDEST POP POP POP POP JUMP JUMPDEST PUSH0 PUSH1 0xA0 DUP3 ADD SWAP1 POP PUSH2 0x3377 PUSH0 DUP4 ADD DUP7 PUSH2 0x31B5 JUMP JUMPDEST DUP2 DUP2 SUB PUSH1 0x40 DUP4 ADD MSTORE PUSH2 0x3389 DUP2 DUP6 PUSH2 0x32C4 JUMP JUMPDEST SWAP1 POP PUSH2 0x3398 PUSH1 0x60 DUP4 ADD DUP5 PUSH2 0x3337 JUMP JUMPDEST SWAP5 SWAP4 POP POP POP POP JUMP JUMPDEST PUSH2 0x33A9 DUP2 PUSH2 0x305E JUMP JUMPDEST DUP3 MSTORE POP POP JUMP JUMPDEST PUSH0 PUSH1 0x20 DUP3 ADD SWAP1 POP PUSH2 0x33C2 PUSH0 DUP4 ADD DUP5 PUSH2 0x33A0 JUMP JUMPDEST SWAP3 SWAP2 POP POP JUMP JUMPDEST PUSH0 PUSH1 0x60 DUP3 DUP5 SUB SLT ISZERO PUSH2 0x33DD JUMPI PUSH2 0x33DC PUSH2 0x313D JUMP JUMPDEST JUMPDEST DUP2 SWAP1 POP SWAP3 SWAP2 POP POP JUMP JUMPDEST PUSH0 DUP2 SWAP1 POP SWAP2 SWAP1 POP JUMP JUMPDEST PUSH2 0x33F8 DUP2 PUSH2 0x33E6 JUMP JUMPDEST DUP2 EQ PUSH2 0x3402 JUMPI PUSH0 DUP1 REVERT JUMPDEST POP JUMP JUMPDEST PUSH0 DUP2 CALLDATALOAD SWAP1 POP PUSH2 0x3413 DUP2 PUSH2 0x33EF JUMP JUMPDEST SWAP3 SWAP2 POP POP JUMP JUMPDEST PUSH0 DUP1 REVERT JUMPDEST PUSH0 DUP1 REVERT JUMPDEST PUSH0 DUP1 REVERT JUMPDEST PUSH0 DUP1 DUP4 PUSH1 0x1F DUP5 ADD SLT PUSH2 0x343A JUMPI PUSH2 0x3439 PUSH2 0x3419 JUMP JUMPDEST JUMPDEST DUP3 CALLDATALOAD SWAP1 POP PUSH8 0xFFFFFFFFFFFFFFFF DUP2 GT ISZERO PUSH2 0x3457 JUMPI PUSH2 0x3456 PUSH2 0x341D JUMP JUMPDEST JUMPDEST PUSH1 0x20 DUP4 ADD SWAP2 POP DUP4 PUSH1 0x1 DUP3 MUL DUP4 ADD GT ISZERO PUSH2 0x3473 JUMPI PUSH2 0x3472 PUSH2 0x3421 JUMP JUMPDEST JUMPDEST SWAP3 POP SWAP3 SWAP1 POP JUMP JUMPDEST PUSH0 DUP1 PUSH0 DUP1 PUSH0 DUP1 PUSH0 PUSH1 0xE0 DUP9 DUP11 SUB SLT ISZERO PUSH2 0x3495 JUMPI PUSH2 0x3494 PUSH2 0x3037 JUMP JUMPDEST JUMPDEST PUSH0 PUSH2 0x34A2 DUP11 DUP3 DUP12 ADD PUSH2 0x33C8 JUMP JUMPDEST SWAP8 POP POP PUSH1 0x60 PUSH2 0x34B3 DUP11 DUP3 DUP12 ADD PUSH2 0x3405 JUMP JUMPDEST SWAP7 POP POP PUSH1 0x80 DUP9 ADD CALLDATALOAD PUSH8 0xFFFFFFFFFFFFFFFF DUP2 GT ISZERO PUSH2 0x34D4 JUMPI PUSH2 0x34D3 PUSH2 0x303B JUMP JUMPDEST JUMPDEST PUSH2 0x34E0 DUP11 DUP3 DUP12 ADD PUSH2 0x3425 JUMP JUMPDEST SWAP6 POP SWAP6 POP POP PUSH1 0xA0 PUSH2 0x34F3 DUP11 DUP3 DUP12 ADD PUSH2 0x3085 JUMP JUMPDEST SWAP4 POP POP PUSH1 0xC0 DUP9 ADD CALLDATALOAD PUSH8 0xFFFFFFFFFFFFFFFF DUP2 GT ISZERO PUSH2 0x3514 JUMPI PUSH2 0x3513 PUSH2 0x303B JUMP JUMPDEST JUMPDEST PUSH2 0x3520 DUP11 DUP3 DUP12 ADD PUSH2 0x3425 JUMP JUMPDEST SWAP3 POP SWAP3 POP POP SWAP3 SWAP6 SWAP9 SWAP2 SWAP5 SWAP8 POP SWAP3 SWAP6 POP JUMP JUMPDEST PUSH0 PUSH2 0xFFFF DUP3 AND SWAP1 POP SWAP2 SWAP1 POP JUMP JUMPDEST PUSH2 0x3547 DUP2 PUSH2 0x3531 JUMP JUMPDEST DUP3 MSTORE POP POP JUMP JUMPDEST PUSH0 PUSH1 0x20 DUP3 ADD SWAP1 POP PUSH2 0x3560 PUSH0 DUP4 ADD DUP5 PUSH2 0x353E JUMP JUMPDEST SWAP3 SWAP2 POP POP JUMP JUMPDEST PUSH0 PUSH32 0xFFFFFFFF00000000000000000000000000000000000000000000000000000000 DUP3 AND SWAP1 POP SWAP2 SWAP1 POP JUMP JUMPDEST PUSH2 0x359A DUP2 PUSH2 0x3566 JUMP JUMPDEST DUP3 MSTORE POP POP JUMP JUMPDEST PUSH0 PUSH8 0xFFFFFFFFFFFFFFFF DUP3 AND SWAP1 POP SWAP2 SWAP1 POP JUMP JUMPDEST PUSH2 0x35BC DUP2 PUSH2 0x35A0 JUMP JUMPDEST DUP3 MSTORE POP POP JUMP JUMPDEST PUSH0 PUSH1 0x40 DUP3 ADD SWAP1 POP PUSH2 0x35D5 PUSH0 DUP4 ADD DUP6 PUSH2 0x3591 JUMP JUMPDEST PUSH2 0x35E2 PUSH1 0x20 DUP4 ADD DUP5 PUSH2 0x35B3 JUMP JUMPDEST SWAP4 SWAP3 POP POP POP JUMP JUMPDEST PUSH0 PUSH1 0x40 DUP3 ADD SWAP1 POP PUSH2 0x35FC PUSH0 DUP4 ADD DUP6 PUSH2 0x35B3 JUMP JUMPDEST PUSH2 0x3609 PUSH1 0x20 DUP4 ADD DUP5 PUSH2 0x35B3 JUMP JUMPDEST SWAP4 SWAP3 POP POP POP JUMP JUMPDEST PUSH2 0x3619 DUP2 PUSH2 0x3099 JUMP JUMPDEST DUP3 MSTORE POP POP JUMP JUMPDEST PUSH0 PUSH1 0x20 DUP3 ADD SWAP1 POP PUSH2 0x3632 PUSH0 DUP4 ADD DUP5 PUSH2 0x3610 JUMP JUMPDEST SWAP3 SWAP2 POP POP JUMP JUMPDEST PUSH0 DUP1 PUSH0 PUSH1 0x60 DUP5 DUP7 SUB SLT ISZERO PUSH2 0x364F JUMPI PUSH2 0x364E PUSH2 0x3037 JUMP JUMPDEST JUMPDEST PUSH0 PUSH2 0x365C DUP7 DUP3 DUP8 ADD PUSH2 0x3085 JUMP JUMPDEST SWAP4 POP POP PUSH1 0x20 PUSH2 0x366D DUP7 DUP3 DUP8 ADD PUSH2 0x3085 JUMP JUMPDEST SWAP3 POP POP PUSH1 0x40 PUSH2 0x367E DUP7 DUP3 DUP8 ADD PUSH2 0x30B8 JUMP JUMPDEST SWAP2 POP POP SWAP3 POP SWAP3 POP SWAP3 JUMP JUMPDEST PUSH0 PUSH1 0xFF DUP3 AND SWAP1 POP SWAP2 SWAP1 POP JUMP JUMPDEST PUSH2 0x369D DUP2 PUSH2 0x3688 JUMP JUMPDEST DUP3 MSTORE POP POP JUMP JUMPDEST PUSH0 PUSH1 0x20 DUP3 ADD SWAP1 POP PUSH2 0x36B6 PUSH0 DUP4 ADD DUP5 PUSH2 0x3694 JUMP JUMPDEST SWAP3 SWAP2 POP POP JUMP JUMPDEST PUSH0 PUSH4 0xFFFFFFFF DUP3 AND SWAP1 POP SWAP2 SWAP1 POP JUMP JUMPDEST PUSH2 0x36D4 DUP2 PUSH2 0x36BC JUMP JUMPDEST DUP2 EQ PUSH2 0x36DE JUMPI PUSH0 DUP1 REVERT JUMPDEST POP JUMP JUMPDEST PUSH0 DUP2 CALLDATALOAD SWAP1 POP PUSH2 0x36EF DUP2 PUSH2 0x36CB JUMP JUMPDEST SWAP3 SWAP2 POP POP JUMP JUMPDEST PUSH0 DUP1 PUSH1 0x40 DUP4 DUP6 SUB SLT ISZERO PUSH2 0x370B JUMPI PUSH2 0x370A PUSH2 0x3037 JUMP JUMPDEST JUMPDEST PUSH0 PUSH2 0x3718 DUP6 DUP3 DUP7 ADD PUSH2 0x36E1 JUMP JUMPDEST SWAP3 POP POP PUSH1 0x20 PUSH2 0x3729 DUP6 DUP3 DUP7 ADD PUSH2 0x3405 JUMP JUMPDEST SWAP2 POP POP SWAP3 POP SWAP3 SWAP1 POP JUMP JUMPDEST PUSH2 0x373C DUP2 PUSH2 0x310A JUMP JUMPDEST DUP2 EQ PUSH2 0x3746 JUMPI PUSH0 DUP1 REVERT JUMPDEST POP JUMP JUMPDEST PUSH0 DUP2 CALLDATALOAD SWAP1 POP PUSH2 0x3757 DUP2 PUSH2 0x3733 JUMP JUMPDEST SWAP3 SWAP2 POP POP JUMP JUMPDEST PUSH0 DUP1 PUSH1 0x40 DUP4 DUP6 SUB SLT ISZERO PUSH2 0x3773 JUMPI PUSH2 0x3772 PUSH2 0x3037 JUMP JUMPDEST JUMPDEST PUSH0 DUP4 ADD CALLDATALOAD PUSH8 0xFFFFFFFFFFFFFFFF DUP2 GT ISZERO PUSH2 0x3790 JUMPI PUSH2 0x378F PUSH2 0x303B JUMP JUMPDEST JUMPDEST PUSH2 0x379C DUP6 DUP3 DUP7 ADD PUSH2 0x3141 JUMP JUMPDEST SWAP3 POP POP PUSH1 0x20 PUSH2 0x37AD DUP6 DUP3 DUP7 ADD PUSH2 0x3749 JUMP JUMPDEST SWAP2 POP POP SWAP3 POP SWAP3 SWAP1 POP JUMP JUMPDEST PUSH1 0x40 DUP3 ADD PUSH0 DUP3 ADD MLOAD PUSH2 0x37CB PUSH0 DUP6 ADD DUP3 PUSH2 0x31A6 JUMP JUMPDEST POP PUSH1 0x20 DUP3 ADD MLOAD PUSH2 0x37DE PUSH1 0x20 DUP6 ADD DUP3 PUSH2 0x31A6 JUMP JUMPDEST POP POP POP POP JUMP JUMPDEST PUSH0 PUSH1 0x40 DUP3 ADD SWAP1 POP PUSH2 0x37F7 PUSH0 DUP4 ADD DUP5 PUSH2 0x37B7 JUMP JUMPDEST SWAP3 SWAP2 POP POP JUMP JUMPDEST PUSH2 0x3806 DUP2 PUSH2 0x3531 JUMP JUMPDEST DUP2 EQ PUSH2 0x3810 JUMPI PUSH0 DUP1 REVERT JUMPDEST POP JUMP JUMPDEST PUSH0 DUP2 CALLDATALOAD SWAP1 POP PUSH2 0x3821 DUP2 PUSH2 0x37FD JUMP JUMPDEST SWAP3 SWAP2 POP POP JUMP JUMPDEST PUSH0 DUP1 PUSH1 0x40 DUP4 DUP6 SUB SLT ISZERO PUSH2 0x383D JUMPI PUSH2 0x383C PUSH2 0x3037 JUMP JUMPDEST JUMPDEST PUSH0 PUSH2 0x384A DUP6 DUP3 DUP7 ADD PUSH2 0x36E1 JUMP JUMPDEST SWAP3 POP POP PUSH1 0x20 PUSH2 0x385B DUP6 DUP3 DUP7 ADD PUSH2 0x3813 JUMP JUMPDEST SWAP2 POP POP SWAP3 POP SWAP3 SWAP1 POP JUMP JUMPDEST PUSH0 DUP2 MLOAD SWAP1 POP SWAP2 SWAP1 POP JUMP JUMPDEST PUSH0 DUP3 DUP3 MSTORE PUSH1 0x20 DUP3 ADD SWAP1 POP SWAP3 SWAP2 POP POP JUMP JUMPDEST PUSH0 PUSH2 0x3889 DUP3 PUSH2 0x3865 JUMP JUMPDEST PUSH2 0x3893 DUP2 DUP6 PUSH2 0x386F JUMP JUMPDEST SWAP4 POP PUSH2 0x38A3 DUP2 DUP6 PUSH1 0x20 DUP7 ADD PUSH2 0x2FB8 JUMP JUMPDEST PUSH2 0x38AC DUP2 PUSH2 0x2FC6 JUMP JUMPDEST DUP5 ADD SWAP2 POP POP SWAP3 SWAP2 POP POP JUMP JUMPDEST PUSH0 PUSH1 0x20 DUP3 ADD SWAP1 POP DUP2 DUP2 SUB PUSH0 DUP4 ADD MSTORE PUSH2 0x38CF DUP2 DUP5 PUSH2 0x387F JUMP JUMPDEST SWAP1 POP SWAP3 SWAP2 POP POP JUMP JUMPDEST PUSH0 DUP2 SWAP1 POP SWAP2 SWAP1 POP JUMP JUMPDEST PUSH0 PUSH2 0x38FA PUSH2 0x38F5 PUSH2 0x38F0 DUP5 PUSH2 0x303F JUMP JUMPDEST PUSH2 0x38D7 JUMP JUMPDEST PUSH2 0x303F JUMP JUMPDEST SWAP1 POP SWAP2 SWAP1 POP JUMP JUMPDEST PUSH0 PUSH2 0x390B DUP3 PUSH2 0x38E0 JUMP JUMPDEST SWAP1 POP SWAP2 SWAP1 POP JUMP JUMPDEST PUSH0 PUSH2 0x391C DUP3 PUSH2 0x3901 JUMP JUMPDEST SWAP1 POP SWAP2 SWAP1 POP JUMP JUMPDEST PUSH2 0x392C DUP2 PUSH2 0x3912 JUMP JUMPDEST DUP3 MSTORE POP POP JUMP JUMPDEST PUSH0 PUSH1 0x20 DUP3 ADD SWAP1 POP PUSH2 0x3945 PUSH0 DUP4 ADD DUP5 PUSH2 0x3923 JUMP JUMPDEST SWAP3 SWAP2 POP POP JUMP JUMPDEST PUSH0 PUSH1 0x20 DUP3 DUP5 SUB SLT ISZERO PUSH2 0x3960 JUMPI PUSH2 0x395F PUSH2 0x3037 JUMP JUMPDEST JUMPDEST PUSH0 PUSH2 0x396D DUP5 DUP3 DUP6 ADD PUSH2 0x3085 JUMP JUMPDEST SWAP2 POP POP SWAP3 SWAP2 POP POP JUMP JUMPDEST PUSH0 PUSH1 0x20 DUP3 ADD SWAP1 POP PUSH2 0x3989 PUSH0 DUP4 ADD DUP5 PUSH2 0x35B3 JUMP JUMPDEST SWAP3 SWAP2 POP POP JUMP JUMPDEST PUSH0 DUP1 PUSH0 DUP1 PUSH1 0xA0 DUP6 DUP8 SUB SLT ISZERO PUSH2 0x39A7 JUMPI PUSH2 0x39A6 PUSH2 0x3037 JUMP JUMPDEST JUMPDEST PUSH0 PUSH2 0x39B4 DUP8 DUP3 DUP9 ADD PUSH2 0x33C8 JUMP JUMPDEST SWAP5 POP POP PUSH1 0x60 DUP6 ADD CALLDATALOAD PUSH8 0xFFFFFFFFFFFFFFFF DUP2 GT ISZERO PUSH2 0x39D5 JUMPI PUSH2 0x39D4 PUSH2 0x303B JUMP JUMPDEST JUMPDEST PUSH2 0x39E1 DUP8 DUP3 DUP9 ADD PUSH2 0x3425 JUMP JUMPDEST SWAP4 POP SWAP4 POP POP PUSH1 0x80 PUSH2 0x39F4 DUP8 DUP3 DUP9 ADD PUSH2 0x3085 JUMP JUMPDEST SWAP2 POP POP SWAP3 SWAP6 SWAP2 SWAP5 POP SWAP3 POP JUMP JUMPDEST PUSH0 DUP1 DUP4 PUSH1 0x1F DUP5 ADD SLT PUSH2 0x3A15 JUMPI PUSH2 0x3A14 PUSH2 0x3419 JUMP JUMPDEST JUMPDEST DUP3 CALLDATALOAD SWAP1 POP PUSH8 0xFFFFFFFFFFFFFFFF DUP2 GT ISZERO PUSH2 0x3A32 JUMPI PUSH2 0x3A31 PUSH2 0x341D JUMP JUMPDEST JUMPDEST PUSH1 0x20 DUP4 ADD SWAP2 POP DUP4 PUSH1 0x20 DUP3 MUL DUP4 ADD GT ISZERO PUSH2 0x3A4E JUMPI PUSH2 0x3A4D PUSH2 0x3421 JUMP JUMPDEST JUMPDEST SWAP3 POP SWAP3 SWAP1 POP JUMP JUMPDEST PUSH0 DUP1 PUSH1 0x20 DUP4 DUP6 SUB SLT ISZERO PUSH2 0x3A6B JUMPI PUSH2 0x3A6A PUSH2 0x3037 JUMP JUMPDEST JUMPDEST PUSH0 DUP4 ADD CALLDATALOAD PUSH8 0xFFFFFFFFFFFFFFFF DUP2 GT ISZERO PUSH2 0x3A88 JUMPI PUSH2 0x3A87 PUSH2 0x303B JUMP JUMPDEST JUMPDEST PUSH2 0x3A94 DUP6 DUP3 DUP7 ADD PUSH2 0x3A00 JUMP JUMPDEST SWAP3 POP SWAP3 POP POP SWAP3 POP SWAP3 SWAP1 POP JUMP JUMPDEST PUSH0 PUSH1 0x20 DUP3 DUP5 SUB SLT ISZERO PUSH2 0x3AB5 JUMPI PUSH2 0x3AB4 PUSH2 0x3037 JUMP JUMPDEST JUMPDEST PUSH0 PUSH2 0x3AC2 DUP5 DUP3 DUP6 ADD PUSH2 0x36E1 JUMP JUMPDEST SWAP2 POP POP SWAP3 SWAP2 POP POP JUMP JUMPDEST PUSH2 0x3AD4 DUP2 PUSH2 0x33E6 JUMP JUMPDEST DUP3 MSTORE POP POP JUMP JUMPDEST PUSH0 PUSH1 0x20 DUP3 ADD SWAP1 POP PUSH2 0x3AED PUSH0 DUP4 ADD DUP5 PUSH2 0x3ACB JUMP JUMPDEST SWAP3 SWAP2 POP POP JUMP JUMPDEST PUSH0 DUP1 PUSH0 DUP1 PUSH1 0x60 DUP6 DUP8 SUB SLT ISZERO PUSH2 0x3B0B JUMPI PUSH2 0x3B0A PUSH2 0x3037 JUMP JUMPDEST JUMPDEST PUSH0 PUSH2 0x3B18 DUP8 DUP3 DUP9 ADD PUSH2 0x36E1 JUMP JUMPDEST SWAP5 POP POP PUSH1 0x20 PUSH2 0x3B29 DUP8 DUP3 DUP9 ADD PUSH2 0x3813 JUMP JUMPDEST SWAP4 POP POP PUSH1 0x40 DUP6 ADD CALLDATALOAD PUSH8 0xFFFFFFFFFFFFFFFF DUP2 GT ISZERO PUSH2 0x3B4A JUMPI PUSH2 0x3B49 PUSH2 0x303B JUMP JUMPDEST JUMPDEST PUSH2 0x3B56 DUP8 DUP3 DUP9 ADD PUSH2 0x3425 JUMP JUMPDEST SWAP3 POP SWAP3 POP POP SWAP3 SWAP6 SWAP2 SWAP5 POP SWAP3 POP JUMP JUMPDEST PUSH0 DUP1 DUP4 PUSH1 0x1F DUP5 ADD SLT PUSH2 0x3B79 JUMPI PUSH2 0x3B78 PUSH2 0x3419 JUMP JUMPDEST JUMPDEST DUP3 CALLDATALOAD SWAP1 POP PUSH8 0xFFFFFFFFFFFFFFFF DUP2 GT ISZERO PUSH2 0x3B96 JUMPI PUSH2 0x3B95 PUSH2 0x341D JUMP JUMPDEST JUMPDEST PUSH1 0x20 DUP4 ADD SWAP2 POP DUP4 PUSH1 0x20 DUP3 MUL DUP4 ADD GT ISZERO PUSH2 0x3BB2 JUMPI PUSH2 0x3BB1 PUSH2 0x3421 JUMP JUMPDEST JUMPDEST SWAP3 POP SWAP3 SWAP1 POP JUMP JUMPDEST PUSH0 DUP1 PUSH1 0x20 DUP4 DUP6 SUB SLT ISZERO PUSH2 0x3BCF JUMPI PUSH2 0x3BCE PUSH2 0x3037 JUMP JUMPDEST JUMPDEST PUSH0 DUP4 ADD CALLDATALOAD PUSH8 0xFFFFFFFFFFFFFFFF DUP2 GT ISZERO PUSH2 0x3BEC JUMPI PUSH2 0x3BEB PUSH2 0x303B JUMP JUMPDEST JUMPDEST PUSH2 0x3BF8 DUP6 DUP3 DUP7 ADD PUSH2 0x3B64 JUMP JUMPDEST SWAP3 POP SWAP3 POP POP SWAP3 POP SWAP3 SWAP1 POP JUMP JUMPDEST PUSH0 PUSH1 0x40 DUP3 DUP5 SUB SLT ISZERO PUSH2 0x3C19 JUMPI PUSH2 0x3C18 PUSH2 0x313D JUMP JUMPDEST JUMPDEST DUP2 SWAP1 POP SWAP3 SWAP2 POP POP JUMP JUMPDEST PUSH0 DUP1 PUSH0 PUSH1 0x80 DUP5 DUP7 SUB SLT ISZERO PUSH2 0x3C39 JUMPI PUSH2 0x3C38 PUSH2 0x3037 JUMP JUMPDEST JUMPDEST PUSH0 DUP5 ADD CALLDATALOAD PUSH8 0xFFFFFFFFFFFFFFFF DUP2 GT ISZERO PUSH2 0x3C56 JUMPI PUSH2 0x3C55 PUSH2 0x303B JUMP JUMPDEST JUMPDEST PUSH2 0x3C62 DUP7 DUP3 DUP8 ADD PUSH2 0x3141 JUMP JUMPDEST SWAP4 POP POP PUSH1 0x20 PUSH2 0x3C73 DUP7 DUP3 DUP8 ADD PUSH2 0x3C04 JUMP JUMPDEST SWAP3 POP POP PUSH1 0x60 PUSH2 0x3C84 DUP7 DUP3 DUP8 ADD PUSH2 0x3085 JUMP JUMPDEST SWAP2 POP POP SWAP3 POP SWAP3 POP SWAP3 JUMP JUMPDEST PUSH2 0x3C97 DUP2 PUSH2 0x33E6 JUMP JUMPDEST DUP3 MSTORE POP POP JUMP JUMPDEST PUSH2 0x3CA6 DUP2 PUSH2 0x35A0 JUMP JUMPDEST DUP3 MSTORE POP POP JUMP JUMPDEST PUSH1 0x40 DUP3 ADD PUSH0 DUP3 ADD MLOAD PUSH2 0x3CC0 PUSH0 DUP6 ADD DUP3 PUSH2 0x31A6 JUMP JUMPDEST POP PUSH1 0x20 DUP3 ADD MLOAD PUSH2 0x3CD3 PUSH1 0x20 DUP6 ADD DUP3 PUSH2 0x31A6 JUMP JUMPDEST POP POP POP POP JUMP JUMPDEST PUSH1 0x80 DUP3 ADD PUSH0 DUP3 ADD MLOAD PUSH2 0x3CED PUSH0 DUP6 ADD DUP3 PUSH2 0x3C8E JUMP JUMPDEST POP PUSH1 0x20 DUP3 ADD MLOAD PUSH2 0x3D00 PUSH1 0x20 DUP6 ADD DUP3 PUSH2 0x3C9D JUMP JUMPDEST POP PUSH1 0x40 DUP3 ADD MLOAD PUSH2 0x3D13 PUSH1 0x40 DUP6 ADD DUP3 PUSH2 0x3CAC JUMP JUMPDEST POP POP POP POP JUMP JUMPDEST PUSH0 PUSH1 0xC0 DUP3 ADD SWAP1 POP PUSH2 0x3D2C PUSH0 DUP4 ADD DUP6 PUSH2 0x3CD9 JUMP JUMPDEST PUSH2 0x3D39 PUSH1 0x80 DUP4 ADD DUP5 PUSH2 0x3337 JUMP JUMPDEST SWAP4 SWAP3 POP POP POP JUMP JUMPDEST PUSH0 DUP1 PUSH1 0x40 DUP4 DUP6 SUB SLT ISZERO PUSH2 0x3D56 JUMPI PUSH2 0x3D55 PUSH2 0x3037 JUMP JUMPDEST JUMPDEST PUSH0 PUSH2 0x3D63 DUP6 DUP3 DUP7 ADD PUSH2 0x3085 JUMP JUMPDEST SWAP3 POP POP PUSH1 0x20 PUSH2 0x3D74 DUP6 DUP3 DUP7 ADD PUSH2 0x3085 JUMP JUMPDEST SWAP2 POP POP SWAP3 POP SWAP3 SWAP1 POP JUMP JUMPDEST PUSH0 PUSH1 0x60 DUP3 DUP5 SUB SLT ISZERO PUSH2 0x3D93 JUMPI PUSH2 0x3D92 PUSH2 0x3037 JUMP JUMPDEST JUMPDEST PUSH0 PUSH2 0x3DA0 DUP5 DUP3 DUP6 ADD PUSH2 0x33C8 JUMP JUMPDEST SWAP2 POP POP SWAP3 SWAP2 POP POP JUMP JUMPDEST PUSH32 0x4E487B7100000000000000000000000000000000000000000000000000000000 PUSH0 MSTORE PUSH1 0x22 PUSH1 0x4 MSTORE PUSH1 0x24 PUSH0 REVERT JUMPDEST PUSH0 PUSH1 0x2 DUP3 DIV SWAP1 POP PUSH1 0x1 DUP3 AND DUP1 PUSH2 0x3DED JUMPI PUSH1 0x7F DUP3 AND SWAP2 POP JUMPDEST PUSH1 0x20 DUP3 LT DUP2 SUB PUSH2 0x3E00 JUMPI PUSH2 0x3DFF PUSH2 0x3DA9 JUMP JUMPDEST JUMPDEST POP SWAP2 SWAP1 POP JUMP JUMPDEST PUSH0 DUP2 MLOAD SWAP1 POP PUSH2 0x3E14 DUP2 PUSH2 0x306F JUMP JUMPDEST SWAP3 SWAP2 POP POP JUMP JUMPDEST PUSH0 PUSH1 0x20 DUP3 DUP5 SUB SLT ISZERO PUSH2 0x3E2F JUMPI PUSH2 0x3E2E PUSH2 0x3037 JUMP JUMPDEST JUMPDEST PUSH0 PUSH2 0x3E3C DUP5 DUP3 DUP6 ADD PUSH2 0x3E06 JUMP JUMPDEST SWAP2 POP POP SWAP3 SWAP2 POP POP JUMP JUMPDEST PUSH0 DUP2 MLOAD SWAP1 POP PUSH2 0x3E53 DUP2 PUSH2 0x30A2 JUMP JUMPDEST SWAP3 SWAP2 POP POP JUMP JUMPDEST PUSH0 PUSH1 0x20 DUP3 DUP5 SUB SLT ISZERO PUSH2 0x3E6E JUMPI PUSH2 0x3E6D PUSH2 0x3037 JUMP JUMPDEST JUMPDEST PUSH0 PUSH2 0x3E7B DUP5 DUP3 DUP6 ADD PUSH2 0x3E45 JUMP JUMPDEST SWAP2 POP POP SWAP3 SWAP2 POP POP JUMP JUMPDEST PUSH32 0x4E487B7100000000000000000000000000000000000000000000000000000000 PUSH0 MSTORE PUSH1 0x41 PUSH1 0x4 MSTORE PUSH1 0x24 PUSH0 REVERT JUMPDEST PUSH2 0x3EBA DUP2 PUSH2 0x36BC JUMP JUMPDEST DUP3 MSTORE POP POP JUMP JUMPDEST PUSH0 PUSH1 0x40 DUP3 ADD SWAP1 POP PUSH2 0x3ED3 PUSH0 DUP4 ADD DUP6 PUSH2 0x3EB1 JUMP JUMPDEST PUSH2 0x3EE0 PUSH1 0x20 DUP4 ADD DUP5 PUSH2 0x3ACB JUMP JUMPDEST SWAP4 SWAP3 POP POP POP JUMP JUMPDEST PUSH2 0x3EF0 DUP3 PUSH2 0x2FC6 JUMP JUMPDEST DUP2 ADD DUP2 DUP2 LT PUSH8 0xFFFFFFFFFFFFFFFF DUP3 GT OR ISZERO PUSH2 0x3F0F JUMPI PUSH2 0x3F0E PUSH2 0x3E84 JUMP JUMPDEST JUMPDEST DUP1 PUSH1 0x40 MSTORE POP POP POP JUMP JUMPDEST PUSH0 PUSH2 0x3F21 PUSH2 0x302E JUMP JUMPDEST SWAP1 POP PUSH2 0x3F2D DUP3 DUP3 PUSH2 0x3EE7 JUMP JUMPDEST SWAP2 SWAP1 POP JUMP JUMPDEST PUSH0 PUSH8 0xFFFFFFFFFFFFFFFF DUP3 GT ISZERO PUSH2 0x3F4C JUMPI PUSH2 0x3F4B PUSH2 0x3E84 JUMP JUMPDEST JUMPDEST PUSH1 0x20 DUP3 MUL SWAP1 POP PUSH1 0x20 DUP2 ADD SWAP1 POP SWAP2 SWAP1 POP JUMP JUMPDEST PUSH0 DUP1 REVERT JUMPDEST PUSH0 DUP1 REVERT JUMPDEST PUSH0 DUP1 REVERT JUMPDEST PUSH0 PUSH8 0xFFFFFFFFFFFFFFFF DUP3 GT ISZERO PUSH2 0x3F83 JUMPI PUSH2 0x3F82 PUSH2 0x3E84 JUMP JUMPDEST JUMPDEST PUSH2 0x3F8C DUP3 PUSH2 0x2FC6 JUMP JUMPDEST SWAP1 POP PUSH1 0x20 DUP2 ADD SWAP1 POP SWAP2 SWAP1 POP JUMP JUMPDEST DUP3 DUP2 DUP4 CALLDATACOPY PUSH0 DUP4 DUP4 ADD MSTORE POP POP POP JUMP JUMPDEST PUSH0 PUSH2 0x3FB9 PUSH2 0x3FB4 DUP5 PUSH2 0x3F69 JUMP JUMPDEST PUSH2 0x3F18 JUMP JUMPDEST SWAP1 POP DUP3 DUP2 MSTORE PUSH1 0x20 DUP2 ADD DUP5 DUP5 DUP5 ADD GT ISZERO PUSH2 0x3FD5 JUMPI PUSH2 0x3FD4 PUSH2 0x3F65 JUMP JUMPDEST JUMPDEST PUSH2 0x3FE0 DUP5 DUP3 DUP6 PUSH2 0x3F99 JUMP JUMPDEST POP SWAP4 SWAP3 POP POP POP JUMP JUMPDEST PUSH0 DUP3 PUSH1 0x1F DUP4 ADD SLT PUSH2 0x3FFC JUMPI PUSH2 0x3FFB PUSH2 0x3419 JUMP JUMPDEST JUMPDEST DUP2 CALLDATALOAD PUSH2 0x400C DUP5 DUP3 PUSH1 0x20 DUP7 ADD PUSH2 0x3FA7 JUMP JUMPDEST SWAP2 POP POP SWAP3 SWAP2 POP POP JUMP JUMPDEST PUSH0 PUSH1 0x60 DUP3 DUP5 SUB SLT ISZERO PUSH2 0x402A JUMPI PUSH2 0x4029 PUSH2 0x3F5D JUMP JUMPDEST JUMPDEST PUSH2 0x4034 PUSH1 0x60 PUSH2 0x3F18 JUMP JUMPDEST SWAP1 POP PUSH0 PUSH2 0x4043 DUP5 DUP3 DUP6 ADD PUSH2 0x36E1 JUMP JUMPDEST PUSH0 DUP4 ADD MSTORE POP PUSH1 0x20 PUSH2 0x4056 DUP5 DUP3 DUP6 ADD PUSH2 0x3813 JUMP JUMPDEST PUSH1 0x20 DUP4 ADD MSTORE POP PUSH1 0x40 DUP3 ADD CALLDATALOAD PUSH8 0xFFFFFFFFFFFFFFFF DUP2 GT ISZERO PUSH2 0x407A JUMPI PUSH2 0x4079 PUSH2 0x3F61 JUMP JUMPDEST JUMPDEST PUSH2 0x4086 DUP5 DUP3 DUP6 ADD PUSH2 0x3FE8 JUMP JUMPDEST PUSH1 0x40 DUP4 ADD MSTORE POP SWAP3 SWAP2 POP POP JUMP JUMPDEST PUSH0 PUSH2 0x40A4 PUSH2 0x409F DUP5 PUSH2 0x3F32 JUMP JUMPDEST PUSH2 0x3F18 JUMP JUMPDEST SWAP1 POP DUP1 DUP4 DUP3 MSTORE PUSH1 0x20 DUP3 ADD SWAP1 POP PUSH1 0x20 DUP5 MUL DUP4 ADD DUP6 DUP2 GT ISZERO PUSH2 0x40C7 JUMPI PUSH2 0x40C6 PUSH2 0x3421 JUMP JUMPDEST JUMPDEST DUP4 JUMPDEST DUP2 DUP2 LT ISZERO PUSH2 0x410E JUMPI DUP1 CALLDATALOAD PUSH8 0xFFFFFFFFFFFFFFFF DUP2 GT ISZERO PUSH2 0x40EC JUMPI PUSH2 0x40EB PUSH2 0x3419 JUMP JUMPDEST JUMPDEST DUP1 DUP7 ADD PUSH2 0x40F9 DUP10 DUP3 PUSH2 0x4015 JUMP JUMPDEST DUP6 MSTORE PUSH1 0x20 DUP6 ADD SWAP5 POP POP POP PUSH1 0x20 DUP2 ADD SWAP1 POP PUSH2 0x40C9 JUMP JUMPDEST POP POP POP SWAP4 SWAP3 POP POP POP JUMP JUMPDEST PUSH0 PUSH2 0x4124 CALLDATASIZE DUP5 DUP5 PUSH2 0x4092 JUMP JUMPDEST SWAP1 POP SWAP3 SWAP2 POP POP JUMP JUMPDEST PUSH0 DUP1 REVERT JUMPDEST PUSH0 DUP1 REVERT JUMPDEST PUSH0 DUP1 DUP6 DUP6 GT ISZERO PUSH2 0x4147 JUMPI PUSH2 0x4146 PUSH2 0x412C JUMP JUMPDEST JUMPDEST DUP4 DUP7 GT ISZERO PUSH2 0x4158 JUMPI PUSH2 0x4157 PUSH2 0x4130 JUMP JUMPDEST JUMPDEST PUSH1 0x1 DUP6 MUL DUP4 ADD SWAP2 POP DUP5 DUP7 SUB SWAP1 POP SWAP5 POP SWAP5 SWAP3 POP POP POP JUMP JUMPDEST PUSH0 DUP2 SWAP1 POP SWAP3 SWAP2 POP POP JUMP JUMPDEST PUSH0 PUSH2 0x4182 DUP3 PUSH2 0x3865 JUMP JUMPDEST PUSH2 0x418C DUP2 DUP6 PUSH2 0x416E JUMP JUMPDEST SWAP4 POP PUSH2 0x419C DUP2 DUP6 PUSH1 0x20 DUP7 ADD PUSH2 0x2FB8 JUMP JUMPDEST DUP1 DUP5 ADD SWAP2 POP POP SWAP3 SWAP2 POP POP JUMP JUMPDEST PUSH0 PUSH2 0x41B3 DUP4 DUP6 PUSH2 0x416E JUMP JUMPDEST SWAP4 POP PUSH2 0x41C0 DUP4 DUP6 DUP5 PUSH2 0x3F99 JUMP JUMPDEST DUP3 DUP5 ADD SWAP1 POP SWAP4 SWAP3 POP POP POP JUMP JUMPDEST PUSH0 PUSH2 0x41D7 DUP3 DUP7 PUSH2 0x4178 JUMP JUMPDEST SWAP2 POP PUSH2 0x41E4 DUP3 DUP5 DUP7 PUSH2 0x41A8 JUMP JUMPDEST SWAP2 POP DUP2 SWAP1 POP SWAP5 SWAP4 POP POP POP POP JUMP JUMPDEST PUSH0 PUSH2 0x41FC DUP4 DUP6 PUSH2 0x386F JUMP JUMPDEST SWAP4 POP PUSH2 0x4209 DUP4 DUP6 DUP5 PUSH2 0x3F99 JUMP JUMPDEST PUSH2 0x4212 DUP4 PUSH2 0x2FC6 JUMP JUMPDEST DUP5 ADD SWAP1 POP SWAP4 SWAP3 POP POP POP JUMP JUMPDEST PUSH0 PUSH1 0x20 DUP3 ADD SWAP1 POP DUP2 DUP2 SUB PUSH0 DUP4 ADD MSTORE PUSH2 0x4236 DUP2 DUP5 DUP7 PUSH2 0x41F1 JUMP JUMPDEST SWAP1 POP SWAP4 SWAP3 POP POP POP JUMP JUMPDEST PUSH32 0x4E487B7100000000000000000000000000000000000000000000000000000000 PUSH0 MSTORE PUSH1 0x32 PUSH1 0x4 MSTORE PUSH1 0x24 PUSH0 REVERT JUMPDEST PUSH0 DUP1 REVERT JUMPDEST PUSH0 DUP1 REVERT JUMPDEST PUSH0 DUP1 REVERT JUMPDEST PUSH0 DUP3 CALLDATALOAD PUSH1 0x1 PUSH2 0x140 SUB DUP4 CALLDATASIZE SUB SUB DUP2 SLT PUSH2 0x4294 JUMPI PUSH2 0x4293 PUSH2 0x426C JUMP JUMPDEST JUMPDEST DUP1 DUP4 ADD SWAP2 POP POP SWAP3 SWAP2 POP POP JUMP JUMPDEST PUSH0 DUP1 DUP4 CALLDATALOAD PUSH1 0x1 PUSH1 0x20 SUB DUP5 CALLDATASIZE SUB SUB DUP2 SLT PUSH2 0x42BC JUMPI PUSH2 0x42BB PUSH2 0x426C JUMP JUMPDEST JUMPDEST DUP1 DUP5 ADD SWAP3 POP DUP3 CALLDATALOAD SWAP2 POP PUSH8 0xFFFFFFFFFFFFFFFF DUP3 GT ISZERO PUSH2 0x42DE JUMPI PUSH2 0x42DD PUSH2 0x4270 JUMP JUMPDEST JUMPDEST PUSH1 0x20 DUP4 ADD SWAP3 POP PUSH1 0x1 DUP3 MUL CALLDATASIZE SUB DUP4 SGT ISZERO PUSH2 0x42FA JUMPI PUSH2 0x42F9 PUSH2 0x4274 JUMP JUMPDEST JUMPDEST POP SWAP3 POP SWAP3 SWAP1 POP JUMP JUMPDEST PUSH0 PUSH2 0x4310 PUSH1 0x20 DUP5 ADD DUP5 PUSH2 0x36E1 JUMP JUMPDEST SWAP1 POP SWAP3 SWAP2 POP POP JUMP JUMPDEST PUSH2 0x4321 DUP2 PUSH2 0x36BC JUMP JUMPDEST DUP3 MSTORE POP POP JUMP JUMPDEST PUSH0 PUSH2 0x4335 PUSH1 0x20 DUP5 ADD DUP5 PUSH2 0x3405 JUMP JUMPDEST SWAP1 POP SWAP3 SWAP2 POP POP JUMP JUMPDEST PUSH2 0x4346 DUP2 PUSH2 0x35A0 JUMP JUMPDEST DUP2 EQ PUSH2 0x4350 JUMPI PUSH0 DUP1 REVERT JUMPDEST POP JUMP JUMPDEST PUSH0 DUP2 CALLDATALOAD SWAP1 POP PUSH2 0x4361 DUP2 PUSH2 0x433D JUMP JUMPDEST SWAP3 SWAP2 POP POP JUMP JUMPDEST PUSH0 PUSH2 0x4375 PUSH1 0x20 DUP5 ADD DUP5 PUSH2 0x4353 JUMP JUMPDEST SWAP1 POP SWAP3 SWAP2 POP POP JUMP JUMPDEST PUSH1 0x60 DUP3 ADD PUSH2 0x438D PUSH0 DUP4 ADD DUP4 PUSH2 0x4302 JUMP JUMPDEST PUSH2 0x4399 PUSH0 DUP6 ADD DUP3 PUSH2 0x4318 JUMP JUMPDEST POP PUSH2 0x43A7 PUSH1 0x20 DUP4 ADD DUP4 PUSH2 0x4327 JUMP JUMPDEST PUSH2 0x43B4 PUSH1 0x20 DUP6 ADD DUP3 PUSH2 0x3C8E JUMP JUMPDEST POP PUSH2 0x43C2 PUSH1 0x40 DUP4 ADD DUP4 PUSH2 0x4367 JUMP JUMPDEST PUSH2 0x43CF PUSH1 0x40 DUP6 ADD DUP3 PUSH2 0x3C9D JUMP JUMPDEST POP POP POP POP JUMP JUMPDEST PUSH0 PUSH1 0xE0 DUP3 ADD SWAP1 POP PUSH2 0x43E8 PUSH0 DUP4 ADD DUP11 PUSH2 0x437D JUMP JUMPDEST PUSH2 0x43F5 PUSH1 0x60 DUP4 ADD DUP10 PUSH2 0x3ACB JUMP JUMPDEST DUP2 DUP2 SUB PUSH1 0x80 DUP4 ADD MSTORE PUSH2 0x4408 DUP2 DUP8 DUP10 PUSH2 0x41F1 JUMP JUMPDEST SWAP1 POP PUSH2 0x4417 PUSH1 0xA0 DUP4 ADD DUP7 PUSH2 0x33A0 JUMP JUMPDEST DUP2 DUP2 SUB PUSH1 0xC0 DUP4 ADD MSTORE PUSH2 0x442A DUP2 DUP5 DUP7 PUSH2 0x41F1 JUMP JUMPDEST SWAP1 POP SWAP9 SWAP8 POP POP POP POP POP POP POP POP JUMP JUMPDEST PUSH0 PUSH2 0x444A PUSH2 0x4445 DUP5 PUSH2 0x3F69 JUMP JUMPDEST PUSH2 0x3F18 JUMP JUMPDEST SWAP1 POP DUP3 DUP2 MSTORE PUSH1 0x20 DUP2 ADD DUP5 DUP5 DUP5 ADD GT ISZERO PUSH2 0x4466 JUMPI PUSH2 0x4465 PUSH2 0x3F65 JUMP JUMPDEST JUMPDEST PUSH2 0x4471 DUP5 DUP3 DUP6 PUSH2 0x2FB8 JUMP JUMPDEST POP SWAP4 SWAP3 POP POP POP JUMP JUMPDEST PUSH0 DUP3 PUSH1 0x1F DUP4 ADD SLT PUSH2 0x448D JUMPI PUSH2 0x448C PUSH2 0x3419 JUMP JUMPDEST JUMPDEST DUP2 MLOAD PUSH2 0x449D DUP5 DUP3 PUSH1 0x20 DUP7 ADD PUSH2 0x4438 JUMP JUMPDEST SWAP2 POP POP SWAP3 SWAP2 POP POP JUMP JUMPDEST PUSH0 PUSH1 0x20 DUP3 DUP5 SUB SLT ISZERO PUSH2 0x44BB JUMPI PUSH2 0x44BA PUSH2 0x3037 JUMP JUMPDEST JUMPDEST PUSH0 DUP3 ADD MLOAD PUSH8 0xFFFFFFFFFFFFFFFF DUP2 GT ISZERO PUSH2 0x44D8 JUMPI PUSH2 0x44D7 PUSH2 0x303B JUMP JUMPDEST JUMPDEST PUSH2 0x44E4 DUP5 DUP3 DUP6 ADD PUSH2 0x4479 JUMP JUMPDEST SWAP2 POP POP SWAP3 SWAP2 POP POP JUMP JUMPDEST PUSH0 PUSH1 0x40 DUP3 ADD SWAP1 POP PUSH2 0x4500 PUSH0 DUP4 ADD DUP6 PUSH2 0x3610 JUMP JUMPDEST PUSH2 0x450D PUSH1 0x20 DUP4 ADD DUP5 PUSH2 0x3610 JUMP JUMPDEST SWAP4 SWAP3 POP POP POP JUMP JUMPDEST PUSH0 PUSH1 0x20 DUP3 ADD SWAP1 POP PUSH2 0x4527 PUSH0 DUP4 ADD DUP5 PUSH2 0x3EB1 JUMP JUMPDEST SWAP3 SWAP2 POP POP JUMP JUMPDEST PUSH0 PUSH1 0x20 DUP3 DUP5 SUB SLT ISZERO PUSH2 0x4542 JUMPI PUSH2 0x4541 PUSH2 0x3037 JUMP JUMPDEST JUMPDEST PUSH0 PUSH2 0x454F DUP5 DUP3 DUP6 ADD PUSH2 0x4353 JUMP JUMPDEST SWAP2 POP POP SWAP3 SWAP2 POP POP JUMP JUMPDEST PUSH0 DUP2 SWAP1 POP SWAP2 SWAP1 POP JUMP JUMPDEST PUSH0 PUSH2 0x457B PUSH2 0x4576 PUSH2 0x4571 DUP5 PUSH2 0x4558 JUMP JUMPDEST PUSH2 0x38D7 JUMP JUMPDEST PUSH2 0x3531 JUMP JUMPDEST SWAP1 POP SWAP2 SWAP1 POP JUMP JUMPDEST PUSH2 0x458B DUP2 PUSH2 0x4561 JUMP JUMPDEST DUP3 MSTORE POP POP JUMP JUMPDEST PUSH0 PUSH1 0x80 DUP3 ADD SWAP1 POP PUSH2 0x45A4 PUSH0 DUP4 ADD DUP8 PUSH2 0x33A0 JUMP JUMPDEST PUSH2 0x45B1 PUSH1 0x20 DUP4 ADD DUP7 PUSH2 0x3ACB JUMP JUMPDEST PUSH2 0x45BE PUSH1 0x40 DUP4 ADD DUP6 PUSH2 0x4582 JUMP JUMPDEST DUP2 DUP2 SUB PUSH1 0x60 DUP4 ADD MSTORE PUSH2 0x45D0 DUP2 DUP5 PUSH2 0x387F JUMP JUMPDEST SWAP1 POP SWAP6 SWAP5 POP POP POP POP POP JUMP JUMPDEST PUSH0 PUSH1 0x40 DUP3 ADD SWAP1 POP PUSH2 0x45EE PUSH0 DUP4 ADD DUP6 PUSH2 0x3EB1 JUMP JUMPDEST PUSH2 0x45FB PUSH1 0x20 DUP4 ADD DUP5 PUSH2 0x3610 JUMP JUMPDEST SWAP4 SWAP3 POP POP POP JUMP JUMPDEST PUSH0 PUSH1 0x60 DUP3 ADD SWAP1 POP PUSH2 0x4615 PUSH0 DUP4 ADD DUP7 PUSH2 0x33A0 JUMP JUMPDEST PUSH2 0x4622 PUSH1 0x20 DUP4 ADD DUP6 PUSH2 0x3610 JUMP JUMPDEST PUSH2 0x462F PUSH1 0x40 DUP4 ADD DUP5 PUSH2 0x3610 JUMP JUMPDEST SWAP5 SWAP4 POP POP POP POP JUMP JUMPDEST PUSH0 PUSH1 0x40 DUP3 ADD SWAP1 POP DUP2 DUP2 SUB PUSH0 DUP4 ADD MSTORE PUSH2 0x464F DUP2 DUP6 PUSH2 0x387F JUMP JUMPDEST SWAP1 POP DUP2 DUP2 SUB PUSH1 0x20 DUP4 ADD MSTORE PUSH2 0x4663 DUP2 DUP5 PUSH2 0x387F JUMP JUMPDEST SWAP1 POP SWAP4 SWAP3 POP POP POP JUMP JUMPDEST PUSH0 DUP2 MLOAD SWAP1 POP PUSH2 0x467A DUP2 PUSH2 0x3733 JUMP JUMPDEST SWAP3 SWAP2 POP POP JUMP JUMPDEST PUSH0 PUSH1 0x20 DUP3 DUP5 SUB SLT ISZERO PUSH2 0x4695 JUMPI PUSH2 0x4694 PUSH2 0x3037 JUMP JUMPDEST JUMPDEST PUSH0 PUSH2 0x46A2 DUP5 DUP3 DUP6 ADD PUSH2 0x466C JUMP JUMPDEST SWAP2 POP POP SWAP3 SWAP2 POP POP JUMP JUMPDEST PUSH0 DUP3 DUP3 MSTORE PUSH1 0x20 DUP3 ADD SWAP1 POP SWAP3 SWAP2 POP POP JUMP JUMPDEST PUSH0 PUSH2 0x46C5 DUP3 PUSH2 0x3865 JUMP JUMPDEST PUSH2 0x46CF DUP2 DUP6 PUSH2 0x46AB JUMP JUMPDEST SWAP4 POP PUSH2 0x46DF DUP2 DUP6 PUSH1 0x20 DUP7 ADD PUSH2 0x2FB8 JUMP JUMPDEST PUSH2 0x46E8 DUP2 PUSH2 0x2FC6 JUMP JUMPDEST DUP5 ADD SWAP2 POP POP SWAP3 SWAP2 POP POP JUMP JUMPDEST PUSH2 0x46FC DUP2 PUSH2 0x310A JUMP JUMPDEST DUP3 MSTORE POP POP JUMP JUMPDEST PUSH0 PUSH1 0xA0 DUP4 ADD PUSH0 DUP4 ADD MLOAD PUSH2 0x4717 PUSH0 DUP7 ADD DUP3 PUSH2 0x4318 JUMP JUMPDEST POP PUSH1 0x20 DUP4 ADD MLOAD PUSH2 0x472A PUSH1 0x20 DUP7 ADD DUP3 PUSH2 0x3C8E JUMP JUMPDEST POP PUSH1 0x40 DUP4 ADD MLOAD DUP5 DUP3 SUB PUSH1 0x40 DUP7 ADD MSTORE PUSH2 0x4742 DUP3 DUP3 PUSH2 0x46BB JUMP JUMPDEST SWAP2 POP POP PUSH1 0x60 DUP4 ADD MLOAD DUP5 DUP3 SUB PUSH1 0x60 DUP7 ADD MSTORE PUSH2 0x475C DUP3 DUP3 PUSH2 0x46BB JUMP JUMPDEST SWAP2 POP POP PUSH1 0x80 DUP4 ADD MLOAD PUSH2 0x4771 PUSH1 0x80 DUP7 ADD DUP3 PUSH2 0x46F3 JUMP JUMPDEST POP DUP1 SWAP2 POP POP SWAP3 SWAP2 POP POP JUMP JUMPDEST PUSH0 PUSH1 0x40 DUP3 ADD SWAP1 POP DUP2 DUP2 SUB PUSH0 DUP4 ADD MSTORE PUSH2 0x4794 DUP2 DUP6 PUSH2 0x4702 JUMP JUMPDEST SWAP1 POP PUSH2 0x47A3 PUSH1 0x20 DUP4 ADD DUP5 PUSH2 0x33A0 JUMP JUMPDEST SWAP4 SWAP3 POP POP POP JUMP JUMPDEST PUSH0 PUSH1 0x40 DUP3 DUP5 SUB SLT ISZERO PUSH2 0x47BF JUMPI PUSH2 0x47BE PUSH2 0x3F5D JUMP JUMPDEST JUMPDEST PUSH2 0x47C9 PUSH1 0x40 PUSH2 0x3F18 JUMP JUMPDEST SWAP1 POP PUSH0 PUSH2 0x47D8 DUP5 DUP3 DUP6 ADD PUSH2 0x3E45 JUMP JUMPDEST PUSH0 DUP4 ADD MSTORE POP PUSH1 0x20 PUSH2 0x47EB DUP5 DUP3 DUP6 ADD PUSH2 0x3E45 JUMP JUMPDEST PUSH1 0x20 DUP4 ADD MSTORE POP SWAP3 SWAP2 POP POP JUMP JUMPDEST PUSH0 PUSH1 0x40 DUP3 DUP5 SUB SLT ISZERO PUSH2 0x480C JUMPI PUSH2 0x480B PUSH2 0x3037 JUMP JUMPDEST JUMPDEST PUSH0 PUSH2 0x4819 DUP5 DUP3 DUP6 ADD PUSH2 0x47AA JUMP JUMPDEST SWAP2 POP POP SWAP3 SWAP2 POP POP JUMP JUMPDEST PUSH0 DUP2 SWAP1 POP DUP2 PUSH0 MSTORE PUSH1 0x20 PUSH0 KECCAK256 SWAP1 POP SWAP2 SWAP1 POP JUMP JUMPDEST PUSH0 PUSH1 0x20 PUSH1 0x1F DUP4 ADD DIV SWAP1 POP SWAP2 SWAP1 POP JUMP JUMPDEST PUSH0 DUP3 DUP3 SHL SWAP1 POP SWAP3 SWAP2 POP POP JUMP JUMPDEST PUSH0 PUSH1 0x8 DUP4 MUL PUSH2 0x487E PUSH32 0xFFFFFFFFFFFFFFFFFFFFFFFFFFFFFFFFFFFFFFFFFFFFFFFFFFFFFFFFFFFFFFFF DUP3 PUSH2 0x4843 JUMP JUMPDEST PUSH2 0x4888 DUP7 DUP4 PUSH2 0x4843 JUMP JUMPDEST SWAP6 POP DUP1 NOT DUP5 AND SWAP4 POP DUP1 DUP7 AND DUP5 OR SWAP3 POP POP POP SWAP4 SWAP3 POP POP POP JUMP JUMPDEST PUSH0 PUSH2 0x48BA PUSH2 0x48B5 PUSH2 0x48B0 DUP5 PUSH2 0x3099 JUMP JUMPDEST PUSH2 0x38D7 JUMP JUMPDEST PUSH2 0x3099 JUMP JUMPDEST SWAP1 POP SWAP2 SWAP1 POP JUMP JUMPDEST PUSH0 DUP2 SWAP1 POP SWAP2 SWAP1 POP JUMP JUMPDEST PUSH2 0x48D3 DUP4 PUSH2 0x48A0 JUMP JUMPDEST PUSH2 0x48E7 PUSH2 0x48DF DUP3 PUSH2 0x48C1 JUMP JUMPDEST DUP5 DUP5 SLOAD PUSH2 0x484F JUMP JUMPDEST DUP3 SSTORE POP POP POP POP JUMP JUMPDEST PUSH0 SWAP1 JUMP JUMPDEST PUSH2 0x48FB PUSH2 0x48EF JUMP JUMPDEST PUSH2 0x4906 DUP2 DUP5 DUP5 PUSH2 0x48CA JUMP JUMPDEST POP POP POP JUMP JUMPDEST JUMPDEST DUP2 DUP2 LT ISZERO PUSH2 0x4929 JUMPI PUSH2 0x491E PUSH0 DUP3 PUSH2 0x48F3 JUMP JUMPDEST PUSH1 0x1 DUP2 ADD SWAP1 POP PUSH2 0x490C JUMP JUMPDEST POP POP JUMP JUMPDEST PUSH1 0x1F DUP3 GT ISZERO PUSH2 0x496E JUMPI PUSH2 0x493F DUP2 PUSH2 0x4822 JUMP JUMPDEST PUSH2 0x4948 DUP5 PUSH2 0x4834 JUMP JUMPDEST DUP2 ADD PUSH1 0x20 DUP6 LT ISZERO PUSH2 0x4957 JUMPI DUP2 SWAP1 POP JUMPDEST PUSH2 0x496B PUSH2 0x4963 DUP6 PUSH2 0x4834 JUMP JUMPDEST DUP4 ADD DUP3 PUSH2 0x490B JUMP JUMPDEST POP POP JUMPDEST POP POP POP JUMP JUMPDEST PUSH0 DUP3 DUP3 SHR SWAP1 POP SWAP3 SWAP2 POP POP JUMP JUMPDEST PUSH0 PUSH2 0x498E PUSH0 NOT DUP5 PUSH1 0x8 MUL PUSH2 0x4973 JUMP JUMPDEST NOT DUP1 DUP4 AND SWAP2 POP POP SWAP3 SWAP2 POP POP JUMP JUMPDEST PUSH0 PUSH2 0x49A6 DUP4 DUP4 PUSH2 0x497F JUMP JUMPDEST SWAP2 POP DUP3 PUSH1 0x2 MUL DUP3 OR SWAP1 POP SWAP3 SWAP2 POP POP JUMP JUMPDEST PUSH2 0x49BF DUP3 PUSH2 0x3865 JUMP JUMPDEST PUSH8 0xFFFFFFFFFFFFFFFF DUP2 GT ISZERO PUSH2 0x49D8 JUMPI PUSH2 0x49D7 PUSH2 0x3E84 JUMP JUMPDEST JUMPDEST PUSH2 0x49E2 DUP3 SLOAD PUSH2 0x3DD6 JUMP JUMPDEST PUSH2 0x49ED DUP3 DUP3 DUP6 PUSH2 0x492D JUMP JUMPDEST PUSH0 PUSH1 0x20 SWAP1 POP PUSH1 0x1F DUP4 GT PUSH1 0x1 DUP2 EQ PUSH2 0x4A1E JUMPI PUSH0 DUP5 ISZERO PUSH2 0x4A0C JUMPI DUP3 DUP8 ADD MLOAD SWAP1 POP JUMPDEST PUSH2 0x4A16 DUP6 DUP3 PUSH2 0x499B JUMP JUMPDEST DUP7 SSTORE POP PUSH2 0x4A7D JUMP JUMPDEST PUSH1 0x1F NOT DUP5 AND PUSH2 0x4A2C DUP7 PUSH2 0x4822 JUMP JUMPDEST PUSH0 JUMPDEST DUP3 DUP2 LT ISZERO PUSH2 0x4A53 JUMPI DUP5 DUP10 ADD MLOAD DUP3 SSTORE PUSH1 0x1 DUP3 ADD SWAP2 POP PUSH1 0x20 DUP6 ADD SWAP5 POP PUSH1 0x20 DUP2 ADD SWAP1 POP PUSH2 0x4A2E JUMP JUMPDEST DUP7 DUP4 LT ISZERO PUSH2 0x4A70 JUMPI DUP5 DUP10 ADD MLOAD PUSH2 0x4A6C PUSH1 0x1F DUP10 AND DUP3 PUSH2 0x497F JUMP JUMPDEST DUP4 SSTORE POP JUMPDEST PUSH1 0x1 PUSH1 0x2 DUP9 MUL ADD DUP9 SSTORE POP POP POP JUMPDEST POP POP POP POP POP POP JUMP JUMPDEST PUSH0 DUP2 MLOAD SWAP1 POP SWAP2 SWAP1 POP JUMP JUMPDEST PUSH0 DUP3 DUP3 MSTORE PUSH1 0x20 DUP3 ADD SWAP1 POP SWAP3 SWAP2 POP POP JUMP JUMPDEST PUSH0 DUP2 SWAP1 POP PUSH1 0x20 DUP3 ADD SWAP1 POP SWAP2 SWAP1 POP JUMP JUMPDEST PUSH2 0x4AB7 DUP2 PUSH2 0x3531 JUMP JUMPDEST DUP3 MSTORE POP POP JUMP JUMPDEST PUSH0 PUSH1 0x60 DUP4 ADD PUSH0 DUP4 ADD MLOAD PUSH2 0x4AD2 PUSH0 DUP7 ADD DUP3 PUSH2 0x4318 JUMP JUMPDEST POP PUSH1 0x20 DUP4 ADD MLOAD PUSH2 0x4AE5 PUSH1 0x20 DUP7 ADD DUP3 PUSH2 0x4AAE JUMP JUMPDEST POP PUSH1 0x40 DUP4 ADD MLOAD DUP5 DUP3 SUB PUSH1 0x40 DUP7 ADD MSTORE PUSH2 0x4AFD DUP3 DUP3 PUSH2 0x46BB JUMP JUMPDEST SWAP2 POP POP DUP1 SWAP2 POP POP SWAP3 SWAP2 POP POP JUMP JUMPDEST PUSH0 PUSH2 0x4B15 DUP4 DUP4 PUSH2 0x4ABD JUMP JUMPDEST SWAP1 POP SWAP3 SWAP2 POP POP JUMP JUMPDEST PUSH0 PUSH1 0x20 DUP3 ADD SWAP1 POP SWAP2 SWAP1 POP JUMP JUMPDEST PUSH0 PUSH2 0x4B33 DUP3 PUSH2 0x4A85 JUMP JUMPDEST PUSH2 0x4B3D DUP2 DUP6 PUSH2 0x4A8F JUMP JUMPDEST SWAP4 POP DUP4 PUSH1 0x20 DUP3 MUL DUP6 ADD PUSH2 0x4B4F DUP6 PUSH2 0x4A9F JUMP JUMPDEST DUP1 PUSH0 JUMPDEST DUP6 DUP2 LT ISZERO PUSH2 0x4B8A JUMPI DUP5 DUP5 SUB DUP10 MSTORE DUP2 MLOAD PUSH2 0x4B6B DUP6 DUP3 PUSH2 0x4B0A JUMP JUMPDEST SWAP5 POP PUSH2 0x4B76 DUP4 PUSH2 0x4B1D JUMP JUMPDEST SWAP3 POP PUSH1 0x20 DUP11 ADD SWAP10 POP POP PUSH1 0x1 DUP2 ADD SWAP1 POP PUSH2 0x4B52 JUMP JUMPDEST POP DUP3 SWAP8 POP DUP8 SWAP6 POP POP POP POP POP POP SWAP3 SWAP2 POP POP JUMP JUMPDEST PUSH0 PUSH1 0x20 DUP3 ADD SWAP1 POP DUP2 DUP2 SUB PUSH0 DUP4 ADD MSTORE PUSH2 0x4BB4 DUP2 DUP5 PUSH2 0x4B29 JUMP JUMPDEST SWAP1 POP SWAP3 SWAP2 POP POP JUMP JUMPDEST PUSH0 PUSH1 0x40 DUP3 DUP5 SUB SLT ISZERO PUSH2 0x4BD1 JUMPI PUSH2 0x4BD0 PUSH2 0x3F5D JUMP JUMPDEST JUMPDEST PUSH2 0x4BDB PUSH1 0x40 PUSH2 0x3F18 JUMP JUMPDEST SWAP1 POP PUSH0 PUSH2 0x4BEA DUP5 DUP3 DUP6 ADD PUSH2 0x30B8 JUMP JUMPDEST PUSH0 DUP4 ADD MSTORE POP PUSH1 0x20 PUSH2 0x4BFD DUP5 DUP3 DUP6 ADD PUSH2 0x30B8 JUMP JUMPDEST PUSH1 0x20 DUP4 ADD MSTORE POP SWAP3 SWAP2 POP POP JUMP JUMPDEST PUSH0 PUSH1 0x40 DUP3 DUP5 SUB SLT ISZERO PUSH2 0x4C1E JUMPI PUSH2 0x4C1D PUSH2 0x3037 JUMP JUMPDEST JUMPDEST PUSH0 PUSH2 0x4C2B DUP5 DUP3 DUP6 ADD PUSH2 0x4BBC JUMP JUMPDEST SWAP2 POP POP SWAP3 SWAP2 POP POP JUMP JUMPDEST PUSH0 PUSH1 0x60 DUP3 ADD SWAP1 POP PUSH2 0x4C47 PUSH0 DUP4 ADD DUP7 PUSH2 0x3EB1 JUMP JUMPDEST PUSH2 0x4C54 PUSH1 0x20 DUP4 ADD DUP6 PUSH2 0x3610 JUMP JUMPDEST PUSH2 0x4C61 PUSH1 0x40 DUP4 ADD DUP5 PUSH2 0x3610 JUMP JUMPDEST SWAP5 SWAP4 POP POP POP POP JUMP JUMPDEST PUSH32 0x4E487B7100000000000000000000000000000000000000000000000000000000 PUSH0 MSTORE PUSH1 0x12 PUSH1 0x4 MSTORE PUSH1 0x24 PUSH0 REVERT JUMPDEST PUSH32 0x4E487B7100000000000000000000000000000000000000000000000000000000 PUSH0 MSTORE PUSH1 0x11 PUSH1 0x4 MSTORE PUSH1 0x24 PUSH0 REVERT JUMPDEST PUSH0 PUSH2 0x4CCD DUP3 PUSH2 0x3099 JUMP JUMPDEST SWAP2 POP PUSH2 0x4CD8 DUP4 PUSH2 0x3099 JUMP JUMPDEST SWAP3 POP DUP3 PUSH2 0x4CE8 JUMPI PUSH2 0x4CE7 PUSH2 0x4C69 JUMP JUMPDEST JUMPDEST DUP3 DUP3 DIV SWAP1 POP SWAP3 SWAP2 POP POP JUMP JUMPDEST PUSH0 PUSH2 0x4CFD DUP3 PUSH2 0x3099 JUMP JUMPDEST SWAP2 POP PUSH2 0x4D08 DUP4 PUSH2 0x3099 JUMP JUMPDEST SWAP3 POP DUP3 DUP3 MUL PUSH2 0x4D16 DUP2 PUSH2 0x3099 JUMP JUMPDEST SWAP2 POP DUP3 DUP3 DIV DUP5 EQ DUP4 ISZERO OR PUSH2 0x4D2D JUMPI PUSH2 0x4D2C PUSH2 0x4C96 JUMP JUMPDEST JUMPDEST POP SWAP3 SWAP2 POP POP JUMP JUMPDEST PUSH0 DUP3 SWAP1 POP SWAP3 SWAP2 POP POP JUMP JUMPDEST PUSH0 PUSH2 0x4D49 DUP4 DUP4 PUSH2 0x4D34 JUMP JUMPDEST DUP3 PUSH2 0x4D54 DUP2 CALLDATALOAD PUSH2 0x33E6 JUMP JUMPDEST SWAP3 POP PUSH1 0x20 DUP3 LT ISZERO PUSH2 0x4D94 JUMPI PUSH2 0x4D8F PUSH32 0xFFFFFFFFFFFFFFFFFFFFFFFFFFFFFFFFFFFFFFFFFFFFFFFFFFFFFFFFFFFFFFFF DUP4 PUSH1 0x20 SUB PUSH1 0x8 MUL PUSH2 0x4843 JUMP JUMPDEST DUP4 AND SWAP3 POP JUMPDEST POP POP SWAP3 SWAP2 POP POP JUMP JUMPDEST PUSH0 PUSH32 0xFFFFFFFFFFFFFFFF000000000000000000000000000000000000000000000000 DUP3 AND SWAP1 POP SWAP2 SWAP1 POP JUMP JUMPDEST PUSH0 PUSH2 0x4DD2 DUP4 DUP4 PUSH2 0x4D34 JUMP JUMPDEST DUP3 PUSH2 0x4DDD DUP2 CALLDATALOAD PUSH2 0x4D9C JUMP JUMPDEST SWAP3 POP PUSH1 0x8 DUP3 LT ISZERO PUSH2 0x4E1D JUMPI PUSH2 0x4E18 PUSH32 0xFFFFFFFFFFFFFFFF000000000000000000000000000000000000000000000000 DUP4 PUSH1 0x8 SUB PUSH1 0x8 MUL PUSH2 0x4843 JUMP JUMPDEST DUP4 AND SWAP3 POP JUMPDEST POP POP SWAP3 SWAP2 POP POP JUMP JUMPDEST PUSH0 DUP2 PUSH1 0xC0 SHL SWAP1 POP SWAP2 SWAP1 POP JUMP JUMPDEST PUSH0 PUSH2 0x4E3B DUP3 PUSH2 0x4E25 JUMP JUMPDEST SWAP1 POP SWAP2 SWAP1 POP JUMP JUMPDEST PUSH2 0x4E53 PUSH2 0x4E4E DUP3 PUSH2 0x35A0 JUMP JUMPDEST PUSH2 0x4E31 JUMP JUMPDEST DUP3 MSTORE POP POP JUMP JUMPDEST PUSH0 DUP2 PUSH1 0xE0 SHL SWAP1 POP SWAP2 SWAP1 POP JUMP JUMPDEST PUSH0 PUSH2 0x4E6F DUP3 PUSH2 0x4E59 JUMP JUMPDEST SWAP1 POP SWAP2 SWAP1 POP JUMP JUMPDEST PUSH2 0x4E87 PUSH2 0x4E82 DUP3 PUSH2 0x36BC JUMP JUMPDEST PUSH2 0x4E65 JUMP JUMPDEST DUP3 MSTORE POP POP JUMP JUMPDEST PUSH0 DUP2 SWAP1 POP SWAP2 SWAP1 POP JUMP JUMPDEST PUSH2 0x4EA7 PUSH2 0x4EA2 DUP3 PUSH2 0x3099 JUMP JUMPDEST PUSH2 0x4E8D JUMP JUMPDEST DUP3 MSTORE POP POP JUMP JUMPDEST PUSH0 PUSH2 0x4EB8 DUP3 DUP8 PUSH2 0x4E42 JUMP JUMPDEST PUSH1 0x8 DUP3 ADD SWAP2 POP PUSH2 0x4EC8 DUP3 DUP7 PUSH2 0x4E76 JUMP JUMPDEST PUSH1 0x4 DUP3 ADD SWAP2 POP PUSH2 0x4ED8 DUP3 DUP6 PUSH2 0x4E96 JUMP JUMPDEST PUSH1 0x20 DUP3 ADD SWAP2 POP PUSH2 0x4EE8 DUP3 DUP5 PUSH2 0x4178 JUMP JUMPDEST SWAP2 POP DUP2 SWAP1 POP SWAP6 SWAP5 POP POP POP POP POP JUMP JUMPDEST PUSH0 PUSH2 0x4F00 DUP3 PUSH2 0x3099 JUMP JUMPDEST SWAP2 POP PUSH2 0x4F0B DUP4 PUSH2 0x3099 JUMP JUMPDEST SWAP3 POP DUP3 DUP3 ADD SWAP1 POP DUP1 DUP3 GT ISZERO PUSH2 0x4F23 JUMPI PUSH2 0x4F22 PUSH2 0x4C96 JUMP JUMPDEST JUMPDEST SWAP3 SWAP2 POP POP JUMP JUMPDEST PUSH0 DUP2 SWAP1 POP SWAP2 SWAP1 POP JUMP JUMPDEST PUSH2 0x4F43 PUSH2 0x4F3E DUP3 PUSH2 0x33E6 JUMP JUMPDEST PUSH2 0x4F29 JUMP JUMPDEST DUP3 MSTORE POP POP JUMP JUMPDEST PUSH0 PUSH2 0x4F54 DUP3 DUP6 PUSH2 0x4F32 JUMP JUMPDEST PUSH1 0x20 DUP3 ADD SWAP2 POP PUSH2 0x4F64 DUP3 DUP5 PUSH2 0x4E42 JUMP JUMPDEST PUSH1 0x8 DUP3 ADD SWAP2 POP DUP2 SWAP1 POP SWAP4 SWAP3 POP POP POP JUMP JUMPDEST PUSH0 PUSH2 0x4F7F DUP3 DUP8 PUSH2 0x4F32 JUMP JUMPDEST PUSH1 0x20 DUP3 ADD SWAP2 POP PUSH2 0x4F8F DUP3 DUP7 PUSH2 0x4E42 JUMP JUMPDEST PUSH1 0x8 DUP3 ADD SWAP2 POP PUSH2 0x4F9F DUP3 DUP6 PUSH2 0x4F32 JUMP JUMPDEST PUSH1 0x20 DUP3 ADD SWAP2 POP PUSH2 0x4FAF DUP3 DUP5 PUSH2 0x4178 JUMP JUMPDEST SWAP2 POP DUP2 SWAP1 POP SWAP6 SWAP5 POP POP POP POP POP JUMP JUMPDEST PUSH0 DUP2 MLOAD SWAP1 POP PUSH2 0x4FCB DUP2 PUSH2 0x33EF JUMP JUMPDEST SWAP3 SWAP2 POP POP JUMP JUMPDEST PUSH0 DUP2 MLOAD SWAP1 POP PUSH2 0x4FDF DUP2 PUSH2 0x433D JUMP JUMPDEST SWAP3 SWAP2 POP POP JUMP JUMPDEST PUSH0 PUSH1 0x80 DUP3 DUP5 SUB SLT ISZERO PUSH2 0x4FFA JUMPI PUSH2 0x4FF9 PUSH2 0x3F5D JUMP JUMPDEST JUMPDEST PUSH2 0x5004 PUSH1 0x60 PUSH2 0x3F18 JUMP JUMPDEST SWAP1 POP PUSH0 PUSH2 0x5013 DUP5 DUP3 DUP6 ADD PUSH2 0x4FBD JUMP JUMPDEST PUSH0 DUP4 ADD MSTORE POP PUSH1 0x20 PUSH2 0x5026 DUP5 DUP3 DUP6 ADD PUSH2 0x4FD1 JUMP JUMPDEST PUSH1 0x20 DUP4 ADD MSTORE POP PUSH1 0x40 PUSH2 0x503A DUP5 DUP3 DUP6 ADD PUSH2 0x47AA JUMP JUMPDEST PUSH1 0x40 DUP4 ADD MSTORE POP SWAP3 SWAP2 POP POP JUMP JUMPDEST PUSH0 PUSH1 0x80 DUP3 DUP5 SUB SLT ISZERO PUSH2 0x505B JUMPI PUSH2 0x505A PUSH2 0x3037 JUMP JUMPDEST JUMPDEST PUSH0 PUSH2 0x5068 DUP5 DUP3 DUP6 ADD PUSH2 0x4FE5 JUMP JUMPDEST SWAP2 POP POP SWAP3 SWAP2 POP POP JUMP JUMPDEST PUSH0 PUSH1 0x60 DUP3 ADD SWAP1 POP PUSH2 0x5084 PUSH0 DUP4 ADD DUP7 PUSH2 0x33A0 JUMP JUMPDEST PUSH2 0x5091 PUSH1 0x20 DUP4 ADD DUP6 PUSH2 0x33A0 JUMP JUMPDEST PUSH2 0x509E PUSH1 0x40 DUP4 ADD DUP5 PUSH2 0x3610 JUMP JUMPDEST SWAP5 SWAP4 POP POP POP POP JUMP INVALID LOG2 PUSH5 0x6970667358 0x22 SLT KECCAK256 0xAB 0xEE MCOPY 0xB3 0xEB PUSH1 0x89 PREVRANDAO JUMPI PUSH29 0x59F18F77F08CF16A9B2E663BC5EDFE3AF42BCD6BB6AB64736F6C634300 ADDMOD NOT STOP CALLER "
		},
		"gasEstimates": {
			"creation": {
				"codeDepositCost": "4140000",
				"executionCost": "infinite",
				"totalCost": "infinite"
			},
			"external": {
				"SEND()": "465",
				"SEND_AND_CALL()": "377",
				"allowInitializePath((uint32,bytes32,uint64))": "3150",
				"allowance(address,address)": "infinite",
				"approvalRequired()": "397",
				"approve(address,uint256)": "infinite",
				"balanceOf(address)": "2962",
				"combineOptions(uint32,uint16,bytes)": "infinite",
				"decimalConversionRate()": "infinite",
				"decimals()": "406",
				"endpoint()": "infinite",
				"enforcedOptions(uint32,uint16)": "infinite",
				"isComposeMsgSender((uint32,bytes32,uint64),bytes,address)": "1077",
				"isPeer(uint32,bytes32)": "3037",
				"lzReceive((uint32,bytes32,uint64),bytes32,bytes,address,bytes)": "infinite",
				"lzReceiveAndRevert(((uint32,bytes32,uint64),uint32,address,bytes32,uint256,address,bytes,bytes)[])": "infinite",
				"lzReceiveSimulate((uint32,bytes32,uint64),bytes32,bytes,address,bytes)": "infinite",
				"msgInspector()": "2621",
				"name()": "infinite",
				"nextNonce(uint32,bytes32)": "814",
				"oApp()": "513",
				"oAppVersion()": "infinite",
				"oftVersion()": "525",
				"owner()": "2627",
				"peers(uint32)": "2805",
				"preCrime()": "2619",
				"quoteOFT((uint32,bytes32,uint256,uint256,bytes,bytes,bytes))": "infinite",
				"quoteSend((uint32,bytes32,uint256,uint256,bytes,bytes,bytes),bool)": "infinite",
				"renounceOwnership()": "infinite",
				"send((uint32,bytes32,uint256,uint256,bytes,bytes,bytes),(uint256,uint256),address)": "infinite",
				"setDelegate(address)": "infinite",
				"setEnforcedOptions((uint32,uint16,bytes)[])": "infinite",
				"setMsgInspector(address)": "infinite",
				"setPeer(uint32,bytes32)": "infinite",
				"setPreCrime(address)": "infinite",
				"sharedDecimals()": "428",
				"symbol()": "infinite",
				"token()": "511",
				"totalSupply()": "2544",
				"transfer(address,uint256)": "infinite",
				"transferFrom(address,address,uint256)": "infinite",
				"transferOwnership(address)": "infinite"
			}
		},
		"methodIdentifiers": {
			"SEND()": "1f5e1334",
			"SEND_AND_CALL()": "134d4f25",
			"allowInitializePath((uint32,bytes32,uint64))": "ff7bd03d",
			"allowance(address,address)": "dd62ed3e",
			"approvalRequired()": "9f68b964",
			"approve(address,uint256)": "095ea7b3",
			"balanceOf(address)": "70a08231",
			"combineOptions(uint32,uint16,bytes)": "bc70b354",
			"decimalConversionRate()": "963efcaa",
			"decimals()": "313ce567",
			"endpoint()": "5e280f11",
			"enforcedOptions(uint32,uint16)": "5535d461",
			"isComposeMsgSender((uint32,bytes32,uint64),bytes,address)": "82413eac",
			"isPeer(uint32,bytes32)": "5a0dfe4d",
			"lzReceive((uint32,bytes32,uint64),bytes32,bytes,address,bytes)": "13137d65",
			"lzReceiveAndRevert(((uint32,bytes32,uint64),uint32,address,bytes32,uint256,address,bytes,bytes)[])": "bd815db0",
			"lzReceiveSimulate((uint32,bytes32,uint64),bytes32,bytes,address,bytes)": "d045a0dc",
			"msgInspector()": "111ecdad",
			"name()": "06fdde03",
			"nextNonce(uint32,bytes32)": "7d25a05e",
			"oApp()": "52ae2879",
			"oAppVersion()": "17442b70",
			"oftVersion()": "156a0d0f",
			"owner()": "8da5cb5b",
			"peers(uint32)": "bb0b6a53",
			"preCrime()": "b731ea0a",
			"quoteOFT((uint32,bytes32,uint256,uint256,bytes,bytes,bytes))": "0d35b415",
			"quoteSend((uint32,bytes32,uint256,uint256,bytes,bytes,bytes),bool)": "3b6f743b",
			"renounceOwnership()": "715018a6",
			"send((uint32,bytes32,uint256,uint256,bytes,bytes,bytes),(uint256,uint256),address)": "c7c7f5b3",
			"setDelegate(address)": "ca5eb5e1",
			"setEnforcedOptions((uint32,uint16,bytes)[])": "b98bd070",
			"setMsgInspector(address)": "6fc1b31e",
			"setPeer(uint32,bytes32)": "3400288b",
			"setPreCrime(address)": "d4243885",
			"sharedDecimals()": "857749b0",
			"symbol()": "95d89b41",
			"token()": "fc0c546a",
			"totalSupply()": "18160ddd",
			"transfer(address,uint256)": "a9059cbb",
			"transferFrom(address,address,uint256)": "23b872dd",
			"transferOwnership(address)": "f2fde38b"
		}
	},
	"abi": [
		{
			"inputs": [
				{
					"internalType": "string",
					"name": "_name",
					"type": "string"
				},
				{
					"internalType": "string",
					"name": "_symbol",
					"type": "string"
				},
				{
					"internalType": "address",
					"name": "_lzEndpoint",
					"type": "address"
				},
				{
					"internalType": "address",
					"name": "_delegate",
					"type": "address"
				}
			],
			"stateMutability": "nonpayable",
			"type": "constructor"
		},
		{
			"inputs": [
				{
					"internalType": "address",
					"name": "spender",
					"type": "address"
				},
				{
					"internalType": "uint256",
					"name": "allowance",
					"type": "uint256"
				},
				{
					"internalType": "uint256",
					"name": "needed",
					"type": "uint256"
				}
			],
			"name": "ERC20InsufficientAllowance",
			"type": "error"
		},
		{
			"inputs": [
				{
					"internalType": "address",
					"name": "sender",
					"type": "address"
				},
				{
					"internalType": "uint256",
					"name": "balance",
					"type": "uint256"
				},
				{
					"internalType": "uint256",
					"name": "needed",
					"type": "uint256"
				}
			],
			"name": "ERC20InsufficientBalance",
			"type": "error"
		},
		{
			"inputs": [
				{
					"internalType": "address",
					"name": "approver",
					"type": "address"
				}
			],
			"name": "ERC20InvalidApprover",
			"type": "error"
		},
		{
			"inputs": [
				{
					"internalType": "address",
					"name": "receiver",
					"type": "address"
				}
			],
			"name": "ERC20InvalidReceiver",
			"type": "error"
		},
		{
			"inputs": [
				{
					"internalType": "address",
					"name": "sender",
					"type": "address"
				}
			],
			"name": "ERC20InvalidSender",
			"type": "error"
		},
		{
			"inputs": [
				{
					"internalType": "address",
					"name": "spender",
					"type": "address"
				}
			],
			"name": "ERC20InvalidSpender",
			"type": "error"
		},
		{
			"inputs": [],
			"name": "InvalidDelegate",
			"type": "error"
		},
		{
			"inputs": [],
			"name": "InvalidEndpointCall",
			"type": "error"
		},
		{
			"inputs": [],
			"name": "InvalidLocalDecimals",
			"type": "error"
		},
		{
			"inputs": [
				{
					"internalType": "bytes",
					"name": "options",
					"type": "bytes"
				}
			],
			"name": "InvalidOptions",
			"type": "error"
		},
		{
			"inputs": [],
			"name": "LzTokenUnavailable",
			"type": "error"
		},
		{
			"inputs": [
				{
					"internalType": "uint32",
					"name": "eid",
					"type": "uint32"
				}
			],
			"name": "NoPeer",
			"type": "error"
		},
		{
			"inputs": [
				{
					"internalType": "uint256",
					"name": "msgValue",
					"type": "uint256"
				}
			],
			"name": "NotEnoughNative",
			"type": "error"
		},
		{
			"inputs": [
				{
					"internalType": "address",
					"name": "addr",
					"type": "address"
				}
			],
			"name": "OnlyEndpoint",
			"type": "error"
		},
		{
			"inputs": [
				{
					"internalType": "uint32",
					"name": "eid",
					"type": "uint32"
				},
				{
					"internalType": "bytes32",
					"name": "sender",
					"type": "bytes32"
				}
			],
			"name": "OnlyPeer",
			"type": "error"
		},
		{
			"inputs": [],
			"name": "OnlySelf",
			"type": "error"
		},
		{
			"inputs": [
				{
					"internalType": "address",
					"name": "owner",
					"type": "address"
				}
			],
			"name": "OwnableInvalidOwner",
			"type": "error"
		},
		{
			"inputs": [
				{
					"internalType": "address",
					"name": "account",
					"type": "address"
				}
			],
			"name": "OwnableUnauthorizedAccount",
			"type": "error"
		},
		{
			"inputs": [
				{
					"internalType": "address",
					"name": "token",
					"type": "address"
				}
			],
			"name": "SafeERC20FailedOperation",
			"type": "error"
		},
		{
			"inputs": [
				{
					"internalType": "bytes",
					"name": "result",
					"type": "bytes"
				}
			],
			"name": "SimulationResult",
			"type": "error"
		},
		{
			"inputs": [
				{
					"internalType": "uint256",
					"name": "amountLD",
					"type": "uint256"
				},
				{
					"internalType": "uint256",
					"name": "minAmountLD",
					"type": "uint256"
				}
			],
			"name": "SlippageExceeded",
			"type": "error"
		},
		{
			"anonymous": false,
			"inputs": [
				{
					"indexed": true,
					"internalType": "address",
					"name": "owner",
					"type": "address"
				},
				{
					"indexed": true,
					"internalType": "address",
					"name": "spender",
					"type": "address"
				},
				{
					"indexed": false,
					"internalType": "uint256",
					"name": "value",
					"type": "uint256"
				}
			],
			"name": "Approval",
			"type": "event"
		},
		{
			"anonymous": false,
			"inputs": [
				{
					"components": [
						{
							"internalType": "uint32",
							"name": "eid",
							"type": "uint32"
						},
						{
							"internalType": "uint16",
							"name": "msgType",
							"type": "uint16"
						},
						{
							"internalType": "bytes",
							"name": "options",
							"type": "bytes"
						}
					],
					"indexed": false,
					"internalType": "struct EnforcedOptionParam[]",
					"name": "_enforcedOptions",
					"type": "tuple[]"
				}
			],
			"name": "EnforcedOptionSet",
			"type": "event"
		},
		{
			"anonymous": false,
			"inputs": [
				{
					"indexed": false,
					"internalType": "address",
					"name": "inspector",
					"type": "address"
				}
			],
			"name": "MsgInspectorSet",
			"type": "event"
		},
		{
			"anonymous": false,
			"inputs": [
				{
					"indexed": true,
					"internalType": "bytes32",
					"name": "guid",
					"type": "bytes32"
				},
				{
					"indexed": false,
					"internalType": "uint32",
					"name": "srcEid",
					"type": "uint32"
				},
				{
					"indexed": true,
					"internalType": "address",
					"name": "toAddress",
					"type": "address"
				},
				{
					"indexed": false,
					"internalType": "uint256",
					"name": "amountReceivedLD",
					"type": "uint256"
				}
			],
			"name": "OFTReceived",
			"type": "event"
		},
		{
			"anonymous": false,
			"inputs": [
				{
					"indexed": true,
					"internalType": "bytes32",
					"name": "guid",
					"type": "bytes32"
				},
				{
					"indexed": false,
					"internalType": "uint32",
					"name": "dstEid",
					"type": "uint32"
				},
				{
					"indexed": true,
					"internalType": "address",
					"name": "fromAddress",
					"type": "address"
				},
				{
					"indexed": false,
					"internalType": "uint256",
					"name": "amountSentLD",
					"type": "uint256"
				},
				{
					"indexed": false,
					"internalType": "uint256",
					"name": "amountReceivedLD",
					"type": "uint256"
				}
			],
			"name": "OFTSent",
			"type": "event"
		},
		{
			"anonymous": false,
			"inputs": [
				{
					"indexed": true,
					"internalType": "address",
					"name": "previousOwner",
					"type": "address"
				},
				{
					"indexed": true,
					"internalType": "address",
					"name": "newOwner",
					"type": "address"
				}
			],
			"name": "OwnershipTransferred",
			"type": "event"
		},
		{
			"anonymous": false,
			"inputs": [
				{
					"indexed": false,
					"internalType": "uint32",
					"name": "eid",
					"type": "uint32"
				},
				{
					"indexed": false,
					"internalType": "bytes32",
					"name": "peer",
					"type": "bytes32"
				}
			],
			"name": "PeerSet",
			"type": "event"
		},
		{
			"anonymous": false,
			"inputs": [
				{
					"indexed": false,
					"internalType": "address",
					"name": "preCrimeAddress",
					"type": "address"
				}
			],
			"name": "PreCrimeSet",
			"type": "event"
		},
		{
			"anonymous": false,
			"inputs": [
				{
					"indexed": true,
					"internalType": "address",
					"name": "from",
					"type": "address"
				},
				{
					"indexed": true,
					"internalType": "address",
					"name": "to",
					"type": "address"
				},
				{
					"indexed": false,
					"internalType": "uint256",
					"name": "value",
					"type": "uint256"
				}
			],
			"name": "Transfer",
			"type": "event"
		},
		{
			"inputs": [],
			"name": "SEND",
			"outputs": [
				{
					"internalType": "uint16",
					"name": "",
					"type": "uint16"
				}
			],
			"stateMutability": "view",
			"type": "function"
		},
		{
			"inputs": [],
			"name": "SEND_AND_CALL",
			"outputs": [
				{
					"internalType": "uint16",
					"name": "",
					"type": "uint16"
				}
			],
			"stateMutability": "view",
			"type": "function"
		},
		{
			"inputs": [
				{
					"components": [
						{
							"internalType": "uint32",
							"name": "srcEid",
							"type": "uint32"
						},
						{
							"internalType": "bytes32",
							"name": "sender",
							"type": "bytes32"
						},
						{
							"internalType": "uint64",
							"name": "nonce",
							"type": "uint64"
						}
					],
					"internalType": "struct Origin",
					"name": "origin",
					"type": "tuple"
				}
			],
			"name": "allowInitializePath",
			"outputs": [
				{
					"internalType": "bool",
					"name": "",
					"type": "bool"
				}
			],
			"stateMutability": "view",
			"type": "function"
		},
		{
			"inputs": [
				{
					"internalType": "address",
					"name": "owner",
					"type": "address"
				},
				{
					"internalType": "address",
					"name": "spender",
					"type": "address"
				}
			],
			"name": "allowance",
			"outputs": [
				{
					"internalType": "uint256",
					"name": "",
					"type": "uint256"
				}
			],
			"stateMutability": "view",
			"type": "function"
		},
		{
			"inputs": [],
			"name": "approvalRequired",
			"outputs": [
				{
					"internalType": "bool",
					"name": "",
					"type": "bool"
				}
			],
			"stateMutability": "pure",
			"type": "function"
		},
		{
			"inputs": [
				{
					"internalType": "address",
					"name": "spender",
					"type": "address"
				},
				{
					"internalType": "uint256",
					"name": "value",
					"type": "uint256"
				}
			],
			"name": "approve",
			"outputs": [
				{
					"internalType": "bool",
					"name": "",
					"type": "bool"
				}
			],
			"stateMutability": "nonpayable",
			"type": "function"
		},
		{
			"inputs": [
				{
					"internalType": "address",
					"name": "account",
					"type": "address"
				}
			],
			"name": "balanceOf",
			"outputs": [
				{
					"internalType": "uint256",
					"name": "",
					"type": "uint256"
				}
			],
			"stateMutability": "view",
			"type": "function"
		},
		{
			"inputs": [
				{
					"internalType": "uint32",
					"name": "_eid",
					"type": "uint32"
				},
				{
					"internalType": "uint16",
					"name": "_msgType",
					"type": "uint16"
				},
				{
					"internalType": "bytes",
					"name": "_extraOptions",
					"type": "bytes"
				}
			],
			"name": "combineOptions",
			"outputs": [
				{
					"internalType": "bytes",
					"name": "",
					"type": "bytes"
				}
			],
			"stateMutability": "view",
			"type": "function"
		},
		{
			"inputs": [],
			"name": "decimalConversionRate",
			"outputs": [
				{
					"internalType": "uint256",
					"name": "",
					"type": "uint256"
				}
			],
			"stateMutability": "view",
			"type": "function"
		},
		{
			"inputs": [],
			"name": "decimals",
			"outputs": [
				{
					"internalType": "uint8",
					"name": "",
					"type": "uint8"
				}
			],
			"stateMutability": "view",
			"type": "function"
		},
		{
			"inputs": [],
			"name": "endpoint",
			"outputs": [
				{
					"internalType": "contract ILayerZeroEndpointV2",
					"name": "",
					"type": "address"
				}
			],
			"stateMutability": "view",
			"type": "function"
		},
		{
			"inputs": [
				{
					"internalType": "uint32",
					"name": "eid",
					"type": "uint32"
				},
				{
					"internalType": "uint16",
					"name": "msgType",
					"type": "uint16"
				}
			],
			"name": "enforcedOptions",
			"outputs": [
				{
					"internalType": "bytes",
					"name": "enforcedOption",
					"type": "bytes"
				}
			],
			"stateMutability": "view",
			"type": "function"
		},
		{
			"inputs": [
				{
					"components": [
						{
							"internalType": "uint32",
							"name": "srcEid",
							"type": "uint32"
						},
						{
							"internalType": "bytes32",
							"name": "sender",
							"type": "bytes32"
						},
						{
							"internalType": "uint64",
							"name": "nonce",
							"type": "uint64"
						}
					],
					"internalType": "struct Origin",
					"name": "",
					"type": "tuple"
				},
				{
					"internalType": "bytes",
					"name": "",
					"type": "bytes"
				},
				{
					"internalType": "address",
					"name": "_sender",
					"type": "address"
				}
			],
			"name": "isComposeMsgSender",
			"outputs": [
				{
					"internalType": "bool",
					"name": "",
					"type": "bool"
				}
			],
			"stateMutability": "view",
			"type": "function"
		},
		{
			"inputs": [
				{
					"internalType": "uint32",
					"name": "_eid",
					"type": "uint32"
				},
				{
					"internalType": "bytes32",
					"name": "_peer",
					"type": "bytes32"
				}
			],
			"name": "isPeer",
			"outputs": [
				{
					"internalType": "bool",
					"name": "",
					"type": "bool"
				}
			],
			"stateMutability": "view",
			"type": "function"
		},
		{
			"inputs": [
				{
					"components": [
						{
							"internalType": "uint32",
							"name": "srcEid",
							"type": "uint32"
						},
						{
							"internalType": "bytes32",
							"name": "sender",
							"type": "bytes32"
						},
						{
							"internalType": "uint64",
							"name": "nonce",
							"type": "uint64"
						}
					],
					"internalType": "struct Origin",
					"name": "_origin",
					"type": "tuple"
				},
				{
					"internalType": "bytes32",
					"name": "_guid",
					"type": "bytes32"
				},
				{
					"internalType": "bytes",
					"name": "_message",
					"type": "bytes"
				},
				{
					"internalType": "address",
					"name": "_executor",
					"type": "address"
				},
				{
					"internalType": "bytes",
					"name": "_extraData",
					"type": "bytes"
				}
			],
			"name": "lzReceive",
			"outputs": [],
			"stateMutability": "payable",
			"type": "function"
		},
		{
			"inputs": [
				{
					"components": [
						{
							"components": [
								{
									"internalType": "uint32",
									"name": "srcEid",
									"type": "uint32"
								},
								{
									"internalType": "bytes32",
									"name": "sender",
									"type": "bytes32"
								},
								{
									"internalType": "uint64",
									"name": "nonce",
									"type": "uint64"
								}
							],
							"internalType": "struct Origin",
							"name": "origin",
							"type": "tuple"
						},
						{
							"internalType": "uint32",
							"name": "dstEid",
							"type": "uint32"
						},
						{
							"internalType": "address",
							"name": "receiver",
							"type": "address"
						},
						{
							"internalType": "bytes32",
							"name": "guid",
							"type": "bytes32"
						},
						{
							"internalType": "uint256",
							"name": "value",
							"type": "uint256"
						},
						{
							"internalType": "address",
							"name": "executor",
							"type": "address"
						},
						{
							"internalType": "bytes",
							"name": "message",
							"type": "bytes"
						},
						{
							"internalType": "bytes",
							"name": "extraData",
							"type": "bytes"
						}
					],
					"internalType": "struct InboundPacket[]",
					"name": "_packets",
					"type": "tuple[]"
				}
			],
			"name": "lzReceiveAndRevert",
			"outputs": [],
			"stateMutability": "payable",
			"type": "function"
		},
		{
			"inputs": [
				{
					"components": [
						{
							"internalType": "uint32",
							"name": "srcEid",
							"type": "uint32"
						},
						{
							"internalType": "bytes32",
							"name": "sender",
							"type": "bytes32"
						},
						{
							"internalType": "uint64",
							"name": "nonce",
							"type": "uint64"
						}
					],
					"internalType": "struct Origin",
					"name": "_origin",
					"type": "tuple"
				},
				{
					"internalType": "bytes32",
					"name": "_guid",
					"type": "bytes32"
				},
				{
					"internalType": "bytes",
					"name": "_message",
					"type": "bytes"
				},
				{
					"internalType": "address",
					"name": "_executor",
					"type": "address"
				},
				{
					"internalType": "bytes",
					"name": "_extraData",
					"type": "bytes"
				}
			],
			"name": "lzReceiveSimulate",
			"outputs": [],
			"stateMutability": "payable",
			"type": "function"
		},
		{
			"inputs": [],
			"name": "msgInspector",
			"outputs": [
				{
					"internalType": "address",
					"name": "",
					"type": "address"
				}
			],
			"stateMutability": "view",
			"type": "function"
		},
		{
			"inputs": [],
			"name": "name",
			"outputs": [
				{
					"internalType": "string",
					"name": "",
					"type": "string"
				}
			],
			"stateMutability": "view",
			"type": "function"
		},
		{
			"inputs": [
				{
					"internalType": "uint32",
					"name": "",
					"type": "uint32"
				},
				{
					"internalType": "bytes32",
					"name": "",
					"type": "bytes32"
				}
			],
			"name": "nextNonce",
			"outputs": [
				{
					"internalType": "uint64",
					"name": "nonce",
					"type": "uint64"
				}
			],
			"stateMutability": "view",
			"type": "function"
		},
		{
			"inputs": [],
			"name": "oApp",
			"outputs": [
				{
					"internalType": "address",
					"name": "",
					"type": "address"
				}
			],
			"stateMutability": "view",
			"type": "function"
		},
		{
			"inputs": [],
			"name": "oAppVersion",
			"outputs": [
				{
					"internalType": "uint64",
					"name": "senderVersion",
					"type": "uint64"
				},
				{
					"internalType": "uint64",
					"name": "receiverVersion",
					"type": "uint64"
				}
			],
			"stateMutability": "pure",
			"type": "function"
		},
		{
			"inputs": [],
			"name": "oftVersion",
			"outputs": [
				{
					"internalType": "bytes4",
					"name": "interfaceId",
					"type": "bytes4"
				},
				{
					"internalType": "uint64",
					"name": "version",
					"type": "uint64"
				}
			],
			"stateMutability": "pure",
			"type": "function"
		},
		{
			"inputs": [],
			"name": "owner",
			"outputs": [
				{
					"internalType": "address",
					"name": "",
					"type": "address"
				}
			],
			"stateMutability": "view",
			"type": "function"
		},
		{
			"inputs": [
				{
					"internalType": "uint32",
					"name": "eid",
					"type": "uint32"
				}
			],
			"name": "peers",
			"outputs": [
				{
					"internalType": "bytes32",
					"name": "peer",
					"type": "bytes32"
				}
			],
			"stateMutability": "view",
			"type": "function"
		},
		{
			"inputs": [],
			"name": "preCrime",
			"outputs": [
				{
					"internalType": "address",
					"name": "",
					"type": "address"
				}
			],
			"stateMutability": "view",
			"type": "function"
		},
		{
			"inputs": [
				{
					"components": [
						{
							"internalType": "uint32",
							"name": "dstEid",
							"type": "uint32"
						},
						{
							"internalType": "bytes32",
							"name": "to",
							"type": "bytes32"
						},
						{
							"internalType": "uint256",
							"name": "amountLD",
							"type": "uint256"
						},
						{
							"internalType": "uint256",
							"name": "minAmountLD",
							"type": "uint256"
						},
						{
							"internalType": "bytes",
							"name": "extraOptions",
							"type": "bytes"
						},
						{
							"internalType": "bytes",
							"name": "composeMsg",
							"type": "bytes"
						},
						{
							"internalType": "bytes",
							"name": "oftCmd",
							"type": "bytes"
						}
					],
					"internalType": "struct SendParam",
					"name": "_sendParam",
					"type": "tuple"
				}
			],
			"name": "quoteOFT",
			"outputs": [
				{
					"components": [
						{
							"internalType": "uint256",
							"name": "minAmountLD",
							"type": "uint256"
						},
						{
							"internalType": "uint256",
							"name": "maxAmountLD",
							"type": "uint256"
						}
					],
					"internalType": "struct OFTLimit",
					"name": "oftLimit",
					"type": "tuple"
				},
				{
					"components": [
						{
							"internalType": "int256",
							"name": "feeAmountLD",
							"type": "int256"
						},
						{
							"internalType": "string",
							"name": "description",
							"type": "string"
						}
					],
					"internalType": "struct OFTFeeDetail[]",
					"name": "oftFeeDetails",
					"type": "tuple[]"
				},
				{
					"components": [
						{
							"internalType": "uint256",
							"name": "amountSentLD",
							"type": "uint256"
						},
						{
							"internalType": "uint256",
							"name": "amountReceivedLD",
							"type": "uint256"
						}
					],
					"internalType": "struct OFTReceipt",
					"name": "oftReceipt",
					"type": "tuple"
				}
			],
			"stateMutability": "view",
			"type": "function"
		},
		{
			"inputs": [
				{
					"components": [
						{
							"internalType": "uint32",
							"name": "dstEid",
							"type": "uint32"
						},
						{
							"internalType": "bytes32",
							"name": "to",
							"type": "bytes32"
						},
						{
							"internalType": "uint256",
							"name": "amountLD",
							"type": "uint256"
						},
						{
							"internalType": "uint256",
							"name": "minAmountLD",
							"type": "uint256"
						},
						{
							"internalType": "bytes",
							"name": "extraOptions",
							"type": "bytes"
						},
						{
							"internalType": "bytes",
							"name": "composeMsg",
							"type": "bytes"
						},
						{
							"internalType": "bytes",
							"name": "oftCmd",
							"type": "bytes"
						}
					],
					"internalType": "struct SendParam",
					"name": "_sendParam",
					"type": "tuple"
				},
				{
					"internalType": "bool",
					"name": "_payInLzToken",
					"type": "bool"
				}
			],
			"name": "quoteSend",
			"outputs": [
				{
					"components": [
						{
							"internalType": "uint256",
							"name": "nativeFee",
							"type": "uint256"
						},
						{
							"internalType": "uint256",
							"name": "lzTokenFee",
							"type": "uint256"
						}
					],
					"internalType": "struct MessagingFee",
					"name": "msgFee",
					"type": "tuple"
				}
			],
			"stateMutability": "view",
			"type": "function"
		},
		{
			"inputs": [],
			"name": "renounceOwnership",
			"outputs": [],
			"stateMutability": "nonpayable",
			"type": "function"
		},
		{
			"inputs": [
				{
					"components": [
						{
							"internalType": "uint32",
							"name": "dstEid",
							"type": "uint32"
						},
						{
							"internalType": "bytes32",
							"name": "to",
							"type": "bytes32"
						},
						{
							"internalType": "uint256",
							"name": "amountLD",
							"type": "uint256"
						},
						{
							"internalType": "uint256",
							"name": "minAmountLD",
							"type": "uint256"
						},
						{
							"internalType": "bytes",
							"name": "extraOptions",
							"type": "bytes"
						},
						{
							"internalType": "bytes",
							"name": "composeMsg",
							"type": "bytes"
						},
						{
							"internalType": "bytes",
							"name": "oftCmd",
							"type": "bytes"
						}
					],
					"internalType": "struct SendParam",
					"name": "_sendParam",
					"type": "tuple"
				},
				{
					"components": [
						{
							"internalType": "uint256",
							"name": "nativeFee",
							"type": "uint256"
						},
						{
							"internalType": "uint256",
							"name": "lzTokenFee",
							"type": "uint256"
						}
					],
					"internalType": "struct MessagingFee",
					"name": "_fee",
					"type": "tuple"
				},
				{
					"internalType": "address",
					"name": "_refundAddress",
					"type": "address"
				}
			],
			"name": "send",
			"outputs": [
				{
					"components": [
						{
							"internalType": "bytes32",
							"name": "guid",
							"type": "bytes32"
						},
						{
							"internalType": "uint64",
							"name": "nonce",
							"type": "uint64"
						},
						{
							"components": [
								{
									"internalType": "uint256",
									"name": "nativeFee",
									"type": "uint256"
								},
								{
									"internalType": "uint256",
									"name": "lzTokenFee",
									"type": "uint256"
								}
							],
							"internalType": "struct MessagingFee",
							"name": "fee",
							"type": "tuple"
						}
					],
					"internalType": "struct MessagingReceipt",
					"name": "msgReceipt",
					"type": "tuple"
				},
				{
					"components": [
						{
							"internalType": "uint256",
							"name": "amountSentLD",
							"type": "uint256"
						},
						{
							"internalType": "uint256",
							"name": "amountReceivedLD",
							"type": "uint256"
						}
					],
					"internalType": "struct OFTReceipt",
					"name": "oftReceipt",
					"type": "tuple"
				}
			],
			"stateMutability": "payable",
			"type": "function"
		},
		{
			"inputs": [
				{
					"internalType": "address",
					"name": "_delegate",
					"type": "address"
				}
			],
			"name": "setDelegate",
			"outputs": [],
			"stateMutability": "nonpayable",
			"type": "function"
		},
		{
			"inputs": [
				{
					"components": [
						{
							"internalType": "uint32",
							"name": "eid",
							"type": "uint32"
						},
						{
							"internalType": "uint16",
							"name": "msgType",
							"type": "uint16"
						},
						{
							"internalType": "bytes",
							"name": "options",
							"type": "bytes"
						}
					],
					"internalType": "struct EnforcedOptionParam[]",
					"name": "_enforcedOptions",
					"type": "tuple[]"
				}
			],
			"name": "setEnforcedOptions",
			"outputs": [],
			"stateMutability": "nonpayable",
			"type": "function"
		},
		{
			"inputs": [
				{
					"internalType": "address",
					"name": "_msgInspector",
					"type": "address"
				}
			],
			"name": "setMsgInspector",
			"outputs": [],
			"stateMutability": "nonpayable",
			"type": "function"
		},
		{
			"inputs": [
				{
					"internalType": "uint32",
					"name": "_eid",
					"type": "uint32"
				},
				{
					"internalType": "bytes32",
					"name": "_peer",
					"type": "bytes32"
				}
			],
			"name": "setPeer",
			"outputs": [],
			"stateMutability": "nonpayable",
			"type": "function"
		},
		{
			"inputs": [
				{
					"internalType": "address",
					"name": "_preCrime",
					"type": "address"
				}
			],
			"name": "setPreCrime",
			"outputs": [],
			"stateMutability": "nonpayable",
			"type": "function"
		},
		{
			"inputs": [],
			"name": "sharedDecimals",
			"outputs": [
				{
					"internalType": "uint8",
					"name": "",
					"type": "uint8"
				}
			],
			"stateMutability": "view",
			"type": "function"
		},
		{
			"inputs": [],
			"name": "symbol",
			"outputs": [
				{
					"internalType": "string",
					"name": "",
					"type": "string"
				}
			],
			"stateMutability": "view",
			"type": "function"
		},
		{
			"inputs": [],
			"name": "token",
			"outputs": [
				{
					"internalType": "address",
					"name": "",
					"type": "address"
				}
			],
			"stateMutability": "view",
			"type": "function"
		},
		{
			"inputs": [],
			"name": "totalSupply",
			"outputs": [
				{
					"internalType": "uint256",
					"name": "",
					"type": "uint256"
				}
			],
			"stateMutability": "view",
			"type": "function"
		},
		{
			"inputs": [
				{
					"internalType": "address",
					"name": "to",
					"type": "address"
				},
				{
					"internalType": "uint256",
					"name": "value",
					"type": "uint256"
				}
			],
			"name": "transfer",
			"outputs": [
				{
					"internalType": "bool",
					"name": "",
					"type": "bool"
				}
			],
			"stateMutability": "nonpayable",
			"type": "function"
		},
		{
			"inputs": [
				{
					"internalType": "address",
					"name": "from",
					"type": "address"
				},
				{
					"internalType": "address",
					"name": "to",
					"type": "address"
				},
				{
					"internalType": "uint256",
					"name": "value",
					"type": "uint256"
				}
			],
			"name": "transferFrom",
			"outputs": [
				{
					"internalType": "bool",
					"name": "",
					"type": "bool"
				}
			],
			"stateMutability": "nonpayable",
			"type": "function"
		},
		{
			"inputs": [
				{
					"internalType": "address",
					"name": "newOwner",
					"type": "address"
				}
			],
			"name": "transferOwnership",
			"outputs": [],
			"stateMutability": "nonpayable",
			"type": "function"
		}
	]
}